:0200000407FCF7
:10000000A073FC076D05FC077505FC078D05FC0753
:1000100000000000000000000000000000000000E0
:10002000000000000000000000000000A505FC0723
:100030000000000000000000A705FC07051AFC07EF
:10004000551BFC07B11BFC071D27F0076916FC07B1
:100050007115FC07AB05FC07B714FC07AB05FC07E3
:10006000AB05FC07AB05FC074913FC074D13FC0768
:100070005113FC075513FC075913FC07AB05FC078C
:100080009113FC07AB05FC07AB05FC07AB05FC07B0
:100090008D19FC07AB05FC07AB05FC07AB05FC079E
:0200000407FCF7
:100510000348854604F08EFF004800474108FC0769
:10052000A073FC0710B50F49062008800F2000F0CB
:100530000CF8012000F009F8002000F006F8002077
:1005400005210907088062B610BD002809DBC10635
:10055000C90E0120884004490860BFF34F8FBFF3E4
:100560006F8F70470034005080E100E00F488047F3
:100570000F48004704207146084203D0EFF309807A
:100580000C490847EFF308800A49084704207146E0
:10059000084203D0EFF3098007490847EFF30880CA
:1005A00005490847FEE7FEE7FEE7FEE72505FC07ED
:1005B0001105FC072506FC07BD05FC0705221207EF
:1005C000518A802319435182134903680B604368A1
:1005D0004B6083688B60C368CB6003690B614369C0
:1005E0004B6183698B61C369CB6108620B48836A85
:1005F0004B62C36A8B62036BCB62C36B0B63436B4F
:100600004B63806B8863064908200880908A8006C7
:1006100001D500BE7047FEE70000FD0700ED00E0D9
:1006200000330050052109070A8A04231A430A826D
:100630000A8A02231A430A820A8940231A430A813A
:100640001B4B01221A601B4B08221A804A8A802306
:100650001A434A82184A03681361436853618368E6
:100660009361C368D3610369136243695362836909
:100670009362C369D36210631048836A5363C36A89
:100680009363036BD363C36B0B4A40321360436BBA
:100690005360806B9060888A800608D500BE488AC7
:1006A000012280088000D203104348827047FEE791
:1006B00080E200E0003300504000FD0700ED00E064
:1006C000F8B503460C460120154600212B4E024684
:1006D000412B3BD00ADC012B16D00222072B26D05F
:1006E000402B23D12078022824D32AE0422B33D078
:1006F000432B37D0442B19D1207800281AD01F481B
:10070000407B2870227010E006221D491D485DF7CD
:10071000F1FC0627002802D006221A4901E0062231
:10072000B11C28465DF7C2FC27700020F8BD207878
:10073000022802D221700420F8BD30782870707829
:1007400002E0307A2870707A6870DBE72078002841
:10075000F0D00A48807AD4E720780028EAD0074809
:10076000C07ACEE720780028E4D0307BC9E70020AB
:10077000704701207047012070470000A25EFC070F
:1007800090E1F1073048FD07F8B5022801D00328B1
:100790004ED1974A136904210B43136105242407A2
:1007A000628A20239A436282228A02231A43228287
:1007B000904E0027102202287578608A39D01043A5
:1007C0006082608A084360827068C01C83088A481F
:1007D0000760628A40210A436282628A8A43628297
:1007E00047618649816201210904C1622188802014
:1007F0000143218000970099491C00916429FADB8C
:10080000618A1022114361827B495B1E4B61218802
:100810008143218003205BF755F800280CD001208C
:10082000F070208A0F2109028843290208432082A0
:10083000F8BD90436082EDE7F77030780543F0E74C
:1008400008B500F080F800F0A9FA052500262D076C
:10085000042709E00421684600964CF7CBFB0028EA
:1008600014D000F011FA11E0288900060ED50120FD
:100870008007006B000409D461480078C00705D1E7
:100880005BF7ABFD5F4800780428E3D072B601F057
:1008900023FA042806D002280BD0032809D0012807
:1008A0004BD04BE058480078012801D0032000E0ED
:1008B0000220694608700446288A38432882204668
:1008C000FFF762FF022C01D0032C18D14F4841885A
:1008D000FF2201329143418041880122114341802E
:1008E00000960098401C00901428FADB6889800864
:1008F0008000401C688168894006FCD56E80A88A0B
:10090000800602D542490820088030BFA88A8006A8
:1009100002D53F49082048803648C078002807D0D3
:100920003C48006801898AB2416803205AF7A4FF55
:100930002F480169B943016100E030BF62B6C820A9
:100940003549088090E7F0B53448354E0827354AD8
:10095000354BB04201D3394608E0904201D30C2117
:1009600004E0984201D30E2100E00F212F4C304DBE
:10097000204864192F4D817064190125ED034460EE
:10098000AC4201D8012406E00325AD03AC4201D8F6
:10099000032400E00F240C434470274C31468C4262
:1009A00023D2264D26467519944205D38D4201D295
:1009B00004271AE00C2718E09C4209D3954201D283
:1009C000022712E08D4201D206270EE00E270CE02E
:1009D0009D4201D2012708E0954201D2032704E09D
:1009E0008D4201D2072700E00F270770F0BD0000FD
:1009F00000ED00E00448FD070000F407204F101A46
:100A00005877FD07D449FD07B477FD072000005053
:100A1000003300505876FD07003100500448FD07B0
:100A20000000FD0700C0FC070080FC071005FC0764
:100A300048680000000004F8A073FC070C040000E4
:100A4000704770B50D46002441F795FF2855641C8A
:100A5000E4B2202CF8D3002070BD10B500F0D5FA18
:100A600010BD1FB5020E69460A70020C4A70020AD8
:100A70008A70C870684600F0BBFA1FBD70477047A7
:100A800070470749884200D000BE05210907488AFF
:100A9000012280088000D203104348827047000082
:100AA0001111111124480178002902D080214170D0
:100AB00070472249002008702149C87070471E49BC
:100AC0000A78002A03D000280CD002200BE000286E
:100AD00001D0022000E001201849087018490120C7
:100AE000C87070470120803048707047002805D0DA
:100AF000012804D0022804D10120E0E7D2E7002039
:100B0000FBE770470C48C07870470020EFF3108176
:100B1000012282F31088052212071289120605D4D9
:100B20000848028901231A4302811846002900D08F
:100B3000012181F3108870470C48FD07B477FD0749
:100B40005877FD070033005070B505200007018974
:100B50003022914301810189802211430181018961
:100B600089088900491C01810189082319430181F1
:100B7000D4490C8814430C80448A9C4344820589E0
:100B8000402425430581058A0426B5430582858ACC
:100B9000AD07FCD5CC4E002575610E8801252E438E
:100BA0000E804D89AE05C94D0E8801D52E4300E05B
:100BB000AE430E800D887826B54328350D800D880C
:100BC000062635430D80458A1D4345820B88934395
:100BD0000B800289A24302814889800503D5B94967
:100BE00005206031888001208007016882159143CB
:100BF0000160B74801683F225202914342148918AC
:100C00000160016802031143016070BD10B5B14974
:100C100000200968572901D9573908B2C10F0818AF
:100C200040103D21484300B2C10701D01F3000B23F
:100C3000A949884200D8084680B25BF75BFC10BD2A
:100C400010B5A0494888C006040F48880122104307
:100C5000488048881E2290434880A0484B0143802A
:100C60000523038003885B07FCD480884B8893436B
:100C700014334B804B885B085B004B804B8893435D
:100C8000620013434B8010BD70B595490120C863C5
:100C9000C86B0028FCD101208007C0698A4C002164
:100CA0002269904200D22161A2780125002A04D055
:100CB000A1702061FFF7C4FF11E021691922411AD8
:100CC000D201914211D32061FFF7BAFFE188884237
:100CD00001D9411A00E0091A89B2182905D3E08028
:100CE00003F0B4FF002800D1A57070BD10B548F71F
:100CF000C7F810BD10B548F7D2F810BD724B0020F0
:100D0000197800290DD076490122CA63CA6B002ADE
:100D1000FCD101218907C969724A1268914201D246
:100D2000012070470021197070470020704710B5EE
:100D30006D4900200860FFF769FF01208007016B03
:100D400049004908016310BD08B55F4988805D49C5
:100D50004A8801231A434A80002200920099491CC4
:100D600000911429FADB052109074B899B089B0098
:100D70005B1C4B814B895B06FCD5488019208001A8
:100D80000092521C00928242FBDB4889800880005E
:100D9000488148890006FCD508BD7047F8B553481E
:100DA000C82101800024448051480827478000F072
:100DB000C9F9444820304088FFF7EFFF424801213D
:100DC0000170404860304188C908C90041803D4EEB
:100DD000718989050AD54188C2130905090D891849
:100DE00041804188782291434031418005252D077B
:100DF0006888002803D138488838FFF7A5FF708835
:100E00004008400070803B4804606A8A40210A43E1
:100E10006A826A8A8A436A8244613749816201210F
:100E20000904C16228888021084328800094009822
:100E3000401C00906428FADB002000F0D9FB224817
:100E4000203000F061F92D490A8A1F484281498A01
:100E5000818100F0A9FB00F05BF802F0AEFE0120FA
:100E600041F78FFDFFF770FE2548006841F722FA31
:100E70002448C47004710120800701688215114361
:100E8000016000F00FFDFFF70DFE02F075FA02F0B1
:100E90003EFFFFF74CFF1C4913200860FF201B4951
:100EA000913008600B494F200860EC827088E02187
:100EB0008843A03070800D49C82008800C484780C6
:100EC000F8BD0000200000501048FD070010000091
:100ED00000020040D849FD07E2040000001600505F
:100EE000C0000040546DFC07AC76FD070031005097
:100EF000003300500000F407204F101A00FEF807DE
:100F00004C76FD075877FD07DC49FD07E049FD07F2
:100F100070B51F4E1F483546002410C5401E0028DE
:100F2000FBDA03F033FD1C48302204801B491C48C7
:100F30005DF7BCF81B481D4904701B4808601D493B
:100F40001B4808601D491C4808601D490A2008709C
:100F50001C481D490470322008701C490520086097
:100F60001B4A012111601B4908601B4906200860CB
:100F70001A49072008601A4908200860FF2019490B
:100F800007300860184908601848066070BD000006
:100F9000005CFD07FF0800004048FD0758ECF10722
:100FA000FC76FD07F976FD07F060FC075076FD073B
:100FB000B05EFC075476FD073460FC075876FD07E9
:100FC000B476FD07B576FD07DD76FD075C76FD0797
:100FD0006076FD076476FD076876FD076C76FD0791
:100FE0007076FD074876FD074476FD074C76FD07D1
:100FF00010B50146102242485DF758F840480021DC
:1010000010388160C160017010BD10B53C4C103CBF
:101010002078002803D100F00BF810202070C0B217
:10102000401EC0B22070364980001031085810BDF3
:1010300070B5344B90B00FCB6C460FC4304804AD44
:101040001038014610311EC91EC51EC500210C9165
:101050000D918168C2680023491C5A41C2608160B9
:101060000F920E914022694620305DF71FF8254E01
:10107000002510360024A000801900F014F8641C2C
:10108000082CF8DB6D1C0A2DF4DB1D4A00206B4692
:101090001032810054585D58401C64195450102877
:1010A000F7DB10B070BD70B5154903784278103188
:1010B0009C0092000B598E588578C0789E190E516D
:1010C0008300C85870401026F041C850AD004E59FA
:1010D00036184E51885870401426F04188500E59E9
:1010E00036180E51C85818247040E041C8504B596A
:1010F0001B184B51885858401923D841885070BD4F
:101100005848FD074C61FC0710B5062201495CF701
:10111000CDFF10BDA8FFF807052000070188302289
:10112000114301800188032211430180704705208B
:1011300000070188302291430180018889088900D5
:1011400001807047F0B585B000268C4C029602985D
:1011500028214843009600190099890046500099BB
:10116000491C00910A29F7DB0298401C02900428D0
:10117000EDDB02F00BFD814D0021083D2960696027
:10118000012702960020009002997D484900465AA6
:1011900000993846884080B206421DD00298282126
:1011A00048430099001989004058411C1BD0002871
:1011B0000DD0C117009A5CF7BDFF029A12015CF7CF
:1011C000B9FF2A686B68104319432860696000986A
:1011D000401C00900A28DBDB0298401C0290042887
:1011E000D0DB05B0F0BD00BEE3E7F8B51646044617
:1011F0000D460A461F46012000215CF79BFF220195
:101200005CF798FF5D4B083B1A685B68104019401B
:10121000084300D100BE032C00D1042459496001C9
:101220004018690008183E43C680F8BD70B50446F2
:101230000D460A46012000215CF77CFF22015CF785
:1012400079FF4E4A083A1368526818401140084323
:1012500000D100BE032C00D104244A49600140188B
:101260000121A940818070BD70B504460D460A4633
:10127000012000215CF75EFF22015CF75BFF3F4A23
:10128000083A1368526818401140084300D100BE64
:10129000032C00D104243B49600140180121A940DE
:1012A000418070BDFFB581B00C4605460A461F4619
:1012B000012000210A9E5CF73DFF2A015CF73AFFFE
:1012C0002E4B083B1A685B6810401940084300D158
:1012D00000BE002E2146284602D0FFF7C5FF01E0E0
:1012E000FFF7A4FF3B4621462846039AFFF77DFF00
:1012F00077E770B5012421460A3881400D4688B24F
:1013000000F02CF884402048C189A9430C43C481D3
:1013100070BD10B504460A3804280BD82046FFF7E4
:10132000E8FF1649A000A03140188038806D0028E1
:1013300001D0804710BD002CFCDBE106C90E012066
:1013400088401249086010BD0A20E2E70B20E0E760
:101350000C20DEE70D20DCE70E20DAE700280BD0BA
:10136000411E4840C003010C002002E04908401C17
:1013700080B20029FAD1704710207047B048FD07AD
:101380007C61FC07003000500014005080E200E057
:1013900010B5FFF7CCFE052000078188CA0B16495F
:1013A00018D0164B1A88520714D51A88D20711D0B4
:1013B00018880222104318801888400840001880BE
:1013C0000C68002C05D0985E0421595E0A229A5EB2
:1013D000A04710BD8088C006FBD5094802881206C8
:1013E000F7D501228280028880239A4302804868D0
:1013F0000028EED0804710BD6449FD070002005070
:101400000001005054490A880F239B019A43800130
:1014100002430A80704750490A880F239B019A4370
:10142000800102430A80704710B504464A494B4880
:10143000088000204880062000F046F8204600F092
:1014400050F810BD44484649028802231A430280DE
:10145000491E02D302889207FAD4002101814089F3
:101460007047F8B505463F48006800906846FFF7AA
:10147000DBFF142000F060F8002D01D0092000E00F
:101480000720FFF7C8FFFFF7DDFF0446012000F04B
:1014900053F8002668468670FFF7C6FF002D01D07E
:1014A000092000E00720FFF7B6FFFFF7CBFF2A492E
:1014B00000190E80F8BD2849012008812A480068DB
:1014C000002800D000477047002809DBC106C90E7C
:1014D0000120884025490860BFF34F8FBFF36F8F0D
:1014E000704730B505001FD01B4C29782088012299
:1014F000D2029043C90208432080287801286878E6
:1015000013D0FFF77FFFA9780120800200292188EE
:101510000ED00143218009206080E9780220002953
:10152000618807D00143618030BDFFF774FFEAE7AF
:101530008143EFE78143F6E70AE000BF00BF00BF49
:1015400000BF00BF00BF00BF00BF00BF00BF00BFA3
:10155000401EF2D27047000000150050014000000C
:10156000A08601008461FC076C49FD0780E100E072
:1015700010B50A4880890A49C96A002901D08847FC
:1015800010BD042000F001F810BD002805DBC106E5
:10159000C90E01208840034908607047201300509D
:1015A000586DFC0780E200E018B51B4900220A6074
:1015B00005200007448A40231C434482448A9C43FC
:1015C00044824A61154B8B6201231B04CB62048861
:1015D00080231C4304800092521C0092642AFBDB8F
:1015E0000A68D208D2000A6001889943018018BDB8
:1015F000052109070988090600D400BE06490A88A2
:10160000520700D000BE002802D0FF20023000E0C8
:1016100001200860704700000000F407204F101AF6
:10162000544930B4884201D0012100E00021524ADF
:101630004901891808E0838ADB07DB0F12D0038891
:10164000541C8D68CC81AB54CA898B899A42F2D3E1
:1016500082885208520082808A69002A02D0C88992
:1016600030BC104730BC704710B5444800F001F85A
:1016700010BDF8B53F4D404E044620890007000FCD
:10168000062826D009DC012840D002281DD00428D5
:10169000F3D12046FFF7C4FFEFE7072828D00C2836
:1016A000EBD1AC4201D0012000E0002040018719BD
:1016B0002046FFF7B5FFA18849084900A180B96914
:1016C0000029DAD0F8898847D7E7204600F01FF8CC
:1016D000D3E72046AC4201D0012100E000214901BE
:1016E00089190A69002AC8D0818A9E2319400BE013
:1016F0002046AC4201D0012100E0002149018919B6
:101700000A69002AB9D001219047B6E7F8BD194906
:1017100030B4884201D0012100E00021164A49017D
:1017200089180EE003891B069B0F032B1BD0838AAD
:101730009B06DB0F002B95D0531C0C68CB80A25C62
:101740000280CA888B889A42ECD3828802239A430B
:101750008280828880239A4382804A69002A81D0CD
:10176000888830BC10477C231B5A9B07DB0FE1E7BE
:1017700078E70000001000507049FD07001100508C
:10178000F1B592B0634E64490496088AB41C0C907B
:1017900089220520000702810122604B52031A8032
:1017A000028880231A4302800288920892000280F5
:1017B000088A02221043088200F079FB41F700F901
:1017C00041F704F90020694601E08888401C8880C0
:1017D00088889128F9D3524801880991418810914D
:1017E0005049CA880F920A890E92C2880D92408B86
:1017F00008904D48408807904888069000F05AF8B5
:101800000025B0B22B468446484861464180FF21FE
:10181000818001210180C188C907FCD10A460846A0
:10182000049E275C365C7E40F607F60F8E4016431A
:10183000491CC9B2F2B2082905D112994A556D1C4A
:101840000021ADB20A46344FC82620373E80103002
:10185000FF2680B2B600B042E2D95B1C9BB2022BDD
:10186000D2D32D480C9901823149002008802C48A0
:1018700009990180109941802A490F9ACA800E9ACD
:101880000A810D9AC280089A4283274A079850809D
:101890000698488005200007028880218A4302803C
:1018A00013B0F0BD10B52348FFF76AFF2148FFF7DA
:1018B0009FFB10BD08B51A49002008804880194ACE
:1018C0001D4BD380FF23D2331381C880C3215180A5
:1018D000174A082111806946088003E06A4611888A
:1018E000491C1180694609889129F7D36946088007
:1018F00003E06A461188491C1180694609889129CC
:10190000F7D3694601E00888401C088008889128C0
:10191000F9D308BD1001FC07E03000500002004080
:101920000024005060280050002600500035005070
:1019300020200050886DFC078080000081894908C4
:10194000490081818189082291438181704710B5C6
:101950000C4603460120284900050860BFF34F8F5D
:10196000BFF36F8F002A02D01846FFF7E7FF580831
:101970003821224A08401358002B03D080184068B1
:1019800021469847142000F02CF810BD70B51C4E6D
:101990007488002520E01A49280180394018E107A1
:1019A00017D08189090609D40189491C8AB2418965
:1019B000491C89B28A4201D1012200E0002241067D
:1019C0004B0F01219940B1800189491C89B2FFF771
:1019D000BEFF6D1CEDB26408002C01D0042DDAD3DB
:1019E00070BD002806DBC106C90E012088400249EF
:1019F000803908607047000080E100E0B049FD07D1
:101A00008036005002480068002800D00047704728
:101A1000D049FD07F8B50126B607B56B2846FFF794
:101A200069F9994C21694718002020619749384687
:101A30005CF7C2FA96494860944A5043381A00D07D
:101A4000101A80B20860306B082188430843306365
:101A50009048056090480068002810D0A8420ED237
:101A60008E49097800290AD16168281A4018E1686E
:101A7000821D8A4201D2801D00E008466060F8BDE8
:101A8000F8B5FFF754FB00268448052706700425A7
:101A9000834C36E02188042089088900891C218034
:101AA0006080208828432080FFF736FB00E000BFDD
:101AB00020884007FBD4FFF73AFBE088A1880004A8
:101AC00040187849401805280FD26F484188491CB2
:101AD00089B24180142919D3468042688168531E17
:101AE0008B4200D91946416010E067494E80486832
:101AF000CB68821C9A4200D213464B606748012192
:101B0000017038467F1EFFB20028C3D105200007B0
:101B10004189890708D04189890889004181624942
:101B20004A88520852004A8001898022114301816B
:101B3000018AA9430182818A8907FCD500F0C4F893
:101B4000012080070169490700D500BE01694907E6
:101B5000FCD5F8BDF8B5052636077089800720D07A
:101B6000B08A400701D502F028F84F4D2888802719
:101B7000384328804A4CFF20608004202080FFF7F3
:101B8000CBFA7D21C900E088A28800048018884231
:101B9000F9D9052020804548008870802888B843FE
:101BA0002880434801894907FCD4FFF769FFF8BD45
:101BB000F8B5354E0127BD072C69002C62D02006F0
:101BC00003D58020A8614BF7BEF8A00703D50220FB
:101BD000A86147F77EF8200706D50820A8610020F5
:101BE00047F737F804203070E00505D5FF200130B5
:101BF000A861012047F72DF8A00504D50120400277
:101C0000A8614BF709F9600603D54020A86147F7A2
:101C10001BF8E00603D51020A86145F750FC6007CB
:101C200021D50420A8612248018949084900018181
:101C30005AF736FC40F740FD002030701A484089C2
:101C4000800510D5707800280DD11A48777000886B
:101C5000C00708D10120FFF704FC8B2189008842CE
:101C600001D902207070E00706D00120A8615AF760
:101C700033FC4BF768F83770A0069DD52020A8618B
:101C800000BE99E7F8BD0000D449FD0771020000CD
:101C900040000040F049FD07E849FD07986DFC074A
:101CA0000016005061F8FFFF200000501448FD07A7
:101CB000003300500015005010B540F734FB654864
:101CC00080686549486010BD10B540F758FB624810
:101CD00060494068886010BDF8B5002600F0B5F88E
:101CE00000270090FEF70EFF5C4C002802D12079FF
:101CF000022801D10020009059480089C00711D165
:101D0000FEF7FCFF00280DD159F721FD002809D06E
:101D1000E0780126002805D005200007808AC0074A
:101D200001D004268FE0208800287DD1FEF7EAFE4E
:101D3000002806D14B48806A002802D000F085F8C0
:101D40000090FEF763FFA17868465AF70BFA002867
:101D500079D00125AD072869400674D43F488178C1
:101D600068464BF747F900286DD03F4900200C68C2
:101D70003E490978022900D132343D490A78012AC6
:101D800000D121340870E96B1220890A89020143CD
:101D9000E963E86B37490840A1020843E863E86B50
:101DA0003721C002C00A89050843E8633249009818
:101DB0000426884200D300BEC00264215CF7FCF810
:101DC000002800D0401E244AC01E611C10608842BA
:101DD00000D1146021480079002801D0012100E0E1
:101DE0000021106847F7DBF82448C06A8047FEF7F7
:101DF0009CFF002802D0FFF78FF90127154C286BB4
:101E00000004C00FFBD02068C005FCD520688025E9
:101E1000A8432060002F01D0FFF789F910484189BD
:101E2000462906D2462200E00DE0154B511A1960F2
:101E30004281FFF741FF20680006FCD5052000071E
:101E40000189A94301813046F8BD0E480068806AC7
:101E50007047000000020040E849FD075877FD0781
:101E600000330050787EFD07D849FD07B477FD07A1
:101E7000D549FD07FF03E0FF40420F00B47FFD0797
:101E8000E449FD075876FD0700207047704770470A
:101E900070470020704701218907086B0722104313
:101EA00008637047704740087038C0B270474049B7
:101EB0003E48086040493F484881404841880622E2
:101EC0009143891C41803E4A6321D1803D493A4A71
:101ED0000988603A11823C49098801803B480078B2
:101EE000002802D03A4930200883704700B58BB0F3
:101EF000384A4262384A8262384A4261384AC2628B
:101F0000384A0260384A0262384A4260384AC2613E
:101F1000274800214038426B1F231B049A43431378
:101F2000D218426333480268C3129A4302600268BF
:101F300003139A43026068464154491CC9B22829D8
:101F4000FAD301462C482822006840305CF7AEF8EE
:101F5000FFF7ADFFFEF774FE2849088002F076FE19
:101F60000BB000BD12484038416B1F221204914350
:101F700042138918416300060168C908C90001605D
:101F800005200007018989088900491C0181018910
:101F90000822114301811A484189890504D5018825
:101FA000782291430831018081E700004C055407F5
:101FB00080000040EBE60000602800500026005042
:101FC000002C00501C48FD071A48FD07F449FD0786
:101FD00000240050891EFC078D1EFC07931EFC0781
:101FE000971EFC078F1EFC07A51EFC07911EFC0711
:101FF000A71EFC07000200404C76FD071648FD07AF
:1020000020000050FFB58FB000241F461B9E1A9D74
:102010007E486946099413460884002A05D00422A4
:1020200019460AA85CF742F802E00020C0430A9073
:102030000F980A99401C0B90C0B207E00A46024173
:10204000D20701D0641CE4B2401CC0B2B842F5D340
:10205000182044432018032159F79CFC044610988B
:1020600001882180199961800F98142148434119F2
:10207000087902280DD0042830460CD040221043A5
:10208000207109691022A01D5CF710F80B98C6B2E8
:1020900072E02671F5E72022F1E70A983041C00787
:1020A00068D03046142148430D9040190C900079B7
:1020B000022804D0042813D010283DD056E018215F
:1020C00002A85CF70CF80D98285801786846017250
:1020D0000D9828584178684641720C9880681CE039
:1020E000182102A85BF7FBFF0D9828580178684675
:1020F00001720D9828584178684641720D98285809
:102100008178684681720D982858C1786846C172F6
:102110000C98012180688904084306900C988189F5
:1021200068468183182109980A464843001902A984
:1021300018305BF7BBFF19E00D9818222958099851
:10214000504300190490102218305BF7AFFF0C9930
:1021500004988A680121C9040A43014628311046BF
:102160005BF7DFFF0C988189049881850998401CF2
:10217000C0B20990761CF6B2BE428ED30998607147
:1021800020464DF780FE0390002838D11098218812
:102190000180002009900B98C6B2BE422FD20A9847
:1021A0003041C00724D009981421401CC0B27143AB
:1021B0000990481902908089000419D40298C089B6
:1021C000002815D002980079022806D1685802220A
:1021D00008A95BF78FFF00280AD002982288C189DE
:1021E00003690998101880B200224DF726FF03906A
:1021F000761CF6B2BE4202D203980028CFD0204609
:1022000059F743FC039813B0F0BD00000328000009
:1022100002468B880020022B01D00D207047C98810
:10222000002A05D00029F9D00129F7D08120704774
:102230000029FCD00229F9D17047F0B589B00446D5
:102240004DF772FE05460026384F14E005A92046DA
:102250004DF789FE002301AA07A905A800964DF7AE
:1022600075FF68468088B84203D1641CA0B209B0EB
:10227000F0BD641EA4B2A888A04202D8E888A0429B
:10228000E4D20020F3E7F0B58BB004464DF74CFEE6
:10229000264F00260546FF371BE008A920464DF7CC
:1022A00062FE002301AA05A908A800964DF74EFF7B
:1022B00068468088B84203D16946097D022911D059
:1022C0001A49884203D16846007D022807D0641C61
:1022D000A4B2A888A04202D8E888A042DDD200209B
:1022E0000BB0F0BD2046FBE710B50446FD2000F022
:1022F00026FE82790021A24202D98088001981B28B
:10230000084610BD70B504460D46FD2000F017FECE
:1023100081888022A14206D880790818A04202D97B
:10232000601A28700022104670BD000003280000CB
:1023300030B503460120002103241A46CA40D207C3
:1023400004D04D0022466D1CAA401043491CC9B25E
:102350000929F2D330BDFFB585B005460E981E465B
:102360000088FFF7E5FF049030461E210840A98A47
:102370004B4A002380300191009302920390132373
:1023800004AA484906984EF736F9070027D10121DB
:10239000202059F7FFFA044620215BF7A0FE2C61AC
:1023A0000698008820830E9800886083F00701D08B
:1023B0000120C003079908432080A88A6080142068
:1023C000E8820120E88120461E30A8603648686017
:1023D000201D40F79FFBA88A002159F76CFD384665
:1023E00009B0F0BD70B5046905466068002805D0E5
:1023F000201D40F797FB59F748FBF6E700202861BE
:10240000204659F742FB70BD704770472448E430BE
:10241000704730B50446228B0920521C93B2648B5E
:1024200000222546D540ED0706D05D1C8D4201D126
:10243000104630BD9B1C9BB2521CD2B2092AF0D36D
:1024400030BD10B50346008B5B8B401C80B2002270
:102450001C46D440E40706D0914202D1401C80B211
:1024600005E0801C80B2521C52B2092AF0DB092A16
:1024700000D1002010BD02460020802901D98D2006
:102480007047062A06D0072A07D0082AF8D107295C
:10249000F5D170470829F2D170470629EFD370476C
:1024A0008861FC070A1800009462FC07FFB581B040
:1024B0000C46142000F043FD21780746092935D247
:1024C000FFF7BFFF00282FD061782078FFF7D3FFF8
:1024D00006002CD17D680DE028792178884208D14A
:1024E00000222946381D40F78DFB284659F7CDFAC2
:1024F00002E02D68002DEFD160780121083059F7F6
:1025000049FA6178054608315BF7E9FD20782871C2
:10251000607868716278A11CA81D5BF7C7FD294629
:10252000381D40F71BFB02E0822600E081260223D3
:102530005248039A049959F73BFB21780170467081
:1025400059F74FFB002005B0F0BDFFB581B000206A
:1025500000900E46039859F7E0FC002802D00128AD
:102560004CD04DE0142000F0EAFC07463188FFF71C
:1025700050FF05464248092D36D27C6803E0217998
:10258000A94203D02468002CF9D117E0002C15D003
:102590006379039A9B1D049959F70AFB0546308815
:1025A000288000202871607968806279A11D681DEB
:1025B0005BF77CFD284659F714FB21E03D77049832
:1025C000010A7977384600F0D7FC01462B480123F1
:1025D000401C039A59F7ECFA057059F702FB0121E8
:1025E000039859F768FC0BE00623039A049959F7FE
:1025F000DFFA3188018080210171DCE70220009040
:102600000098A0E7F8B517460D46104659F785FC27
:10261000012831D1142000F092FC0446017FFFF71D
:1026200010FF0646217F2A781548914214D1617F18
:102630006B7809023A4608319B1D59F7B9FA0446EE
:10264000068000202071687860806A78A91C601D6F
:102650005BF72CFD204609E0617F062309023A461C
:10266000083159F7A5FA06808021017159F7B9FAA6
:102670000021384659F71FFC0020F8BD0114000066
:10268000140C0000FFB5064685B000270121282064
:1026900059F780F9044628215BF721FD00253461B4
:1026A00026E008981E210840B28A80300390534BE0
:1026B00000216F460EC752480022411904914B7801
:1026C000405D0699FFF79EFC0746002D02D1069853
:1026D0000088A0804A480499405D4978091A069804
:1026E000008808180699002F088027D16D1CEDB2CC
:1026F000444800788542D4D3434D2878A071089887
:10270000C00701D00120C003079908432080B08A88
:102710006080FD20F0820120F08120462430B060EE
:102720003A4870602046103040F7F4F92988334861
:1027300000F0CDF8B08A002159F7BDFB384609B04A
:10274000F0BD70B50469054626461036206900289C
:1027500005D0304640F7E6F959F797F9F6E700203B
:102760002861204659F791F970BDF3B581B0029800
:10277000082800D300BE0124204D254F224E10E032
:1027800020461421484341190979022908D12858C3
:102790000088B84204D1E1B20022029800F0B4F8F7
:1027A000641C30888442EBDBFEBDF7B582B0006963
:1027B0000124124D164F144E009010E020461421B3
:1027C000484341190979022908D128580088B8429C
:1027D00004D1E1B20022039800F096F8641C30881E
:1027E0008442EBDB0399009800F0BEFB002159F70F
:1027F00062FB05B0F0BD0748704700004064FC076D
:102800003A64FC073C64FC073E64FC07F462FC0786
:10281000022900009C62FC07F7B5074682B00D460E
:10282000FD2000F08CFB0646046910E02079B842D8
:102830000CD16079A8420DD03046002221461030DC
:1028400040F7E0F9204659F720F905E02468002C0C
:10285000ECD101E0002C0ED1284608300121009077
:1028600059F798F8044600995BF739FC3046214641
:10287000103040F773F9277165712A46A01D04993D
:102880005BF714FC002005B0F0BD70B50646144699
:102890000D46FD2000F053FB0369002C00D100BE63
:1028A000002D0DD100BE0BE01879B04207D1587948
:1028B0002880981D2060002B04D0002070BD1B686C
:1028C000002BF1D10020288020600A2070BDFEB5C9
:1028D000054600200E4600900124F74F019010E0BD
:1028E00020461421484341190979022908D1285862
:1028F0000088B84204D1E0B26A460821FFF78CFF95
:10290000641CB442ECDBFEBD7FB515460E460446A2
:10291000082800D300BE03AA02A93046FFF7B5FF7E
:1029200068460289002A00D100BE0399002900D11F
:1029300000BE5BF7BBFB6846055502460189304681
:10294000FFF76AFF7FBD7CB5FD2000F0F8FA8468D0
:102950000546002C00D100BE687B6A4601A90C34F4
:10296000FFF793FF68468088082800D000BE0099D2
:10297000287B08282DD2421C2A736278002A0A5C20
:1029800002D0D207F4D001E09207F1D5A188083136
:102990008BB2A968CA880102C1200001083159F729
:1029A00007F906466078002801D0122000E01320C5
:1029B0003070A88861884018B080A088F0803046C8
:1029C000A288A11D08305BF771FB304659F709F961
:1029D0007CBD607800260028A868C288018907D0DD
:1029E0000423B64859F7E4F861880180867007E04F
:1029F000B2480623801C59F7DBF8618841800671D4
:102A000059F7EFF8A86859F740F800212846AE605A
:102A100000F0AAFA002159F74EFA7CBD10B50878EB
:102A2000122801D0132801D1FFF78DFF002010BD1F
:102A300010B50C46FD2000F082FA80886188A31D45
:102A4000401880B2A18800224DF7F7FA002010BD8F
:102A5000F8B517460D46FD2000F071FA044680884F
:102A60006988401886B2384659F757FA012805D0C8
:102A70003046FFF708FC002802D002E00220F8BD33
:102A800000BE6946FFF73EFC002800D000BE0121D1
:102A9000384659F710FA0C3D0020A56020736846AF
:102AA00000786073FFF74FFF0120F8BDF8B51746B7
:102AB0000D46FD2000F043FA0446808869884018DE
:102AC00086B2384659F729FA012805D03046FFF773
:102AD000DAFB002802D002E00220F8BD00BE694601
:102AE000FFF710FC002800D000BE0121384659F73E
:102AF000E2F90C3D0020A560207368460078607301
:102B0000FFF721FF0120F8BD70B516460C461046B0
:102B100059F703FA002813D1FD2000F010FA0546FA
:102B2000062332460821664859F742F8A988628888
:102B300089180180A1884180A179017159F751F864
:102B4000002070BDFFB589B00F460B9859F7E5F925
:102B5000002802D002200DB0F0BDFD2000F0EFF9FA
:102B600005900020694608720C9802A9050A388869
:102B7000FFF7C8FB0024694606468C83002825D150
:102B8000FD2000F0C7FF43686846007A1422014622
:102B900051430A1D9A5C022A27D15958464A09888E
:102BA000914222D1082D00D300BE04AA01A9FFF74B
:102BB0006CFE68468088002800D100BE049800287A
:102BC00000D100BE405D6946888302243C48A31DB5
:102BD000001F0B9A0C9958F7EBFF054638882880A0
:102BE0002E716C80002E16D01AE02946059800F050
:102BF000C3F9014631480423C01E0B9A58F7D8FF89
:102C000005706946097A418058F7EBFF01210B985E
:102C100059F751F907E0224607A9681D5BF746FA04
:102C2000284658F7DEFF002095E7FFB585B00C4633
:102C3000FD2000F084F9049000266846067008988C
:102C40006946050A2088FFF75DFB07466088002873
:102C500000D000BE002F62D1FD2000F05BFF0146D6
:102C6000476868460078142302465A43131DFB5CEC
:102C7000022B27D1BA58104B12889A4222D10196C2
:102C800002962088FFF7D9FA002800D100BE01ABD8
:102C9000002203A94DF7EDFB039821468005C00FE4
:102CA000FFF7B6FA07063F0E39D168460178E28889
:102CB0002846FFF729FE18E00229000007FD000062
:102CC000180C0000002908D08E69002E05D0A288BB
:102CD0006188A31DB047070021D16288A1882088A0
:102CE000A31D4DF7AAF9070019D12946049800F051
:102CF00043F90146A088079A801D83B23D4858F7E2
:102D000057FF0546A288A11D801D5BF7CFF96846D5
:102D100000786880A088A880284658F762FF0423BE
:102D20003548079A089958F743FF21880180877032
:102D300058F757FF002009B0F0BDF8B51D461746FB
:102D40000E46104659F7E9F8002815D1FD2000F08D
:102D5000F6F80446274804233A461946C01C58F79B
:102D600027FF290A0170082900D300BE3188A288F4
:102D7000891A418058F735FF0020F8BD70B5164616
:102D80000C46104659F7C9F8012819D11A48A179FB
:102D9000801E002916D02178062309023246083108
:102DA00058F706FF0546A078FFF79EFA2880802096
:102DB0002871284658F715FF0021304659F77BF84F
:102DC000002070BDA1883246891D8BB2217809028E
:102DD000083158F7EDFE0546A078FFF785FA288000
:102DE00000202871A0886880A288E11D681D5BF71B
:102DF0005DF9DEE70AFD0000160C0000F8B50025BD
:102E0000804EFF27002818D000241820604387191F
:102E1000F88A00F0E9F8002802D04168384688476F
:102E2000FF20F8827D60BD60FD81387D59F788F80C
:102E3000641CE4B2202CE8D3F8BD002420461821FD
:102E400048438119224610320D618A82CF824D603B
:102E50008D60CD818D813550087D58F7FAFF641C57
:102E6000E4B2202CEAD3F8BDF3B5054681B00026C4
:102E7000408800F0B9F801000AD0624F6A8800204B
:102E800018234343DB19DB8A934203D1422628E00F
:102E9000402626E0401CC0B22028F1D30024182090
:102EA0006043C019C08AFF2806D0641CE4B2202CFD
:102EB000F5D3202C14D014E02846083000901820B8
:102EC0006043C0190E686B78AA880746A91DB047F1
:102ED0000600EED16888F8820298B98A0180E8E796
:102EE0004B263046FEBDF8B5464E07460024182056
:102EF00060438519E88A00F077F8002803D08268DB
:102F0000394628469047641CE4B2202CEFD3F8BD24
:102F1000F3B53C4E81B00F4600241820604385195C
:102F2000E88A00F061F8002804D0C3683A462846D1
:102F300001999847641CE4B2202CEED3FEBD0346F1
:102F400010B500202F4A014618244C43A418E48AE7
:102F50009C4204D1182041438818006910BD491CC7
:102F6000C9B22029F0D310BD42885004400CD20BC6
:102F700001D009020843704702885004400CD20B6C
:102F800001D009020843704730B5FF21020AC4B2DC
:102F90001C4B002018254543ED18AD8AA54204D1ED
:102FA00018214843C018C18A03E0401CC0B2202841
:102FB000F0D31002084330BD30B5FF21020AC4B27D
:102FC000104B002018254543ED18ED8AA54204D189
:102FD00018214843C018818A03E0401CC0B2202851
:102FE000F0D31002084330BD014610B50020C9B22D
:102FF000142904D0FD2901D1FFF7FDFB10BDFFF717
:1030000005FA10BDF849FD0710B500F0A9FB00F066
:103010001DFA0020FDF76AFD10BD0C21254A10B5F0
:10302000414389188978FF2902D000F0B2F810BD19
:1030300000F08AFE10BD10B500F0A2F8002801D003
:1030400000F082FE10BD10B500F07EFE10BD10B580
:1030500019490A780270401C491C5BF727F810BD1B
:103060001549498C01807047082101801021418059
:10307000002181807D21C180704770B50C460178A8
:1030800000250D4B002904D0012909D048202070CB
:1030900070BD8278011D1A70581C5BF707F801E0BB
:1030A00040885884257070BD012008700020488039
:1030B00088807047104DFD07304DFD070021F44A10
:1030C00005E0834201D101207047491CC9B20C239D
:1030D0004B43D35CFF2BF4D10020704770B5EC4913
:1030E000EC4C0E460C36EC4D0DE052185268002A9E
:1030F00007D0C2B20C235A4351184968401C607073
:103100002DE0401C607060780C2242438B5CFF2BEA
:10311000EBD10AE089194968002903D0FFF7CEFFF7
:10312000002809D02078401C207021780C204143D1
:10313000705CFF28EED117E020780C2141438919FB
:103140004968401C20700AE04919C968002909D063
:10315000C1B21C2251434919C968401CA07088475C
:10316000002070BD401CA070A0781C2141436A5C07
:10317000FF2AE9D10020A07060702070012070BD8E
:1031800010B50121042058F796FEFFF7A7FF10BDE8
:10319000A4E7F8B505460024BD4E0AE08019816811
:1031A000002904D0641CE4B22846884701E0641C6E
:1031B000E4B220460C214843315CFF29EED1B44EE5
:1031C00000240C3609E08F19B968002903D0FFF7F5
:1031D00075FF002809D0641CE4B20C216143705CC7
:1031E000FF28F0D10024AC4E10E0641CB968E4B2B2
:1031F00028468847F1E780190169002904D0641C3A
:10320000E4B22846884701E0641CE4B220461C2151
:103210004843315CFF29EED1F8BDF8B59D4DE86813
:10322000002835D15223042209219C4858F7C0FCBC
:103230000446E8600D202070002666709848A08043
:10324000E08007202072012060721620A672E072D2
:10325000024620460C3093A107465AF727FFE8683C
:103260002B210E54C07A21462C3109301F2806D854
:10327000E07A0421C219204690A30B3006E02B20EF
:10328000005D8EA34218204604212B3000F0EDF89B
:10329000E868F8BDFFB5074680481E460D4681B078
:1032A000412304220921401C58F782FC04461020C7
:1032B000207065702A463946A01C5AF7F7FE212077
:1032C000065520463246223003995AF7EFFE204633
:1032D00058F787FC05B0F0BD70B56E4E044685000A
:1032E000361D7059002816D121020E23042275487C
:1032F0000A3158F75DFC09210170002C00D000BE96
:10330000705110218180082141800021C1807D22DF
:10331000028141818181705970BD70B55D4EB06888
:10332000002827D15D482C2304220921093858F7A9
:103330003FFC032101700A21B06041701721018414
:10334000002585760446458010210A305AF7C7FECD
:103350002021E176A583E5835B496584488FFB22C4
:10336000FB2800D91046E0845848898F814200D854
:1033700008462085B06870BD3EB5002544490095DB
:1033800001950C223431684602955AF78FFE414868
:103390000C22183069465AF789FE3E4C0422383414
:1033A000227046A1601C5AF781FE39496584243198
:1033B000042058F74EFD0021042058F77CFD3EBD47
:1033C00070B50D4601023F4814462C2304220C38E8
:1033D0000A3158F7EDFB014620310D724C7258F757
:1033E00000FC70BD19E710B5FFF717FF58F7F9FBA0
:1033F00028490020C8600221042058F75CFD10BD58
:1034000010B50446FFF768FF58F7EBFB214A002090
:10341000A100121D505010BD10B5FFF77EFF58F7E8
:10342000E0FB1C490020886010BD1A4A00212432AC
:103430004B00D35C834203D148008018407870472A
:10344000491CC9B20A29F3D304207047114910B5A9
:103450000020FF232431042442008B545218401CC6
:10346000C0B254700A28F7D310BD70B50646481C88
:103470001070092015460C46507022461946A81CAB
:103480005AF714FE3078A41C0019307070BD00008B
:103490000C63FC07F84CFD07DC63FC070D0D000016
:1034A0004C04000003030A181107595A08E4862A3D
:1034B0009E8FE911BC7C9843421800004469636503
:1034C000000000000E0E0000A479FD07480800006F
:1034D00010B5104658F721FD002802D000BE00208C
:1034E00010BD012304220921994858F761FB0121ED
:1034F000017058F776FBF2E710B50C780D2C22D04E
:1035000008DC012C0FD0022C21D0032C13D00C2C62
:1035100021D122E00E2C20D0112C1ED0122C1CD038
:10352000132C18D119E04878002801D000BE14E00F
:10353000FFF772FF11E04878002801D000BE0CE0D0
:10354000FFF779FD09E0487800F039FC05E04C7898
:10355000002C00D000BE00F044FC002010BDF8B5E7
:103560001C4610460E4658F7D8FC022802D000BE72
:103570000020F8BD240A00D000BE0C202746474397
:1035800074483D18AC70FF2C15D00121E97003215F
:10359000042058F790FC6F483188C153707A287125
:1035A0003146681D06220A315AF780FD01220021AA
:1035B0002046FFF705FF3146204600F0D9FBD7E74C
:1035C00070B50D784C78092D04D0002C00D000BEC9
:1035D00000F007FC002070BD70B51D4610460C467B
:1035E00058F79BFC2A0A032802D000BE002070BDB9
:1035F0000C2042435748FF21101881700021C170F0
:10360000204600F0E0FBF1E700207047F0B50878B5
:103610000025514C89B01F461646002804D00128C9
:1036200017D0022827D129E06846FFF710FD684629
:1036300003783246394620460A3358F7B9FA044629
:10364000057068460278411C6280201D5AF72EFDE5
:103650002BE069460D806846FFF702FD0A233246DB
:103660003946204658F7A4FA0121017069460988B5
:10367000418058F7B6FA002009B0F0BD0A23394658
:10368000204658F795FA04466846FFF7EDFC0220FD
:10369000207068460088608068464088A080684640
:1036A0008088E0806846C08820812046E1E738B500
:1036B0000C464820694608701D0A2046FFF7DDFCCD
:1036C0002548290202230422801C0A3158F770FA87
:1036D0006946097841702178017058F782FA002014
:1036E00038BD10B5104658F718FC012809D1FFF76E
:1036F0004FFD002805D00221042058F7DCFBFFF71E
:10370000A2FC002010BD70B518460D460146E12010
:103710000623000158F74CFA044601462846FFF7F5
:10372000C3FC204658F75DFA002070BD00207047AA
:103730000020704700207047FEB51C46089B0D26F0
:10374000064D6F4668C71346224600F0B4F8FEBD2A
:10375000020D0000104DFD070B0E00004C63FC072E
:10376000704710B50A23042209210B4858F720FAA4
:1037700004461B2020701420FFF757FE60701420B1
:1037800060800420A0800020E080FF21743121812E
:10379000204658F726FA10BD1B0D0000F8B50E465E
:1037A00009781846002425460B005AF7D3FC090671
:1037B00009120915150C180F1B000B241AA512E08D
:1037C00007241CA50FE008241CA50CE007241EA557
:1037D00009E00A241EA506E00F2420A503E0062424
:1037E00022A500E000BE0146A31C224858F7E0F9DC
:1037F0000746307838707C70002C04D02246294669
:10380000B81C5AF753FC384658F7EBF90020F8BDBE
:10381000FEB51C46089B0126174D6F4668C7134628
:10382000224600F048F8FEBD4469616C6F67205382
:10383000656D69004441313435383500123456FF26
:10384000FE9ABCDE0000000001D2008005000100ED
:10385000312E302E302E302D4C450000765F362E26
:10386000302E31322E313032302E3200FFEEDDCCB0
:10387000BBAA000003140000C463FC07FFB583B0BB
:103880001E4E002401AFA0003558002D00D100BE0F
:10389000009703A80FC8A847002809D0641C042C6F
:1038A000F1D303AC0FCC00F09CFA002007B0F0BDC0
:1038B00068460079FAE7F8B5089C9C46079D0346E0
:1038C000002C19D0641E17D40D4FE600AE5B9E424B
:1038D00001D0BE420ED1E3005B195C68002C00D120
:1038E00000BE002C08D013466246A0470699087017
:1038F0000020F8BD641EE8D50120F8BDCC63FC07AC
:10390000FFFF0000052000070089000608D5012000
:103910008007006B000403D403480078C00701D07F
:1039200000207047012070475877FD0770477047A7
:1039300070B50D460446FFF7E5FF002806D06F4836
:103940002A460421201858F785FB70BDFDF7DDF8E5
:103950006A48042208231146801E58F729F9456059
:10396000047058F73EF970BDF8B5654C069D061910
:103970000024002E26D0012E0CD0634F614B3A4616
:10398000283A022E0AD05E49C91E41180A2929D3B5
:103990000120F8BD00F088F828703DE00878461E48
:1039A000092E0DD88000001F1058984233D1B00066
:1039B0003B5813504A6808781146FFF7B9FF2AE0D0
:1039C00000BE28E04A68002A0AD05048824200D34C
:1039D00000BE087849494018042158F73BFB1AE01B
:1039E00000BEF6E74649891E4018C0B2411E0929AB
:1039F00010D88600B218803AD16F00290BD09942B6
:103A000009D0434B994206D0D467F219803AD46763
:103A1000884700E000BE2C700020F8BD0A46010077
:103A200010B53A480ED0814200D300BE364B00207C
:103A3000283B84001C59002C06D0401C0A28F8DBC7
:103A4000002010BD00BEF1E784001A51401C04069E
:103A5000240EF5D02046FFF76BFF204610BD70B551
:103A60000446401E09281DD82748A10028380D18F3
:103A7000803DE86F002813D0254EB04210D01F487B
:103A80000421201858F730FB1C4804220823114653
:103A9000401EEE6758F78CF8047058F7A2F870BD16
:103AA00000BE70BD00BE70BD10B508780C46411E4A
:103AB00009291FD882001448121F28388258144B35
:103AC0009A4205D10022890042502830425012E02B
:103AD000890040580B4988420DD104220823114621
:103AE000064858F765F8217801706168416058F719
:103AF00078F800E000BE002010BD000003040000C4
:103B0000FFFBFFFF2F39FC07804DFD07FCFF3F0047
:103B10002D39FC070021154A06E0834203D11C2001
:103B2000414388187047491C1C234B43D35CFF2B2F
:103B3000F3D10020704710B51823042209210C4846
:103B400058F736F804461B202070FD20FFF76DFC67
:103B50006070FD2060800420A0800021E180E16091
:103B60002161A182204658F73CF810BDDC63FC07B8
:103B70001B0D00003EB51D46069B00240093134616
:103B8000019402942A46FFF796FE3EBD10B53848D0
:103B90000169002902D00021C94300E0012101612F
:103BA000C8170A0F00011043324A0901146853680C
:103BB000214318431160506010BD08B50524240747
:103BC000208A022188432082A08A0007FCD52A4847
:103BD0004188FF2201321143418000F0BFFE274996
:103BE00008200880224D0027A86AFF43002801D042
:103BF000394600E00121C8170A0C00041D4E10438D
:103C0000A962326809047368114318433160706017
:103C10000020034603220146009012020120FDF716
:103C200041FB6869002800D10127F817F90E40010F
:103C30006F6108433368790172681943104331603A
:103C40007060002003220346120205210090FDF758
:103C500029FB608A202188430843608200210120DB
:103C6000FDF702FB05210020FDF7FEFAFEE700004C
:103C7000B048FD07A848FD07200000500033005061
:103C800010B518460C4601460823094857F790FF1F
:103C900021780C225143074A89188978017061887C
:103CA0004180002181800321817157F79AFF10BD67
:103CB0000EFD0000104DFD0770B5784CE078000651
:103CC00002D525462D3501E0744D0E3500F099F8EA
:103CD000E07872494006400E40190822891D5AF7C3
:103CE000E5F96E4A63792D32104621791F38FFF7C6
:103CF000D1FA6B496B48FFF791FE607070BD10B54B
:103D0000664C2078FFF77CFB0020A07010BD70B5DA
:103D1000624C0025A5700721A01D0170FF21417094
:103D2000CD218170AB21C1700421001D5AF7D7F954
:103D3000204616225CA10E305AF7B8F916202071E1
:103D40006571FFF761F970BD10B555495548FFF72A
:103D500065FE5249487000F054F8FFF743FB4F49A5
:103D600001230822891D00F058F8FFF73CFB10BD25
:103D700070B50C4605460C205149684340188078C0
:103D8000FF2815D0454E35707078FFF768FE6088C3
:103D90000838092805D2A088002802D1E0887D28AB
:103DA00008D07D204749C000FFF738FEB07001E021
:103DB000FFF7CAFF21462846FFF72FF970BD4428B8
:103DC00000D1C1E7704710B5344CA078002803D06B
:103DD000FFF745FE0020A07000F013F8FFF7B4FFD6
:103DE00010BD10B5384C041904D0032C01D1FFF7D5
:103DF00047FF10BD084649880229FAD100F099F81A
:103E000010BD10B5254C0023A41D30A20421201D97
:103E100001F0A6FBC01C207010BDFEB5174604467D
:103E2000002B01D01C2000E01F20E27A2546831AD7
:103E300020460C3001902030184E20350090BB42B7
:103E400009DB019810183A465AF730F9E07AC019A0
:103E5000E07208380FE0E87A1F22121ABA420CDB2F
:103E6000009A80183A465AF721F9E87A8021C01959
:103E7000E87208380843F07000E000BEE27A0748B4
:103E800032710E3001995AF711F9EA7A03487271CA
:103E90002D3000995AF70AF9FEBD0000A84DFD0724
:103EA000B93CFC07B80B000003030A181107595A64
:103EB00008E4862A9E8FE911BC7C984342180000D2
:103EC000104DFD07FF3CFC07F602FFFF25640000D4
:103ED00010B590B018222A4902A85AF7E7F802A9AB
:103EE00008A800F0BEF80D9801F058F80191009074
:103EF00024A207210EA801F033FBFD203EF79FFC12
:103F0000014619230422204857F752FE0446002098
:103F1000207001206070022060801320A0800722A2
:103F20000EA9A01D5AF7C2F8204657F75AFE10B046
:103F300010BDF8B5054681881448012900D10170EB
:103F4000002101700C46124F14E028198179027A81
:103F50006423303959435118C0790A225043C0199B
:103F60000E18032120465AF727F80849491CE41C7B
:103F70000E54E4B2A888A042E7D8FFF7A9FFF8BD25
:103F80009064FC072566000006FD0000F44DFD0767
:103F9000F1FDFFFFFFB5002781B03C4638E06846E1
:103FA00000268088039935464843009012E00B981C
:103FB000B1004158601982000A98805800F0B1FFA2
:103FC000394600F055FF07460398761C281885B23D
:103FD0000098B6B2A842EADC3846029900F048FFE1
:103FE0006049884201D900200CE05F49884202DD27
:103FF0007F20C00506E05D4900F093FF3F210906E0
:1040000000F036FFA20004990027641C8850A4B277
:1040100003988442C3D305B0F0BDF0B500252C460B
:10402000534B08E062009E5AD218528856437219C8
:10403000641C95B2A4B28C42F4D34C002A46E11819
:1040400008E04B4E97000C36F659571BBF00521C28
:10405000C65192B21E5B4F887E4376199642F0DCC1
:10406000F0BDF3B5FFB082B0002406226DA800F0C9
:104070006DF8404808902022684608995AF716F8CB
:104080003C4E2146083E0CCE09A8083EFFF7C5FF6E
:1040900009A86DA900900191354861000D18E00054
:1040A00080190779C6793946477936063F02394380
:1040B00087796A883F04394331430646377877ABBE
:1040C000384677783F023843B778F6783F0438436C
:1040D00036063043FFF75EFF6A8877A96DA800F0C7
:1040E00035F8641CA4B2042CC5D320226846089974
:1040F00059F7DCFF1F4D2146083D0CCD09A8083DAE
:10410000FFF78BFF09A800906DA9E000019140190D
:104110000579C4792946457924062D0229438579F4
:1041200006222D042943214304462578819B2846F5
:1041300065782D022843A578E4782D0428432406C9
:104140002043FFF727FF7FB004B0F0BD30B5002358
:1041500004E09C000D595B1C05519BB29342F8D3BF
:1041600030BD0000000020C000002040CDCC4C3EFF
:104170006065FC07184EFD0770B50E460446002228
:1041800003214DF7E8FB05464EF7B4FD688028464D
:104190004DF7F2FB4EF7AEFD7188884200D308461A
:1041A000014620464DF7CFFC002070BD0246FB4B78
:1041B00092009A580120126900290ED0517F5E2387
:1041C0009B5C002B0BD0052906D1517E090702D537
:1041D000917C090700D400207047917DEFE7022908
:1041E000F9D00429F7D00529F6D10020EDE70246E1
:1041F00030B59300E94A0120D2581269137DD47E6C
:10420000157F2340547D2C40012901D0022909D17A
:10421000957C527E15402A0704D41A462243D207C1
:1042200000D10020032901D0042904D1590702D468
:10423000610700D4002030BDFFB5160AD84CB50088
:10424000615910460A8B01239B0281B01A430A83ED
:1042500057F763FE002852D0132850D014284ED0B0
:10426000152811D060592D210B5C0122D906002997
:104270000DDA0146A0318F7D002F08D08A753D21CF
:10428000304642F7B7F83AE0022005B0F0BD190712
:1042900003D50021A0308175F6E7A0308275029821
:1042A00001228178437809021943401C1B39E12916
:1042B00000D30022C178837809021943B94BFF3932
:1042C000801C4939994200D30022C17887780902BD
:1042D0003943801C1B39E12900D30022C17887783B
:1042E00008023843FF38493898420AD2002A08D0D9
:1042F00030463FF779FD304602993FF7B8FD002080
:10430000C3E71E22142130463FF732FB60590121DA
:10431000028B89028A430283F1E710B50446A24862
:10432000008D8007800F012800D0002060710028D8
:1043300007D054F75BF901460622A01D59F7B6FED7
:1043400010BD06229949A01DF8E770B50546002466
:104350003EF711FB2855641C082CF9DB70BDF8B53D
:10436000022707700126044646700D468879904959
:10437000C96988472A210855287900210007000FBC
:10438000A070030059F7E6FE07050709100D100B92
:104390001000A1700AE0A67026E0032002E0A770DA
:1043A00004E00420A07001E001281DD0A888000AC4
:1043B000801FC0B2A0721F2800D9A17228463EF704
:1043C0008FFB811D2046A27A0B3059F76FFE2846DD
:1043D0003EF786FB01460622201D59F767FE287925
:1043E0004006C00FE070F8BDA172F0E7F7B5446871
:1043F0008CB025462435039505460746243548F7F5
:1044000083FC06464420405B5221484369490968C1
:104410004018C0304089694608840121384643F776
:10442000B2FB48F7E6FA09900E9800698088000A06
:10443000C10061480818298940185F495B3159F764
:10444000BBFD01466868039D4718403528890690E2
:104450000090A0680099381A4001400959F7ACFD56
:104460000A910098C019401A400140096946A060AD
:10447000098C4900C919891C49014909884204D29B
:104480000699401840014009A06001460998081AA1
:1044900040014A494009884215D900202B89A26869
:1044A000401CD21852015209A260EA89521CEA81CA
:1044B000A368099A9A1A520152098A42EED801B2A7
:1044C0000D9843F701FCA1680998081A4201607D24
:1044D0005209824210D82A89891849014909A160E4
:1044E0002A890A99511A814206D901210D9843F768
:1044F000EBFBE889401CE8812989A06859F75CFD3D
:10450000F1802889B080208A3081A88870810020BD
:10451000B081C807C00FB073A888522148438E30BD
:104520003082304648F7FBFB0398466320460FB0C5
:10453000F0BDFFB51C490020496801240A7893B0FA
:10454000064621460C2A0CD06A46117300221192AD
:10455000002E09D015990291169D1F2D66D9402075
:1045600064E000242246119413990291149DF4E70B
:10457000029989184978012905D0172903D01829EB
:1045800001D0192924D1631E04E003AFFF5C8F42E0
:1045900016D05B1E5BB2002BF7DA15E02C7EFD0710
:1045A0001879FD07010700004C7EFD07CF79FD0754
:1045B000B47FFD074C76FD0716020000FFFFFF03E6
:1045C000002B01DB4A2003E003AB1955641CE4B265
:1045D0000B0059F7BFFD1D26101010101010101001
:1045E00010262626262626262626262626261010AD
:1045F000101010102600119B03E00BAFFF5C8F42E0
:1046000004D05B1E5BB2002BF7DA03E0002B01DB6A
:104610004A2006E0119F0BABD9551199491CC9B22C
:1046200011910299895C521C89188AB2AA4201D25E
:1046300000289DD0AA4200D04A20761CF6B2022E55
:1046400001D2002882D017B0F0BD10B50022134669
:1046500007E084186478012C07D0845C521CA218EF
:1046600092B28A42F5D3184610BD80188378FAE7D3
:10467000F0B50646A9B01546002084006318DA7824
:104680009F7812025B783A4352BA1B041A430B5DBF
:1046900007241B061A43231A9F0020AB401CDA5143
:1046A0000828EAD300218A0090190746C378807849
:1046B0001B02034378785BBA00040343B05C10AA82
:1046C00000060343601A80001350384622304378B6
:1046D00000781B0203433846203047785BBA3F041A
:1046E00000783B43000603430F27781A8000491CDB
:1046F00013500829D7D358F76DFB0146304658F7B9
:10470000E6FF00282DD058F765FB034620AA10A924
:10471000684659F7E7FB00226846A11A8B0096000D
:10472000C75C7119CF70C75A3F0A8F70C7583F0CCA
:104730004F70C35820311B0EAB550F239B1A9B00A3
:10474000C65CCE70C65A521C360A8E70C658360CDD
:104750004E70C3581B0E0B70082ADED3002029B000
:10476000F0BD0120FBE7F7B50025174606464123BB
:104770002A4629460A2057F71BFA0446002E10D075
:10478000012E02D0022E0CD105E02022611C002057
:104790003EF70AF904E0621C394601983EF7B4F886
:1047A0002070204657F71DFA2846FEBDF8B5784818
:1047B000009007680C46002F7BD005461C35287EEC
:1047C000002876D0012802D0022872D102E0207899
:1047D000002819D038896F49002688423AD107202D
:1047E00047F78AFE002835D042233E2200216A483E
:1047F00057F7DEF9082101702178002913D0032131
:1048000041702178817043E061480226611C1430B8
:104810002E762022044659F749FC22465F4930464D
:104820003EF77CF845E0002146701F22531A1B1901
:1048300047185B78491CBB702029F7DB00213F2219
:10484000531A47181B1920375B78491CBB70202965
:10485000F6DB1DE04F493889491C88421AD10820EF
:1048600047F74AFE002815D022233E2200214A485D
:1048700057F79EF909210170217800291BD01221D8
:1048800041700021FF224318491C9A702029FADB4D
:104890004AF73EF92E76402057F70DFE00983EF776
:1048A00041F957F7C8F900980068002801D03EF791
:1048B00030F80020F8BD002146701F22531A1B1942
:1048C00047185B78491CBB702029F7DBE0E770B51F
:1048D000087800250C46012809D01D2810D02B2867
:1048E00012D04022194652F723F9284670BD57F7D7
:1048F000CCFC2B48012504602A4853F7ACFCF4E7B4
:1049000029483DF76FFFF0E7284801680029ECD1FE
:104910000121016026483EF76BF8E6E770B51D4DB2
:10492000244C223DAB4217D11B4809232A460021C3
:10493000C01E57F73DF9044608221F49401C59F78D
:10494000B5FB2079082108432071002525702046F9
:104950004AF7DEF8284670BDA04770BD10B5A0220A
:104960001649174859F7A2FB1449502250391548E7
:1049700059F79CFB12481449A03001600F49703967
:1049800041600F4911482039086010BD7047000090
:10499000287AFD07252000000408000089E7F107B8
:1049A0004C7EFD07030C0000C3C3C3C35077FD0753
:1049B000CC7DFD070DC3F0075CE5F1076C6CFC07CF
:1049C00020000840C000FC078CBFF107FF03100067
:1049D000F0B5374887B0018906914188354D05917A
:1049E000A9890491698B344AC9B212880392334A67
:1049F000D289334C029222880192C2880092314AB5
:104A00000126038976037711BB4303814388B710DE
:104A10003B434380A889000A000296310843A881DD
:104A200025483821018025480027C78110780028B3
:104A30000DD02548218800687211114321802188FA
:104A4000090A09024030007D0143218002E0142060
:104A500000F088F9184887800188018801221143F5
:104A600001800188C907FCD000E0761E0188C907D3
:104A700001D0002EF9D187800D49069A0A81059A46
:104A80004A80049AAA81039A02800C4B029ADA8126
:104A9000019A2280009ACA80002E02D0012007B01D
:104AA000F0BD01884908490001800020F7E70000B7
:104AB000002C00500025005000220050002400501F
:104AC000002000500C6DFC074C76FD07F0B5324815
:104AD00085B0018803914188029130490989304BA2
:104AE000019119882F4C009127882F49CE880325E2
:104AF0006D022E490022028022224280FF22274896
:104B0000D13202812C221A800878FF21013100283D
:104B10000CD02748228800680A4322802188090A8D
:104B200009024030C07C014321800AE0208808430C
:104B300020802088000A000213302080132000F01B
:104B400011F91748002181800288028801231A4345
:104B500002800288D207FCD000E06D1E0288D207D6
:104B600001D0002DF9D181800B49039A0A80029A65
:104B70004A800A4A019911810099018027800A49D7
:104B8000CE80002D02D0012005B0F0BD018849087B
:104B9000490001800020F7E7002400506028005001
:104BA0000022005000200050002C00500C6DFC072B
:104BB0004C76FD0730B5644802880321490234234E
:104BC0000380002383800488048801252C4304800B
:104BD0000488E407FCD000E0491E0488E40701D003
:104BE0000029F9D183800280002901D0012030BD45
:104BF0000188490849000180002030BDF8B5534CB8
:104C00006088C6076088F60FC005C50F6088400839
:104C1000400060806088FF270137B8436080FFF75D
:104C2000C9FF002805D0FFF751FF002801D0FFF78A
:104C3000CFFE6188A18861884908490031436180BD
:104C400061882A02B94311436180F8BDF8B53F4C31
:104C50006088C6076088F60FC005C50F60884008E9
:104C6000400060806088FF270137B84360803DF7CF
:104C7000A7FE3DF7ABFE0022082102203DF79AFE79
:104C8000002800D001206188A18861884908490076
:104C90003143618061882A02B94311436180F8BDC4
:104CA00070B501252A492A020A60BFF34F8FBFF36E
:104CB0006F8F28490A6028490B681C0A2402402388
:104CC0001C430C60224980390A6020494C88062622
:104CD000B443241D4C804C882C434C804C88382590
:104CE0002C434C804C889C434C8001280FD1488831
:104CF00033021843488048881043488048882A0275
:104D0000104348804888012292039043488070BD38
:104D100010B5124CE18A124ACBB21189248BC90416
:104D2000890E6404640E001B093141430120C00256
:104D3000401A80B2584340031189000E090A090243
:104D40000143118110BD00000022005020200050BE
:104D500080E100E080E200E008E400E00023005091
:104D6000002C0050064A4108515CC207054801D09A
:104D7000090901E00907090F1031C18070470000DF
:104D80004C4EFD07002C0050F8B5020205464123A9
:104D9000092134480A3256F70BFF272101700446D7
:104DA00000201F233049AA008F581E1A4936BE5DC5
:104DB0002718401C7E702028F6DB00203F238E58E9
:104DC0001F1A4937F65D27182037401C7E702028AF
:104DD000F5DB57F7FFFF0146601C58F778FC002809
:104DE00012D10A2000906A46052128464EF76CFF32
:104DF00028464FF751FF009960221143CAB201467D
:104E0000012328464EF7CAFE204656F7EAFEF8BDB3
:104E100070B505460446008914490C3488B08842B0
:104E20001AD100201F216E460A1AA25C3254401C7F
:104E30002028F9DB20223146204659F737F9002097
:104E40003F210A1AA25C3254401C2028F9DB2022A0
:104E50006946A01859F72AF9284646F746FA08B0D5
:104E600070BD0000270D00002C7EFD0726200000ED
:104E7000F8B502464A40D40F42004B0052085B0886
:104E80009A4202D20246084611464A0023D0C30D78
:104E90004A00DDB2120EAD1A202D35DA4902012684
:104EA000490AF6058A19002C00D0524220214F1BD6
:104EB0001146B9402A411018C20D9A4221D0002C47
:104EC00017D0012D08DCDA05801AD20F8019D2071D
:104ED000DBB200F0AFF8F8BDDA05801A012340001C
:104EE0001B06C01880185A428018CA0F1043490088
:104EF00007E04908C2071143DA05801A8019400803
:104F0000801800F08FF8F8BD61000122511A001BD3
:104F1000F7E70122D2075140AAE70122D207504009
:104F2000A6E7024670B54A40D30FDB0740002DD0FC
:104F30004A002AD0010E140E000212020919400A7A
:104F4000520A8418E50104465443000A120A2E044A
:104F50005043A4194219200CC543AA18120C01256C
:104F6000AD03521C521912047F39240400D0521C84
:104F7000104301D44000491EC2B20C06C0092018DB
:104F8000401C4008802A02D003E0002070BD400889
:104F90004000002900DA0020184370BDC20FD2077C
:104FA000400040080BD0C10D0723DB01C9184002A7
:104FB0000905400A1143C208400711437047002009
:104FC00001467047F0B51FB40646002082B0054682
:104FD0004024019100901BE0019922460F46304683
:104FE00000F03AFA049A059B801A994110D31046B2
:104FF0001946224659F79EF8361A8F4101972246E4
:1050000001200021009F59F795F838184D41009074
:105010002046641E0028DFDC019B009829463246AA
:1050200007B0F0BD002904DA401C490001D1400856
:105030004000704770B40024050C05D11024000412
:1050400002D1002921D01124050E01D1000208341B
:10505000050F01D10001241D850F01D18000A41C82
:10506000002801DB4000641C002908D020252E1BED
:105070000D46F540A14000D0012129430843010617
:105080001B1B000ADB1D02D5002070BC7047DB052E
:10509000181880180029F8DA401C4900F5D170BCB6
:1050A0004008400070470000F0B5074608465840E9
:1050B00087B0C00F049048000E46590040084908C8
:1050C000BC1A884105D2384631461E4617460B4663
:1050D00002465800400810434CD0300D0390400564
:1050E0005900400D490D0590401A0290402872DA8F
:1050F00018030121000B0905084301900498009250
:10510000002805D001995242002088410092019068
:10511000029840210A1A0199009859F70BF80546A0
:105120000C466B4607CB00F0A8F9C0197141039AF1
:105130000E0D0023D71756401A467A40164344D026
:10514000049A002A2DD0029A012A039A15DC12052E
:10515000C01A914101263605001C7141D20F059EEF
:10516000D2070093019202962A46234600F0A5F941
:1051700007B0F0BD38463146FAE71605224A0F4619
:10518000B218C01AB74101210905001C4F4100188F
:105190007F41114618187941E20F10436D1964419F
:1051A00013E0E2076D0815436408C2071443039A2D
:1051B00001261205C01A91413605001C7141CE0727
:1051C000400830434908C01851412A46234600F0A0
:1051D00067F9CDE7FFE7049801224000C117121AD2
:1051E00000238B4104983146C417381AA141EEE7D9
:1051F00030B40124E407634030BC55E730B40124E7
:10520000E407614030BC4FE70000E0FFF0B51FB499
:1052100088B00B990998002448400999C00F4900AB
:1052200049080991C0070B990090490049080B9162
:1052300009990898A64608431CD00B990A98084378
:1052400018D0099801244000420D4800410D0998EA
:1052500024050003000B204309900B980003000B6A
:1052600020430B9050181C4940180022019014460E
:10527000104605E0002001460DB0F0BD032801DA1C
:10528000034600E003239C46C11A0AAE0AE05F0011
:1052900008ADED5B4F00F75B7D430027AA187C410A
:1052A000491C5B1E6145F2DD410004AB5A522104EA
:1052B000120C0A43240C401C0828DFDB01980290E2
:1052C0000099704601910090059B049A07990698F1
:1052D00000F0F3F8D0E700000DFCFFFFF0B50C463E
:1052E0005C4085B0E40FE40703944C00002664089A
:1052F00059009446490802460296224321D062464C
:105300000A431ED06200570D4A000E032303550DB9
:10531000012402462C492405781B1B0B360B401830
:1053200023432643614600901C46501AB44103D3E0
:105330000098401C009002E0921800985B41002801
:1053400003DA0020014605B0F0BD00200121090567
:105350000746864611E064461D46141BB54106D338
:105360006546521BB341744607430C43A646CD071E
:1053700040084908284392185B4105460D43EAD18D
:105380001046184313D060461946504071400843F8
:1053900006D06046101AB34106D20122002306E06F
:1053A00000220123DB0702E00122D24353100098C0
:1053B00074460105381C6141029C039D0019694136
:1053C00000F06EF8BFE70000FD0300004A0009038B
:1053D0000123090B1B0519430A4B10B5520D9A42C4
:1053E00002DA0020014610BD064B34339A4203DC3A
:1053F0009A1A00F031F810BD034BD21858F79AFEF4
:1054000010BD0000FF030000CDFBFFFF10B5002919
:1054100004DB0124E40740428C412146002B04DBDD
:105420001C460123DB075242A341994200D190421E
:1054300010BD0000064C0125064E05E0E36807CCD0
:105440002B430C3C98471034B442F7D3FBF764F875
:10545000246DFC07546DFC0710B5202A04DB0846B8
:10546000203AD040002110BD0B46D340D04020242C
:10547000A21A91400843194610BD10B5202A06DB38
:10548000CB170846203A1041C1170B4306E00B46E4
:105490001341D0402024A21A91400843194610BD60
:1054A00010B5002B08DA0024401C614192185B41C2
:1054B0001A4301D14008400010BDF0B51FB482B0BE
:1054C00005460C0003D0084600F064F802E000F046
:1054D00061F82030024600902146284658F72AFEFF
:1054E000049B059A04460F4618431143084314D001
:1054F000184610431BD0009840210A1A18460599F7
:10550000FFF7AAFF05460E46009A0599049858F73A
:1055100011FE084305D0012004E02046394607B0BB
:10552000F0BD0020C11705430E432C4337430099BB
:105530000E986305401A7905E40A00220C43FD0A1F
:105540000A3002D500200146E9E70105101969413A
:105550000C9C0D9D00196941FFF7A2FFDFE70000D9
:105560000FB41CB50246002007AC00290BD0491E21
:1055700001910092064B6A462146069800F0EAF82F
:10558000009A002111701CBC08BC04B01847000030
:105590008D5EFC072021020C01D010211046020A6A
:1055A00001D010460839020901D01046091F8208AF
:1055B00001D01046891E420801D0881E7047081A83
:1055C000704702E008C8121F08C1002AFAD17047CC
:1055D0007047002001E001C1121F002AFBD1704773
:1055E000F0B51FB486B00998089A030D0021024354
:1055F00014D05148514A18185043051411980128E5
:1056000010981AD0281A401C00264D4F4D4900967C
:1056100001910490002812DA444211E0119801240B
:1056200049A3012801D11098C1430698119A8460BA
:105630000360C26041600BB0F0BD4042E4E7044645
:10564000210500203F4A001C51410391029012E0C5
:10565000E00707D032463B4601990098FFF7D6FD98
:105660000191009032463B4610461946FFF7CEFDA9
:1056700006460F466410002CEAD10498039B0028CC
:10568000029A0999089806DAFFF7C0FD019B009A73
:10569000FFF7BCFD05E0FFF721FE019B009AFFF735
:1056A0001DFE04460E460022284BFFF7AFFE03D82E
:1056B0000020C043014607E00022254B204631462A
:1056C000FFF7F2FCFFF782FE102409E0002C0ADB52
:1056D0000A220023FFF776FC079B30321A55641E1E
:1056E00002460A43F2D11122641C079B121B1C19AB
:1056F000119B012B03D0012308430ED10AE008437C
:1057000004D0112010900020119077E71098151AFE
:105710006D1E0BE01098824202DD00236D1C03E039
:10572000824201DA00236D1E002BEED006981199FB
:105730008260C16030C07EE701FCFFFF104D0000B9
:10574000000014400000F03F300000000000F04373
:105750000000E03FFFB597B00646002518E2252877
:1057600077D100242746FD49049400E00443761CC9
:1057700032780120203A90400842F7D130782A2828
:105780000ED00222307801463039092916D8049902
:105790000A235943303940181443761C0490F1E72A
:1057A000189802C804911890002904DA01204003D7
:1057B00004434842049002200443761C30782E288B
:1057C00014D1042004437078761C2A2809D1189833
:1057D000761C80C8189009E00A214F43303FC71952
:1057E000761C3078014630390929F5D930786C2893
:1057F00010D006DC4C281AD068280ED06A2817D1A1
:1058000004E0742813D07A2812D110E0012040055A
:1058100004430CE00121090501E0032109050C43C3
:105820007178814203D1012000052418761C761C72
:105830003078119066280BD013DC58287DD009DC15
:1058400000287BD04528F6D04628F4D047281AD126
:10585000A5E118E0632835D0642870D0652812D1FE
:105860009DE170286CD008DC6728F1D069287BD0D6
:105870006E280DD06F2806D1BAE073282ED0752877
:1058800071D0782859D01A9A199990476D1C7EE1E9
:105890006002400F022809D003280DD00428189870
:1058A00001680DD00D60001D189070E11898EA177E
:1058B00001680D604A60F6E7189801680D80F2E70C
:1058C0000D70F0E718986A4601781172001D189063
:1058D0000020507202A80090012005E0189802C82C
:1058E000189000200091C04361070DD5002101E010
:1058F0000199491C0191B94212DA8142F8DB009A00
:10590000515C0029F4D10BE0002101E00199491C10
:1059100001918142FADB019A0099895C0029F5D155
:10592000019904981A9B471A21463846199A00F0A3
:1059300097FA0199401945180BE04FE02CE113E06C
:105940004EE0009800990078491C00911A9A199924
:1059500090470198401E0190401CF2D121463846E4
:105960001A9B199A10E137E00A200021009001915A
:105970006002410F022907D0189A01CA1892C21773
:105980009446032908D00AE01898C01DC108C90030
:1059900005C91891944607E000B2C217944604293D
:1059A00002D140B2C1178C4600226146944506DA06
:1059B0000A460021404291418C462D2102E02105FA
:1059C00004D52B216A461173012103E0E10701D0C0
:1059D0002021F7E7029155E00A200AE0102008E0B4
:1059E000102000900021042004430191082703E0C7
:1059F00008200021019100906002410F022907D088
:105A0000189A01CA189200229446032908D008E087
:105A10001898C01DC108C90005C91891944603E033
:105A200080B2042900D1C0B200210291210729D5FA
:105A30001199702906D0009A1021019B4A401A43FF
:105A400005D00EE040216A461173012108E061464D
:105A5000014306D030216A46117311995173022116
:105A60000291009A0821019B4A401A430AD16146DB
:105A7000014301D1610705D530216A461173012127
:105A80007F1E02911199582904D035A10E910DA9BC
:105A90000D910DE037A1F9E76146019B009AFFF7F0
:105AA00091FA0E9B8C469B5C0D9A521E0D921370C0
:105AB00061460143F0D10D9805A9081A20300190E4
:105AC000600703D501200004844300E0012701980A
:105AD000874201DD381A00E000200199009041184A
:105AE000029809180498401A0490E00306D421464D
:105AF0001A9B199A049800F0B3F94519002706E09B
:105B000003A81A9AC05D199990476D1C7F1C0298D2
:105B10008742F5DBE0030CD521461A9B199A0498BD
:105B200000F09EF9451904E01A9A3020199990471F
:105B30006D1C0099481E00900029F5DC08E00D98C6
:105B40000D990078491C0D911A9A199990476D1C6E
:105B50000199481E01900029F1DC63E10928010048
:105B600030313233343536373839616263646566D3
:105B70000000000030313233343536373839414295
:105B8000434445460000000000F05AF94519761CD0
:105B90003078002800D0E2E528461BB0F0BD600751
:105BA00000D406271898C01DC108C90048680A68B3
:105BB0000831C30FDB071891190001D09CA108E040
:105BC000210501D59BA104E0E10701D09AA100E0E5
:105BD0009AA1430011985B08109165280CD006DC4F
:105BE000452809D046281DD0472841D141E06628E4
:105BF00018D067283CD13CE00021112F01DB112097
:105C000000E0781C0191009008A911A8FFF7E8FCBA
:105C1000139905910021119A15927F1C12980197F2
:105C2000009150E00120C00703900120019008A9D5
:105C3000009711A8FFF7D4FC139A1499059200223B
:105C4000119B009212981593059A0192002901D098
:105C5000104602E0791C40180190381A01D50198CD
:105C600004E04042401E0090781C0190C01B02904E
:105C700043E0012F00DA01270021112F01DD11205F
:105C800000E038460191009008A911A8FFF7A8FC90
:105C900013990591119A002112981592009101977C
:105CA00021070CD40599B94201DB019900E001916B
:105CB000012904DD159A491E515C302906D0B842ED
:105CC00001DA011D05DA0121029115E00199491E51
:105CD000EDE7002805DC0099411800910199091AA7
:105CE00003E0019A411C914200DD01910099401AA4
:105CF000401C02900120C0070390200706D402999F
:105D00000198814202DB0020C043029000206946D6
:105D1000C87707AF012103980337C907884224D009
:105D2000022011902B201290039800280CDA404298
:105D300003902D20129007E00A21039858F73CF9B0
:105D400030317F1E039039701199481E119000293F
:105D5000F2DC03980028EFD1791E12980870307891
:105D6000202108404530BF1E387006A8C01BC01D4A
:105D7000039010980078002800D001200199411864
:105D80000298C0170918039809180498401A401E71
:105D90000490E00306D421461A9B199A049800F057
:105DA0005FF8451910980078002803D01A9A1999BD
:105DB00090476D1CE00324D521461A9B199A04983C
:105DC00000F04EF845191CE00098002807DB009908
:105DD0000598884203DD1598405C199901E01999EE
:105DE00030201A9A904700986D1C401C0090029831
:105DF000401E0290002804D11A9A2E20199990472B
:105E00006D1C0199481E01900029DDDC05E0387801
:105E10001A9A7F1C199990476D1C0399481E03908C
:105E20000029F4DC21461A9B199A0498ACE600007C
:105E30002D0000002B0000002000000000000000EA
:105E4000F8B5044600251E461746880404D405E02C
:105E500039462020B0476D1C641EF9D52846F8BD90
:105E6000FFB50446002581B01E46C80301D5302782
:105E700000E02027880404D505E038460399B047A0
:105E80006D1C641EF9D5284605B0F0BD4A68002A8D
:105E900006D00A68531C0B6010704868401E4860AA
:105EA0007047F40104FF0000FF04D007064064328D
:105EB000ED1EFC07651FFC074BD3F007A9D3F007C5
:105EC000B1D3F00701D4F00719D4F0072FD4F007AD
:105ED00051D4F007E1D7F00781DAF007C1D8F00715
:105EE000E1D8F00701D9F0073FD9F0074FD9F00703
:105EF000FBEEF007D5ECF007F3ECF0070FEDF00741
:105F000029EDF0073DEDF007BFEDF007D7EDF00705
:105F10003FBEF10749C0F10773AFF007C106FC07A8
:105F20007707FC077307FC076F07FC07ED21F007F5
:105F3000830AFC07151AFC072F0DFC07ED0CFC0764
