:0200000407FCF7
:10000000E87DFC077105FC077905FC079105FC07F5
:1000100000000000000000000000000000000000E0
:10002000000000000000000000000000A905FC071F
:100030000000000000000000AB05FC07111CFC07DD
:10004000611DFC07BD1DFC071D27F0077518FC0787
:100050007317FC07AF05FC07BB14FC07AF05FC07D3
:10006000AF05FC07AF05FC074D13FC075113FC0758
:100070005513FC075913FC075D13FC07AF05FC077C
:100080009513FC07AF05FC07AF05FC07AF05FC07A0
:10009000991BFC07AF05FC07AF05FC07AF05FC0784
:0200000407FCF7
:100510000448854605F03EFA004800474508FC07B8
:10052000C046C046E87DFC0710B50F49062008808C
:100530000F2000F00CF8012000F009F8002000F076
:1005400006F8002005210907088062B610BD0028C2
:1005500009DBC106C90E0120884004490860BFF3C9
:100560004F8FBFF36F8F70470034005080E100E081
:100570000F4880470F48004704207146084203D0C7
:10058000EFF309800C490847EFF308800A49084750
:1005900004207146084203D0EFF309800749084759
:1005A000EFF3088005490847FEE7FEE7FEE7FEE7B0
:1005B0002905FC071105FC072906FC07C105FC07F6
:1005C00005221207518A8023194351821349036877
:1005D0000B6043684B6083688B60C368CB600369C2
:1005E0000B6143694B6183698B61C369CB610862AD
:1005F0000B48836A4B62C36A8B62036BCB62C36B2B
:100600000B63436B4B63806B88630649082008804B
:10061000908A800601D500BE7047FEE70000FD0706
:1006200000ED00E000330050052109070A8A042389
:100630001A430A820A8A02231A430A820A89402339
:100640001A430A811B4B01221A601B4B08221A8095
:100650004A8A80231A434A82184A0368136143680E
:10066000536183689361C368D3610369136243690B
:10067000536283699362C369D36210631048836ACB
:100680005363C36A9363036BD363C36B0B4A4032F8
:100690001360436B5360806B9060888A800608D536
:1006A00000BE488A012280088000D203104348829D
:1006B0007047FEE780E200E0003300504000FD0795
:1006C00000ED00E0F8B503460C4601201546002178
:1006D0002B4E0246412B3BD00ADC012B16D00222C6
:1006E000072B26D0402B23D12078022824D32AE0C0
:1006F000422B33D0432B37D0442B19D120780028FC
:100700001AD01F48407B2870227010E006221D4935
:100710001D485DF7EFFC0627002802D006221A4983
:1007200001E00622B11C28465DF7C0FC27700020BE
:10073000F8BD2078022802D221700420F8BD30785C
:100740002870707802E0307A2870707A6870DBE781
:1007500020780028F0D00A48807AD4E72078002852
:10076000EAD00748C07ACEE720780028E4D0307B72
:10077000C9E7002070470120704701207047000042
:100780001C68FC0790E1F1073048FD07F8B5022826
:1007900001D003284ED1974A136904210B431361FA
:1007A00005242407628A20239A436282228A022334
:1007B0001A432282904E0027102202287578608A00
:1007C00039D010436082608A084360827068C01C20
:1007D00083088A480760628A40210A436282628AEB
:1007E0008A43628247618649816201210904C162AC
:1007F000218880200143218000970099491C0091A5
:100800006429FADB618A1022114361827B495B1EF5
:100810004B6121888143218003205BF753F8002836
:100820000CD00120F070208A0F2109028843290290
:1008300008432082F8BD90436082EDE7F77030787E
:100840000543F0E708B500F080F800F0A9FA0525A7
:1008500000262D07042709E00421684600964CF77E
:10086000C9FB002814D000F011FA11E02889000615
:100870000ED501208007006B000409D46148007880
:10088000C00705D15BF7A9FD5F4800780428E3D0D5
:1008900072B601F027FB042806D002280BD00328EB
:1008A00009D001284BD04BE058480078012801D0EE
:1008B000032000E00220694608700446288A384375
:1008C00028822046FFF762FF022C01D0032C18D1AA
:1008D0004F484188FF2201329143418041880122E3
:1008E0001143418000960098401C00901428FADBC8
:1008F000688980088000401C688168894006FCD5B2
:100900006E80A88A800602D542490820088030BF40
:10091000A88A800602D53F49082048803648C0781A
:10092000002807D03C48006801898AB2416803204A
:100930005AF7A2FF2F480169B943016100E030BFB7
:1009400062B6C8203549088090E7F0B53448354E86
:100950000827354A354BB04201D3394608E090426A
:1009600001D30C2104E0984201D30E2100E00F21B5
:100970002F4C304D204864192F4D8170641901258A
:10098000ED034460AC4201D8012406E00325AD0329
:10099000AC4201D8032400E00F240C434470274CE0
:1009A00031468C4223D2264D26467519944205D3F2
:1009B0008D4201D204271AE00C2718E09C4209D38B
:1009C000954201D2022712E08D4201D206270EE0A5
:1009D0000E270CE09D4201D2012708E0954201D28A
:1009E000032704E08D4201D2072700E00F2707709C
:1009F000F0BD000000ED00E00448FD070000F40732
:100A0000204F101A5877FD07D449FD07B477FD072A
:100A100020000050003300505876FD070031005090
:100A20000448FD070000FD0700C0FC070080FC072C
:100A30001005FC078C720000000004F8E87DFC073C
:100A40000C040000704770B50D46002441F793FF79
:100A50002855641CE4B2202CF8D3002070BD10B5DA
:100A600000F0D5FA10BD1FB5020E69460A70020CDF
:100A70004A70020A8A70C870684600F0BBFA1FBD4F
:100A80007047704770470749884200D000BE052173
:100A90000907488A012280088000D2031043488257
:100AA000704700001111111124480178002902D06B
:100AB0008021417070472249002008702149C87088
:100AC00070471E490A78002A03D000280CD0022063
:100AD0000BE0002801D0022000E001201849087036
:100AE00018490120C8707047012080304870704755
:100AF000002805D0012804D0022804D10120E0E715
:100B0000D2E70020FBE770470C48C0787047002010
:100B1000EFF31081012282F3108805221207128957
:100B2000120605D40848028901231A430281184697
:100B3000002900D0012181F3108870470C48FD077F
:100B4000B477FD075877FD070033005070B50520D6
:100B500000070189302291430181018980221143DC
:100B60000181018989088900491C018101890823C3
:100B700019430181D4490C8814430C80448A9C4356
:100B800044820589402425430581058A0426B5430E
:100B90000582858AAD07FCD5CC4E002575610E888F
:100BA00001252E430E804D89AE05C94D0E8801D515
:100BB0002E4300E0AE430E800D887826B5432835DD
:100BC0000D800D88062635430D80458A1D434582DC
:100BD0000B8893430B800289A243028148898005D8
:100BE00003D5B9490520603188800120800701685C
:100BF000821591430160B74801683F225202914338
:100C0000421489180160016802031143016070BD3C
:100C100010B5B14900200968572901D9573908B2E0
:100C2000C10F081840103D21484300B2C10701D050
:100C30001F3000B2A949884200D8084680B25BF74D
:100C400059FC10BD10B5A0494888C006040F48885B
:100C500001221043488048881E2290434880A048C3
:100C60004B0143800523038003885B07FCD4808805
:100C70004B88934314334B804B885B085B004B805D
:100C80004B889343620013434B8010BD70B5954968
:100C90000120C863C86B0028FCD101208007C0690F
:100CA0008A4C00212269904200D22161A27801255C
:100CB000002A04D0A1702061FFF7C4FF11E0216970
:100CC0001922411AD201914211D32061FFF7BAFFD4
:100CD000E188884201D9411A00E0091A89B218292D
:100CE00005D3E08004F0B0F9002800D1A57070BDF4
:100CF00010B548F7C5F810BD10B548F7D0F810BDCD
:100D0000724B0020197800290DD076490122CA6360
:100D1000CA6B002AFCD101218907C969724A12688D
:100D2000914201D2012070470021197070470020C4
:100D3000704710B56D4900200860FFF769FF01207A
:100D40008007016B49004908016310BD08B55F4980
:100D500088805D494A8801231A434A800022009214
:100D60000099491C00911429FADB052109074B89D8
:100D70009B089B005B1C4B814B895B06FCD5488024
:100D8000192080010092521C00928242FBDB4889AC
:100D900080088000488148890006FCD508BD70475E
:100DA000F8B55348C82101800024448051480827E1
:100DB000478000F0C9F9444820304088FFF7EFFF32
:100DC000424801210170404860304188C908C9008B
:100DD00041803D4E718989050AD54188C2130905B4
:100DE000090D891841804188782291434031418022
:100DF00005252D076888002803D138488838FFF773
:100E0000A5FF70884008400070803B4804606A8AF3
:100E100040210A436A826A8A8A436A824461374966
:100E2000816201210904C162288880210843288049
:100E300000940098401C00906428FADB002000F029
:100E4000DDFC2248203000F061F92D490A8A1F4854
:100E50004281498A818100F0ADFC00F05BF802F02C
:100E60009CFF012041F78DFDFFF770FE25480068CB
:100E700041F720FA2448C4700471012080070168FA
:100E800082151143016000F013FEFFF70DFE02F022
:100E900079FB02F0F0FFFFF74CFF1C4913200860BC
:100EA000FF201B49913008600B494F200860EC82FD
:100EB0007088E0218843A03070800D49C8200880E8
:100EC0000C484780F8BD0000200000501048FD0786
:100ED0000010000000020040D849FD07E2040000B5
:100EE00000160050C00000409077FC07AC76FD076C
:100EF00000310050003300500000F407204F101A5A
:100F000000FEF8074C76FD075877FD07DC49FD0722
:100F1000E049FD0770B51F4E1F483546002410C537
:100F2000401E0028FBDA03F02FFF1C48302204800B
:100F30001B491C485DF7BAF81B481D4904701B4843
:100F400008601D491B4808601D491C4808601D4970
:100F50000A2008701C481D490470322008701C4982
:100F6000052008601B4A012111601B4908601B49CC
:100F7000062008601A49072008601A4908200860FE
:100F8000FF201949073008601849086018480660B2
:100F900070BD0000005CFD07FF0800004048FD0731
:100FA00058ECF107FC76FD07F976FD076C6AFC0743
:100FB0005076FD072C68FC075476FD07B069FC07E6
:100FC0005876FD07B476FD07B576FD07DD76FD079B
:100FD0005C76FD076076FD076476FD076876FD07A1
:100FE0006C76FD077076FD074876FD074476FD07B1
:100FF0004C76FD0710B50146102242485DF756F8C1
:101000004048002110388160C160017010BD10B5EA
:101010003C4C103C2078002803D100F00BF8102045
:101020002070C0B2401EC0B220703649800010311E
:10103000085810BD70B5344B90B00FCB6C460FC440
:10104000304804AD1038014610311EC91EC51EC5FA
:1010500000210C910D918168C2680023491C5A41FE
:10106000C26081600F920E914022694620305DF788
:101070001DF8254E002510360024A000801900F030
:1010800014F8641C082CF8DB6D1C0A2DF4DB1D4AD7
:1010900000206B461032810054585D58401C641982
:1010A00054501028F7DB10B070BD70B515490378A7
:1010B000427810319C0092000B598E588578C07888
:1010C0009E190E518300C85870401026F041C85038
:1010D000AD004E5936184E51885870401426F041D4
:1010E00088500E5936180E51C85818247040E041E7
:1010F000C8504B591B184B51885858401923D84198
:10110000885070BD5848FD07C86AFC0710B5062214
:1011100001495CF7CBFF10BDA8FFF80705200007C9
:10112000018830221143018001880322114301808C
:101130007047052000070188302291430180018813
:101140008908890001807047F0B585B000268C4C75
:1011500002960298282148430096001900998900B8
:1011600046500099491C00910A29F7DB0298401C5F
:1011700002900428EDDB02F00FFE814D0021083DB6
:1011800029606960012702960020009002997D483D
:101190004900465A00993846884080B206421DD020
:1011A0000298282148430099001989004058411CA1
:1011B0001BD000280DD0C117009A5CF7BBFF029A24
:1011C00012015CF7B7FF2A686B6810431943286067
:1011D00069600098401C00900A28DBDB0298401CE4
:1011E00002900428D0DB05B0F0BD00BEE3E7F8B5FF
:1011F000164604460D460A461F46012000215CF7AC
:1012000099FF22015CF796FF5D4B083B1A685B680B
:1012100010401940084300D100BE032C00D1042423
:10122000594960014018690008183E43C680F8BD5E
:1012300070B504460D460A46012000215CF77AFF8E
:1012400022015CF777FF4E4A083A1368526818404B
:101250001140084300D100BE032C00D104244A49A8
:10126000600140180121A940818070BD70B504461D
:101270000D460A46012000215CF75CFF22015CF765
:1012800059FF3F4A083A1368526818401140084312
:1012900000D100BE032C00D104243B49600140185A
:1012A0000121A940418070BDFFB581B00C460546C3
:1012B0000A461F46012000210A9E5CF73BFF2A01D7
:1012C0005CF738FF2E4B083B1A685B6810401940EA
:1012D000084300D100BE002E2146284602D0FFF769
:1012E000C5FF01E0FFF7A4FF3B4621462846039ACD
:1012F000FFF77DFF77E770B5012421460A3881406A
:101300000D4688B200F02CF884402048C189A943DA
:101310000C43C48170BD10B504460A3804280BD8AC
:101320002046FFF7E8FF1649A000A031401880389A
:10133000806D002801D0804710BD002CFCDBE10649
:10134000C90E012088401249086010BD0A20E2E75A
:101350000B20E0E70C20DEE70D20DCE70E20DAE7CB
:1013600000280BD0411E4840C003010C002002E0C1
:101370004908401C80B20029FAD1704710207047FC
:10138000B048FD07F86AFC07003000500014005018
:1013900080E200E010B5FFF7CCFE05200007818851
:1013A000CA0B164918D0164B1A88520714D51A883A
:1013B000D20711D0188802221043188018884008DC
:1013C000400018800C68002C05D0985E0421595EFE
:1013D0000A229A5EA04710BD8088C006FBD5094846
:1013E00002881206F7D501228280028880239A4360
:1013F000028048680028EED0804710BD6449FD0790
:10140000000200500001005054490A880F239B013C
:101410009A43800102430A80704750490A880F238B
:101420009B019A43800102430A80704710B504462D
:101430004A494B48088000204880062000F046F8C2
:10144000204600F050F810BD444846490288022367
:101450001A430280491E02D302889207FAD400215F
:10146000018140897047F8B505463F480068009003
:101470006846FFF7DBFF142000F060F8002D01D074
:10148000092000E00720FFF7C8FFFFF7DDFF044653
:10149000012000F053F8002668468670FFF7C6FF6B
:1014A000002D01D0092000E00720FFF7B6FFFFF76D
:1014B000CBFF2A4900190E80F8BD28490120088178
:1014C0002A480068002800D000477047002809DB40
:1014D000C106C90E0120884025490860BFF34F8F1F
:1014E000BFF36F8F704730B505001FD01B4C2978B4
:1014F00020880122D2029043C90208432080287824
:101500000128687813D0FFF77FFFA97801208002B7
:10151000002921880ED00143218009206080E978CC
:1015200002200029618807D00143618030BDFFF7A8
:1015300074FFEAE78143EFE78143F6E70AE000BF83
:1015400000BF00BF00BF00BF00BF00BF00BF00BFA3
:1015500000BF00BF401EF2D27047000000150050CF
:1015600001400000A0860100006BFC076C49FD07EC
:1015700080E100E010B58A4A13885B085B001380A5
:1015800013884024A343138013880824A343C00076
:10159000034313801089800A80020843108110BD24
:1015A00030B57F4B1C880125640864002C431C80E7
:1015B0001C884025AC432C431C80012900D101200C
:1015C0001C882025AC43400104431C80188810244B
:1015D000A0430901084318809888800A80021043BC
:1015E000988030BD30B5EFF31081012282F310886E
:1015F00005231B079A882024A24322439A800029AE
:1016000000D0012181F31088654C6034A18949081C
:101610004900A181A189C907C90FFBD160490022F6
:1016200020310A825E4A0388938243881383838829
:101630009383C3880B8013880625AB43457A6D00DE
:101640002B431380827B002A00D100BEC37B002B7A
:1016500000D100BE8B8B5B095B01521E13438B8351
:101660000A8B5309C27B5B01521E13430B83817AA1
:10167000012917D08189C07AFFF77CFFA189012059
:1016800081430143A181A089C007C00FFBD0454819
:1016900001688022090A09021143016042491020B1
:1016A000086030BD8289C17A007AFFF779FFE5E7EB
:1016B000F0B59E463A4B0025394C84468033284687
:1016C000374F60340FE0258AAD07ED0FFBD065463C
:1016D0002D5C3D82401C1D8880B2002D03D0304916
:1016E0004031898A0FE00E46491E89B2002EEAD1A8
:1016F0007146C90707D0218A4907C90FFBD0218A43
:101700008906C90FFBD1002A00D01580F0BDF0B5C5
:1017100000278446FF2638463B460136204C22E00F
:101720005B1C9BB2268201E01D4D60358B4209D2C5
:101730002F8ABF07FF0FF3D104E0278A65462F5495
:10174000401C80B2884205D2154F60373F8BBF06E0
:10175000BF0EF2D1124D80352F88002F03D01049D3
:101760004031898A01E08842DED3002A00D0178008
:10177000F0BD0B4810B5203080890C49C96A00299A
:1017800001D0884710BD042000F001F810BD0028EA
:1017900005DBC106C90E0120884005490860704775
:1017A0000013005004E400E000E100E0A077FC0733
:1017B00080E200E018B51B4900220A6005200007FE
:1017C000448A40231C434482448A9C4344824A61A5
:1017D000154B8B6201231B04CB62048880231C43BE
:1017E00004800092521C0092642AFBDB0A68D20833
:1017F000D2000A6001889943018018BD05210907BC
:101800000988090600D400BE06490A88520700D09C
:1018100000BE002802D0FF20023000E00120086056
:10182000704700000000F407204F101A544930B4EC
:10183000884201D0012100E00021524A4901891863
:1018400008E0838ADB07DB0F12D00388541C8D6805
:10185000CC81AB54CA898B899A42F2D382885208D0
:10186000520082808A69002A02D0C88930BC1047A1
:1018700030BC704710B5444800F001F810BDF8B511
:101880003F4D404E044620890007000F062826D011
:1018900009DC012840D002281DD00428F3D12046BD
:1018A000FFF7C4FFEFE7072828D00C28EBD1AC42A4
:1018B00001D0012000E00020400187192046FFF7F9
:1018C000B5FFA18849084900A180B9690029DAD08B
:1018D000F8898847D7E7204600F01FF8D3E720466D
:1018E000AC4201D0012100E00021490189190A69B7
:1018F000002AC8D0818A9E2319400BE02046AC42C2
:1019000001D0012100E00021490189190A69002A5A
:10191000B9D001219047B6E7F8BD194930B48842E3
:1019200001D0012100E00021164A490189180EE08A
:1019300003891B069B0F032B1BD0838A9B06DB0F9F
:10194000002B95D0531C0C68CB80A25C0280CA8807
:101950008B889A42ECD3828802239A4382808288C1
:1019600080239A4382804A69002A81D0888830BCCB
:1019700010477C231B5A9B07DB0FE1E778E7000049
:10198000001000507049FD0700110050F1B592B0F1
:10199000634E64490496088AB41C0C908922052081
:1019A000000702810122604B52031A8002888023C3
:1019B0001A4302800288920892000280088A02225A
:1019C0001043088200F079FB40F7FAFF40F7FEFF72
:1019D0000020694601E08888401C8880888891281A
:1019E000F9D3524801880991418810915049CA8819
:1019F0000F920A890E92C2880D92408B08904D4832
:101A0000408807904888069000F05AF80025B0B248
:101A10002B468446484861464180FF218180012150
:101A20000180C188C907FCD10A460846049E275C8C
:101A3000365C7E40F607F60F8E401643491CC9B24D
:101A4000F2B2082905D112994A556D1C0021ADB298
:101A50000A46344FC82620373E801030FF2680B219
:101A6000B600B042E2D95B1C9BB2022BD2D32D4808
:101A70000C9901823149002008802C480999018085
:101A8000109941802A490F9ACA800E9A0A810D9AAC
:101A9000C280089A4283274A079850800698488057
:101AA00005200007028880218A43028013B0F0BD20
:101AB00010B52348FFF76AFF2148FFF79BFA10BDD6
:101AC00008B51A49002008804880194A1D4BD38068
:101AD000FF23D2331381C880C3215180174A0821C4
:101AE00011806946088003E06A461188491C11800C
:101AF000694609889129F7D36946088003E06A4658
:101B00001188491C1180694609889129F7D36946D3
:101B100001E00888401C088008889128F9D308BD96
:101B20001001FC07E030005000020040002400508B
:101B30006028005000260050003500502020005042
:101B4000D077FC07808000008189490849008181A5
:101B50008189082291438181704710B50C46034664
:101B60000120284900050860BFF34F8FBFF36F8F36
:101B7000002A02D01846FFF7E7FF58083821224A0A
:101B800008401358002B03D080184068214698471E
:101B9000142000F02CF810BD70B51C4E7488002580
:101BA00020E01A49280180394018E10717D08189BF
:101BB000090609D40189491C8AB24189491C89B2A4
:101BC0008A4201D1012200E0002241064B0F01218F
:101BD0009940B1800189491C89B2FFF7BEFF6D1C95
:101BE000EDB26408002C01D0042DDAD370BD0028BA
:101BF00006DBC106C90E0120884002498039086011
:101C00007047000080E100E0B049FD0780360050D9
:101C100002480068002800D000477047D049FD07FF
:101C2000F8B50126B607B56B2846FFF765F8994C5D
:101C30002169471800202061974938465CF7BCF9B4
:101C400096494860944A5043381A00D0101A80B21E
:101C50000860306B08218843084330639048056072
:101C600090480068002810D0A8420ED28E4909780A
:101C700000290AD16168281A4018E168821D8A4249
:101C800001D2801D00E008466060F8BDF8B5FFF79E
:101C900050FA00268448052706700425834C36E058
:101CA0002188042089088900891C2180608020887F
:101CB00028432080FFF732FA00E000BF2088400769
:101CC000FBD4FFF736FAE088A18800044018784971
:101CD000401805280FD26F484188491C89B24180BD
:101CE000142919D3468042688168531E8B4200D95B
:101CF0001946416010E067494E804868CB68821CF5
:101D00009A4200D213464B60674801210170384661
:101D10007F1EFFB20028C3D1052000074189890733
:101D200008D0418989088900418162494A8852085E
:101D300052004A800189802211430181018AA9430E
:101D40000182818A8907FCD500F0C4F80120800750
:101D50000169490700D500BE01694907FCD5F8BDF6
:101D6000F8B5052636077089800720D0B08A40076D
:101D700001D502F012F84F4D28888027384328807B
:101D80004A4CFF20608004202080FFF7C7F97D21A6
:101D9000C900E088A288000480188842F9D905208B
:101DA00020804548008870802888B84328804348B0
:101DB00001894907FCD4FFF769FFF8BDF8B5354E36
:101DC0000127BD072C69002C62D0200603D5802096
:101DD000A8614AF7B8FFA00703D50220A86146F71B
:101DE00078FF200706D50820A861002046F731FFBC
:101DF00004203070E00505D5FF200130A8610120E6
:101E000046F727FFA00504D501204002A8614BF743
:101E100003F8600603D54020A86146F715FFE006E9
:101E200003D51020A86145F74AFB600721D504209F
:101E3000A861224801894908490001815AF730FB0D
:101E400040F73AFC002030701A484089800510D5D0
:101E5000707800280DD11A4877700088C00708D123
:101E60000120FFF700FB8B218900884201D9022065
:101E70007070E00706D00120A8615AF72DFB4AF7E1
:101E800062FF3770A0069DD52020A86100BE99E7AB
:101E9000F8BD0000D449FD07710200004000004079
:101EA000F049FD07E849FD07E077FC070016005000
:101EB00061F8FFFF200000501448FD070033005078
:101EC0000015005010B540F72EFA65488068654946
:101ED000486010BD10B540F752FA6248604940684A
:101EE000886010BDF8B5002600F0B5F80027009016
:101EF000FEF70AFE5C4C002802D12079022801D1AD
:101F00000020009059480089C00711D1FEF7F8FE63
:101F100000280DD159F71BFC002809D0E0780126D4
:101F2000002805D005200007808AC00701D00426BC
:101F30008FE0208800287DD1FEF7E6FD002806D13D
:101F40004B48806A002802D000F085F80090FEF728
:101F50005FFEA17868465AF705F9002879D0012577
:101F6000AD072869400674D43F48817868464BF72E
:101F700041F800286DD03F4900200C683E4909789F
:101F8000022900D132343D490A78012A00D1213496
:101F90000870E96B1220890A89020143E963E86B42
:101FA00037490840A1020843E863E86B3721C002C3
:101FB000C00A89050843E86332490098042688422C
:101FC00000D300BEC00264215BF7F6FF002800D0FA
:101FD000401E244AC01E611C1060884200D114605B
:101FE00021480079002801D0012100E0002110687B
:101FF00046F7D5FF2448C06A8047FEF798FE0028C0
:1020000002D0FFF78BF80127154C286B0004C00F96
:10201000FBD02068C005FCD520688025A84320603F
:10202000002F01D0FFF785F810484189462906D2D4
:10203000462200E00DE0154B511A19604281FFF76E
:1020400041FF20680006FCD5052000070189A9434F
:1020500001813046F8BD0E480068806A7047000074
:1020600000020040E849FD075877FD0700330050A3
:10207000787EFD07D849FD07B477FD07D549FD07F0
:10208000FF03E0FF40420F00B47FFD07E449FD0776
:102090005876FD0700207047704770477047002052
:1020A000704701218907086B0722104308637047B6
:1020B000704740087038C0B2704740493E480860D9
:1020C00040493F4848814048418806229143891C45
:1020D00041803E4A6321D1803D493A4A0988603AAD
:1020E00011823C49098801803B480078002802D0D1
:1020F0003A4930200883704700B58BB0384A4262B5
:10210000384A8262384A4261384AC262384A0260BA
:10211000384A0262384A4260384AC2612748002180
:102120004038426B1F231B049A434313D218426367
:1021300033480268C3129A430260026803139A4349
:10214000026068464154491CC9B22829FAD30146A5
:102150002C482822006840305BF7A8FFFFF7ADFF4E
:10216000FEF770FD2849088002F06EFF0BB000BD3D
:1021700012484038416B1F221204914342138918C0
:10218000416300060168C908C90001600520000715
:10219000018989088900491C0181018908221143AC
:1021A00001811A484189890504D501887822914323
:1021B0000831018081E700004C0554078000004091
:1021C000EBE600006028005000260050002C005074
:1021D0001C48FD071A48FD07F449FD07002400507C
:1021E0009520FC079920FC079F20FC07A320FC07F3
:1021F0009B20FC07B120FC079D20FC07B320FC07B7
:10220000000200404C76FD071648FD0720000050F4
:10221000FFB58FB000241F461B9E1A9D7E4869465D
:10222000099413460884002A05D0042219460AA8F6
:102230005BF73CFF02E00020C0430A900F980A9928
:10224000401C0B90C0B207E00A460241D20701D001
:10225000641CE4B2401CC0B2B842F5D31820444319
:102260002018032159F796FB044610980188218015
:10227000199961800F98142148434119087902285F
:102280000DD0042830460CD040221043207109693B
:102290001022A01D5BF70AFF0B98C6B272E02671F0
:1022A000F5E72022F1E70A983041C00768D03046B0
:1022B000142148430D9040190C900079022804D055
:1022C000042813D010283DD056E0182102A85BF74F
:1022D00006FF0D9828580178684601720D98285815
:1022E0004178684641720C9880681CE0182102A869
:1022F0005BF7F5FE0D9828580178684601720D9835
:1023000028584178684641720D9828588178684667
:1023100081720D982858C1786846C1720C980121C5
:1023200080688904084306900C98818968468183F7
:10233000182109980A464843001902A918305BF78A
:10234000B5FE19E00D981822295809985043001934
:102350000490102218305BF7A9FE0C9904988A6843
:102360000121C9040A430146283110465BF7D9FE12
:102370000C988189049881850998401CC0B2099005
:10238000761CF6B2BE428ED30998607120464DF796
:102390007AFD0390002838D1109821880180002010
:1023A00009900B98C6B2BE422FD20A983041C0079E
:1023B00024D009981421401CC0B2714309904819D7
:1023C00002908089000419D40298C089002815D091
:1023D00002980079022806D16858022208A95BF702
:1023E00089FE00280AD002982288C18903690998C9
:1023F000101880B200224DF720FE0390761CF6B232
:10240000BE4202D203980028CFD0204659F73DFBA8
:10241000039813B0F0BD00000328000002468B882B
:102420000020022B01D00D207047C988002A05D05A
:102430000029F9D00129F7D0812070470029FCD06C
:102440000229F9D17047F0B589B004464DF76CFD0B
:1024500005460026384F14E005A920464DF783FDB8
:10246000002301AA07A905A800964DF76FFE68464C
:102470008088B84203D1641CA0B209B0F0BD641ECC
:10248000A4B2A888A04202D8E888A042E4D20020E2
:10249000F3E7F0B58BB004464DF746FD264F002616
:1024A0000546FF371BE008A920464DF75CFD0023D9
:1024B00001AA05A908A800964DF748FE684680883D
:1024C000B84203D16946097D022911D01A498842D0
:1024D00003D16846007D022807D0641CA4B2A888F6
:1024E000A04202D8E888A042DDD200200BB0F0BDA7
:1024F0002046FBE710B50446FD2000F026FE827959
:102500000021A24202D98088001981B2084610BD7C
:1025100070B504460D46FD2000F017FE818880222C
:10252000A14206D880790818A04202D9601A287002
:102530000022104670BD00000328000030B503469D
:102540000120002103241A46CA40D20704D04D00BE
:1025500022466D1CAA401043491CC9B20929F2D376
:1025600030BDFFB585B005460E981E460088FFF7C2
:10257000E5FF049030461E210840A98A4B4A0023FB
:1025800080300191009302920390132304AA4849DA
:1025900006984EF730F8070027D10121202059F77F
:1025A000F9F9044620215BF79AFD2C610698008812
:1025B00020830E9800886083F00701D00120C003BB
:1025C000079908432080A88A60801420E8820120AF
:1025D000E88120461E30A86036486860201D40F71C
:1025E00099FAA88A002159F766FC384609B0F0BD6F
:1025F00070B5046905466068002805D0201D40F7C5
:1026000091FA59F742FAF6E700202861204659F777
:102610003CFA70BD704770472448E430704730B5CD
:102620000446228B0920521C93B2648B002225465B
:10263000D540ED0706D05D1C8D4201D1104630BD5E
:102640009B1C9BB2521CD2B2092AF0D330BD10B5EC
:102650000346008B5B8B401C80B200221C46D4409A
:10266000E40706D0914202D1401C80B205E0801CF4
:1026700080B2521C52B2092AF0DB092A00D1002094
:1026800010BD02460020802901D98D207047062AFE
:1026900006D0072A07D0082AF8D10729F5D17047B4
:1026A0000829F2D170470629EFD37047046BFC0765
:1026B0000A180000106CFC07FFB581B00C4614200E
:1026C00000F043FD21780746092935D2FFF7BFFF07
:1026D00000282FD061782078FFF7D3FF06002CD197
:1026E0007D680DE028792178884208D100222946AA
:1026F000381D40F787FA284659F7C7F902E02D68D8
:10270000002DEFD160780121083059F743F9617845
:10271000054608315BF7E3FC207828716078687122
:102720006278A11CA81D5BF7C1FC2946381D40F743
:1027300015FA02E0822600E0812602235248039A1D
:10274000049959F735FA21780170467059F749FA1A
:10275000002005B0F0BDFFB581B0002000900E460E
:10276000039859F7DAFB002802D001284CD04DE03D
:10277000142000F0EAFC07463188FFF750FF0546B9
:102780004248092D36D27C6803E02179A94203D062
:102790002468002CF9D117E0002C15D06379039A36
:1027A0009B1D049959F704FA0546308828800020BB
:1027B0002871607968806279A11D681D5BF776FCDD
:1027C000284659F70EFA21E03D770498010A7977F7
:1027D000384600F0D7FC01462B480123401C039AE1
:1027E00059F7E6F9057059F7FCF90121039859F7F3
:1027F00062FB0BE00623039A049959F7D9F9318853
:10280000018080210171DCE7022000900098A0E7A0
:10281000F8B517460D46104659F77FFB012831D110
:10282000142000F092FC0446017FFFF710FF0646DB
:10283000217F2A781548914214D1617F6B78090273
:102840003A4608319B1D59F7B3F90446068000202B
:102850002071687860806A78A91C601D5BF726FC8F
:10286000204609E0617F062309023A46083159F7FC
:102870009FF906808021017159F7B3F9002138468C
:1028800059F719FB0020F8BD01140000140C0000DA
:10289000FFB5064685B000270121282059F77AF8B0
:1028A000044628215BF71BFC0025346126E00898CC
:1028B0001E210840B28A80300390534B00216F469E
:1028C0000EC752480022411904914B78405D069989
:1028D000FFF79EFC0746002D02D106980088A080D5
:1028E0004A480499405D4978091A069800880818F2
:1028F0000699002F088027D16D1CEDB2444800785E
:102900008542D4D3434D2878A0710898C00701D0E0
:102910000120C003079908432080B08A6080FD2011
:10292000F0820120F08120462430B0603A48706087
:102930002046103040F7EEF82988334800F0CDF8F3
:10294000B08A002159F7B7FA384609B0F0BD70B522
:1029500004690546264610362069002805D0304611
:1029600040F7E0F859F791F8F6E700202861204693
:1029700059F78BF870BDF3B581B00298082800D3E1
:1029800000BE0124204D254F224E10E02046142188
:10299000484341190979022908D128580088B842CA
:1029A00004D1E1B20022029800F0B4F8641C30882F
:1029B0008442EBDBFEBDF7B582B000690124124D05
:1029C000164F144E009010E0204614214843411940
:1029D0000979022908D128580088B84204D1E1B207
:1029E0000022039800F096F8641C30888442EBDBE8
:1029F0000399009800F0BEFB002159F75CFA05B07E
:102A0000F0BD074870470000BC6DFC07B66DFC07C1
:102A1000B86DFC07BA6DFC07706CFC07022900005A
:102A2000186CFC07F7B5074682B00D46FD2000F094
:102A30008CFB0646046910E02079B8420CD160791D
:102A4000A8420DD0304600222146103040F7DAF877
:102A5000204659F71AF805E02468002CECD101E073
:102A6000002C0ED1284608300121009058F792FF23
:102A7000044600995BF733FB30462146103040F79F
:102A80006DF8277165712A46A01D04995BF70EFB4E
:102A9000002005B0F0BD70B5064614460D46FD2079
:102AA00000F053FB0369002C00D100BE002D0DD1B6
:102AB00000BE0BE01879B04207D158792880981DE4
:102AC0002060002B04D0002070BD1B68002BF1D1CA
:102AD0000020288020600A2070BDFEB50546002039
:102AE0000E4600900124F74F019010E0204614217B
:102AF000484341190979022908D128580088B84269
:102B000004D1E0B26A460821FFF78CFF641CB4428E
:102B1000ECDBFEBD7FB515460E460446082800D303
:102B200000BE03AA02A93046FFF7B5FF6846028936
:102B3000002A00D100BE0399002900D100BE5BF736
:102B4000B5FA68460555024601893046FFF76AFF27
:102B50007FBD7CB5FD2000F0F8FA84680546002CA6
:102B600000D100BE687B6A4601A90C34FFF793FFD1
:102B700068468088082800D000BE0099287B082875
:102B80002DD2421C2A736278002A0A5C02D0D20736
:102B9000F4D001E09207F1D5A18808318BB2A96881
:102BA000CA880102C1200001083159F701F8064620
:102BB0006078002801D0122000E013203070A8882F
:102BC00061884018B080A088F0803046A288A11D9E
:102BD00008305BF76BFA304659F703F87CBD607834
:102BE00000260028A868C288018907D00423B648B7
:102BF00058F7DEFF61880180867007E0B24806233F
:102C0000801C58F7D5FF61884180067158F7E9FFAD
:102C1000A86858F73AFF00212846AE6000F0AAFAEB
:102C2000002159F748F97CBD10B50878122801D069
:102C3000132801D1FFF78DFF002010BD10B50C4601
:102C4000FD2000F082FA80886188A31D401880B2C0
:102C5000A18800224DF7F1F9002010BDF8B5174604
:102C60000D46FD2000F071FA0446808869884018FE
:102C700086B2384659F751F9012805D03046FFF79A
:102C800008FC002802D002E00220F8BD00BE694620
:102C9000FFF73EFC002800D000BE0121384659F75E
:102CA0000AF90C3D0020A560207368460078607327
:102CB000FFF74FFF0120F8BDF8B517460D46FD2080
:102CC00000F043FA044680886988401886B2384686
:102CD00059F723F9012805D03046FFF7DAFB002821
:102CE00002D002E00220F8BD00BE6946FFF710FCEA
:102CF000002800D000BE0121384659F7DCF80C3D11
:102D00000020A5602073684600786073FFF721FFFC
:102D10000120F8BD70B516460C46104659F7FDF86F
:102D2000002813D1FD2000F010FA05460623324694
:102D30000821664858F73CFFA988628889180180F5
:102D4000A1884180A179017158F74BFF002070BD27
:102D5000FFB589B00F460B9859F7DFF8002802D06D
:102D600002200DB0F0BDFD2000F0EFF9059000202D
:102D7000694608720C9802A9050A3888FFF7C8FB53
:102D80000024694606468C83002825D1FD2000F0EA
:102D9000C7FF43686846007A1422014651430A1D62
:102DA0009A5C022A27D15958464A0988914222D171
:102DB000082D00D300BE04AA01A9FFF76CFE6846E7
:102DC0008088002800D100BE0498002800D100BEF1
:102DD000405D6946888302243C48A31D001F0B9A6E
:102DE0000C9958F7E5FE0546388828802E716C80CE
:102DF000002E16D01AE02946059800F0C3F90146C6
:102E000031480423C01E0B9A58F7D2FE057069465C
:102E1000097A418058F7E5FE01210B9859F74BF8E4
:102E200007E0224607A9681D5BF740F9284658F7D6
:102E3000D8FE002095E7FFB585B00C46FD2000F0D8
:102E400084F9049000266846067008986946050AC9
:102E50002088FFF75DFB07466088002800D000BE91
:102E6000002F62D1FD2000F05BFF014647686846F5
:102E70000078142302465A43131DFB5C022B27D112
:102E8000BA58104B12889A4222D101960296208895
:102E9000FFF7D9FA002800D100BE01AB002203A938
:102EA0004DF7E7FA039821468005C00FFFF7B6FA01
:102EB00007063F0E39D168460178E2882846FFF7B9
:102EC00029FE18E00229000007FD0000180C000090
:102ED000002908D08E69002E05D0A2886188A31D24
:102EE000B047070021D16288A1882088A31D4DF733
:102EF000A4F8070019D12946049800F043F90146C7
:102F0000A088079A801D83B23D4858F751FE0546B8
:102F1000A288A11D801D5BF7C9F86846007868800B
:102F2000A088A880284658F75CFE04233548079AF5
:102F3000089958F73DFE21880180877058F751FEA7
:102F4000002009B0F0BDF8B51D4617460E461046E4
:102F500058F7E3FF002815D1FD2000F0F6F80446ED
:102F6000274804233A461946C01C58F721FE290A6F
:102F70000170082900D300BE3188A288891A4180D7
:102F800058F72FFE0020F8BD70B516460C461046C7
:102F900058F7C3FF012819D11A48A179801E0029CA
:102FA00016D02178062309023246083158F700FE70
:102FB0000546A078FFF79EFA2880802028712846D1
:102FC00058F70FFE0021304658F775FF002070BDFE
:102FD000A1883246891D8BB221780902083158F741
:102FE000E7FD0546A078FFF785FA288000202871C4
:102FF000A0886880A288E11D681D5BF757F8DEE7AE
:103000000AFD0000160C0000F8B50025804EFF27D1
:10301000002818D00024182060438719F88A00F08F
:10302000E9F8002802D0416838468847FF20F88236
:103030007D60BD60FD81387D58F782FF641CE4B27D
:10304000202CE8D3F8BD00242046182148438119DC
:10305000224610320D618A82CF824D608D60CD8113
:103060008D813550087D58F7F4FE641CE4B2202CA5
:10307000EAD3F8BDF3B5054681B00026408800F0DC
:10308000B9F801000AD0624F6A8800201823434330
:10309000DB19DB8A934203D1422628E0402626E052
:1030A000401CC0B22028F1D3002418206043C0196E
:1030B000C08AFF2806D0641CE4B2202CF5D3202C53
:1030C00014D014E028460830009018206043C0193E
:1030D0000E686B78AA880746A91DB0470600EED196
:1030E0006888F8820298B98A0180E8E74B26304662
:1030F000FEBDF8B5464E07460024182060438519EA
:10310000E88A00F077F8002803D08268394628461C
:103110009047641CE4B2202CEFD3F8BDF3B53C4ECD
:1031200081B00F460024182060438519E88A00F01A
:1031300061F8002804D0C3683A46284601999847A8
:10314000641CE4B2202CEED3FEBD034610B5002073
:103150002F4A014618244C43A418E48A9C4204D107
:10316000182041438818006910BD491CC9B22029A4
:10317000F0D310BD42885004400CD20B01D009029C
:103180000843704702885004400CD20B01D009025A
:103190000843704730B5FF21020AC4B21C4B00201F
:1031A00018254543ED18AD8AA54204D1182148439E
:1031B000C018C18A03E0401CC0B22028F0D310021E
:1031C000084330BD30B5FF21020AC4B2104B0020C5
:1031D00018254543ED18ED8AA54204D1182148432E
:1031E000C018818A03E0401CC0B22028F0D310022E
:1031F000084330BD014610B50020C9B2142904D0DF
:10320000FD2901D1FFF7FDFB10BDFFF705FA10BD49
:10321000F849FD0710B500F0A9FB00F01DFA0020E9
:10322000FDF766FC10BD0C21254A10B541438918F5
:103230008978FF2902D000F0B2F810BD00F038FE06
:1032400010BD10B500F0A2F8002801D000F030FE4B
:1032500010BD10B500F02CFE10BD10B519490A784C
:103260000270401C491C5AF721FF10BD1549498CBA
:103270000180704708210180102141800021818058
:103280007D21C180704770B50C46017800250D4B3B
:10329000002904D0012909D04820207070BD82780F
:1032A000011D1A70581C5AF701FF01E0408858842C
:1032B000257070BD0120087000204880888070470C
:1032C000104DFD07304DFD070021F44A05E0834213
:1032D00001D101207047491CC9B20C234B43D35C78
:1032E000FF2BF4D10020704770B5EC49EC4C0E4632
:1032F0000C36EC4D0DE052185268002A07D0C2B2CD
:103300000C235A4351184968401C60702DE0401C42
:10331000607060780C2242438B5CFF2BEBD10AE09B
:1033200089194968002903D0FFF7CEFF002809D08A
:103330002078401C207021780C204143705CFF28CD
:10334000EED117E020780C21414389194968401CCF
:1033500020700AE04919C968002909D0C1B21C22AD
:1033600051434919C968401CA0708847002070BDAE
:10337000401CA070A0781C2141436A5CFF2AE9D15F
:103380000020A07060702070012070BD10B5012178
:10339000042058F790FDFFF7A7FF10BDA4E7F8B58C
:1033A00005460024BD4E0AE080198168002904D03A
:1033B000641CE4B22846884701E0641CE4B220465D
:1033C0000C214843315CFF29EED1B44E00240C3669
:1033D00009E08F19B968002903D0FFF775FF0028AD
:1033E00009D0641CE4B20C216143705CFF28F0D169
:1033F0000024AC4E10E0641CB968E4B2284688474B
:10340000F1E780190169002904D0641CE4B2284660
:10341000884701E0641CE4B220461C214843315C2B
:10342000FF29EED1F8BDF8B59D4DE868002835D1EB
:103430005223042209219C4858F7BAFB0446E8604D
:103440000D202070002666709848A080E08007203C
:103450002072012060721620A672E0720246204699
:103460000C3093A107465AF721FEE8682B210E5431
:10347000C07A21462C3109301F2806D8E07A042171
:10348000C219204690A30B3006E02B20005D8EA3CE
:103490004218204604212B3000F0EDF8E868F8BD12
:1034A000FFB5074680481E460D4681B041230422E1
:1034B0000921401C58F77CFB0446102020706570E1
:1034C0002A463946A01C5AF7F1FD21200655204610
:1034D0003246223003995AF7E9FD204658F781FB1E
:1034E00005B0F0BD70B56E4E04468500361D7059AE
:1034F000002816D121020E23042275480A3158F7FC
:1035000057FB09210170002C00D000BE7051102122
:103510008180082141800021C1807D22028141817A
:103520008181705970BD70B55D4EB068002827D19B
:103530005D482C2304220921093858F739FB03215F
:1035400001700A21B0604170172101840025857641
:103550000446458010210A305AF7C1FD2021E1764A
:10356000A583E5835B496584488FFB22FB2800D94E
:103570001046E0845848898F814200D8084620854B
:10358000B06870BD3EB500254449009501950C22F8
:103590003431684602955AF789FD41480C221830AB
:1035A00069465AF783FD3E4C04223834227046A106
:1035B000601C5AF77BFD394965842431042058F793
:1035C00048FC0021042058F776FC3EBD70B50D463E
:1035D00001023F4814462C2304220C380A3158F7C4
:1035E000E7FA014620310D724C7258F7FAFA70BDB5
:1035F00019E710B5FFF717FF58F7F3FA284900202D
:10360000C8600221042058F756FC10BD10B50446CE
:10361000FFF768FF58F7E5FA214A0020A100121DC4
:10362000505010BD10B5FFF77EFF58F7DAFA1C496D
:103630000020886010BD1A4A002124324B00D35C60
:10364000834203D14800801840787047491CC9B2B2
:103650000A29F3D304207047114910B50020FF2335
:103660002431042442008B545218401CC0B25470C0
:103670000A28F7D310BD70B50646481C1070092003
:1036800015460C46507022461946A81C5AF70EFDE6
:103690003078A41C0019307070BD0000886CFC07E5
:1036A000F84CFD07586DFC070D0D00004C040000A0
:1036B00003030A181107595A08E4862A9E8FE91154
:1036C000BC7C984342180000446963650000000018
:1036D0000E0E0000A479FD074808000010B5104642
:1036E00058F71BFC002802D000BE002010BD0123AB
:1036F00004220921994858F75BFA0121017058F713
:1037000070FAF2E710B50C780D2C22D008DC012CF1
:103710000FD0022C21D0032C13D00C2C21D122E06D
:103720000E2C20D0112C1ED0122C1CD0132C18D1F2
:1037300019E04878002801D000BE14E0FFF772FFBE
:1037400011E04878002801D000BE0CE0FFF779FDB9
:1037500009E0487800F0E7FB05E04C78002C00D049
:1037600000BE00F0F2FB002010BDF8B51C4610466C
:103770000E4658F7D2FB022802D000BE0020F8BD4A
:10378000240A00D000BE0C202746474374483D1849
:10379000AC70FF2C15D00121E9700321042058F7EB
:1037A0008AFB6F483188C153707A28713146681D91
:1037B00006220A315AF77AFC012200212046FFF73F
:1037C00005FF3146204600F087FBD7E770B50D783E
:1037D0004C78092D04D0002C00D000BE00F0B5FBC1
:1037E000002070BD70B51D4610460C4658F795FB7D
:1037F0002A0A032802D000BE002070BD0C204243DC
:103800005748FF21101881700021C170204600F038
:103810008EFBF1E700207047F0B508780025514C89
:1038200089B01F461646002804D0012817D0022868
:1038300027D129E06846FFF710FD68460378324635
:10384000394620460A3358F7B3F9044605706846EE
:103850000278411C6280201D5AF728FC2BE0694643
:103860000D806846FFF702FD0A233246394620469E
:1038700058F79EF90121017069460988418058F77F
:10388000B0F9002009B0F0BD0A233946204658F7A8
:103890008FF904466846FFF7EDFC02202070684669
:1038A0000088608068464088A08068468088E08004
:1038B0006846C08820812046E1E738B50C4648209C
:1038C000694608701D0A2046FFF7DDFC25482902DD
:1038D00002230422801C0A3158F76AF969460978E4
:1038E00041702178017058F77CF9002038BD10B57F
:1038F000104658F712FB012809D1FFF74FFD0028A9
:1039000005D00221042058F7D6FAFFF7A2FC0020C8
:1039100010BD70B518460D460146E1200623000192
:1039200058F746F9044601462846FFF7C3FC2046EF
:1039300058F757F9002070BD0020704700207047ED
:1039400000207047FEB51C46089B0D26064D6F46AD
:1039500068C71346224600F0B4F8FEBD020D000011
:10396000104DFD070B0E0000C86CFC07704710B52A
:103970000A23042209210B4858F71AF904461B2090
:1039800020701420FFF757FE607014206080042020
:10399000A0800020E080FF2174312181204658F76B
:1039A00020F910BD1B0D0000F8B50E460978184629
:1039B000002425460B005AF7CDFB0906091209150C
:1039C000150C180F1B000B241AA512E007241CA5C8
:1039D0000FE008241CA50CE007241EA509E00A241A
:1039E0001EA506E00F2420A503E0062422A500E082
:1039F00000BE0146A31C224858F7DAF80746307883
:103A000038707C70002C04D022462946B81C5AF726
:103A10004DFB384658F7E5F80020F8BDFEB51C46CA
:103A2000089B0126174D6F4668C71346224600F0D3
:103A300048F8FEBD4469616C6F672053656D69008D
:103A40004441313435383500123456FFFE9ABCDE1D
:103A50000000000001D2008005000100312E302E50
:103A6000302E302D4C450000765F362E302E313210
:103A70002E313032302E3200FFEEDDCCBBAA0000FA
:103A800003140000406DFC07FFB583B01E4E0024F8
:103A900001AFA0003558002D00D100BE009703A84B
:103AA0000FC8A847002809D0641C042CF1D303AC2C
:103AB0000FCC00F04AFA002007B0F0BD684600794C
:103AC000FAE7F8B5089C9C46079D0346002C19D0E0
:103AD000641E17D40D4FE600AE5B9E4201D0BE427D
:103AE0000ED1E3005B195C68002C00D100BE002CF5
:103AF00008D013466246A047069908700020F8BD1A
:103B0000641EE8D50120F8BD486DFC07FFFF0000EA
:103B1000052000070089000608D501208007006BFA
:103B2000000403D403480078C00701D00020704788
:103B3000012070475877FD077047704770B50D46F4
:103B40000446FFF7E5FF002806D06F482A46042107
:103B5000201858F77FFA70BDFCF7D9FF6A48042295
:103B600008231146801E58F723F84560047058F763
:103B700038F870BDF8B5654C069D06190024002E76
:103B800026D0012E0CD0634F614B3A46283A022EC4
:103B90000AD05E49C91E41180A2929D30120F8BD5F
:103BA00000F088F828703DE00878461E092E0DD8F0
:103BB0008000001F1058984233D1B0003B5813507A
:103BC0004A6808781146FFF7B9FF2AE000BE28E0EE
:103BD0004A68002A0AD05048824200D300BE0878C2
:103BE00049494018042158F735FA1AE000BEF6E7B3
:103BF0004649891E4018C0B2411E092910D88600C6
:103C0000B218803AD16F00290BD0994209D0434BAA
:103C1000994206D0D467F219803AD467884700E009
:103C200000BE2C700020F8BD0A46010010B53A48CD
:103C30000ED0814200D300BE364B0020283B8400CA
:103C40001C59002C06D0401C0A28F8DB002010BDAF
:103C500000BEF1E784001A51401C0406240EF5D082
:103C60002046FFF76BFF204610BD70B50446401E8E
:103C700009281DD82748A10028380D18803DE86F75
:103C8000002813D0254EB04210D01F480421201820
:103C900058F72AFA1C48042208231146401EEE67F2
:103CA00057F786FF047057F79CFF70BD00BE70BDCC
:103CB00000BE70BD10B508780C46411E09291FD8FA
:103CC00082001448121F28388258144B9A4205D19A
:103CD0000022890042502830425012E089004058AA
:103CE0000B4988420DD1042208231146064857F794
:103CF0005FFF217801706168416057F772FF00E053
:103D000000BE002010BD000003040000FFFBFFFF09
:103D10003B3BFC07804DFD07FCFF3F00393BFC07A8
:103D20000021154A06E0834203D11C204143881834
:103D30007047491C1C234B43D35CFF2BF3D100205D
:103D4000704710B51823042209210C4857F730FF9B
:103D500004461B202070FD20FFF76DFC6070FD20E5
:103D600060800420A0800021E180E1602161A182C7
:103D7000204657F736FF10BD586DFC071B0D00009D
:103D80003EB51D46069B0024009313460194029401
:103D90002A46FFF796FE3EBD704710B5052424075E
:103DA000208A022188432082A08A0007FCD50C4883
:103DB0004188FF2201321143418000F0CDFF0949C3
:103DC0000820088000F01CFB00F0B5FB00F0A5FB0C
:103DD00000F090FB608A202188430843608210BD78
:103DE000200000500033005010B518460C46014624
:103DF0000823094857F7DCFE21780C225143074A73
:103E000089188978017061884180002181800321AF
:103E1000817157F7E6FE10BD0EFD0000104DFD0745
:103E200070B5784CE078000602D525462D3501E0C6
:103E3000744D0E3500F099F8E07872494006400E56
:103E400040190822891D5AF731F96E4A63792D32DB
:103E5000104621791F38FFF723FB6B496B48FFF7AA
:103E6000E3FE607070BD10B5664C2078FFF7CEFBA6
:103E70000020A07010BD70B5624C0025A570072110
:103E8000A01D0170FF214170CD218170AB21C17057
:103E90000421001D5AF723F9204616225CA10E309A
:103EA0005AF704F9162020716571FFF7B3F970BD58
:103EB00010B555495548FFF7B7FE5249487000F014
:103EC00054F8FFF795FB4F4901230822891D00F0A4
:103ED00058F8FFF78EFB10BD70B50C4605460C2058
:103EE0005149684340188078FF2815D0454E3570F9
:103EF0007078FFF7BAFE60880838092805D2A088D4
:103F0000002802D1E0887D2808D07D204749C000E4
:103F1000FFF78AFEB07001E0FFF7CAFF214628468E
:103F2000FFF781F970BD442800D1C1E7704710B593
:103F3000344CA078002803D0FFF797FE0020A07033
:103F400000F013F8FFF7B4FF10BD10B5384C04199A
:103F500004D0032C01D1FFF747FF10BD0846498864
:103F60000229FAD100F09CF810BD10B5254C0023B1
:103F7000A41D30A20421201D01F046FDC01C2070AC
:103F800010BDFEB517460446002B01D01C2000E0F2
:103F90001F20E27A2546831A20460C3001902030FB
:103FA000184E20350090BB4209DB019810183A46A4
:103FB0005AF77CF8E07AC019E07208380FE0E87A26
:103FC0001F22121ABA420CDB009A80183A465AF79E
:103FD0006DF8E87A8021C019E87208380843F0705B
:103FE00000E000BEE27A074832710E3001995AF7BC
:103FF0005DF8EA7A034872712D3000995AF756F845
:10400000FEBD0000A84DFD07213EFC07B80B0000D7
:1040100003030A181107595A08E4862A9E8FE911EA
:10402000BC7C984342180000104DFD07673EFC071A
:10403000F602FFFF2564000010B590B018222C494D
:1040400002A85AF733F802A908A800F0C4F800F053
:104050007DF92848006801F0C9FA0191009026A274
:1040600007210EA801F0D0FCFD203EF7E8FB014639
:1040700019230422214857F79BFD04460020207095
:1040800001206070022060801320A08007220EA90A
:10409000A01D5AF70BF8204657F7A3FD10B010BD2E
:1040A000F8B5054681881648012900D10170002124
:1040B00001700C46134F14E028198179027A6423A9
:1040C000303959435118C0790A225043C0190E188B
:1040D0000321204659F770FF0949491CE41C0E547E
:1040E000E4B2A888A042E7D8FFF7A6FFF8BD000019
:1040F0000C6EFC079477FC072566000006FD0000A7
:10410000F44DFD07F1FDFFFFFFB5002781B03C46F0
:1041100038E0684600268088039935464843009079
:1041200012E00B98B1004158601982000A9880583B
:1041300001F0F5F8394601F099F807460398761C26
:10414000281885B20098B6B2A842EADC384602992F
:1041500001F08CF86049884201D900200CE05F49E9
:10416000884202DD7F20C00506E05D4901F0D7F8F6
:104170003F21090601F07AF8A20004990027641C87
:104180008850A4B203988442C3D305B0F0BDF0B503
:1041900000252C46534B08E062009E5AD2185288E4
:1041A00056437219641C95B2A4B28C42F4D34C00ED
:1041B0002A46E11808E04B4E97000C36F659571B7B
:1041C000BF00521CC65192B21E5B4F887E437619C7
:1041D0009642F0DCF0BDF3B5FFB082B000240622B9
:1041E0006DA800F06DF840480890202268460899B4
:1041F00059F75CFF3C4E2146083E0CCE09A8083E0C
:10420000FFF7C5FF09A86DA900900191354861002D
:104210000D18E00080190779C679394647793606C6
:104220003F02394387796A883F0439433143064660
:10423000377877AB384677783F023843B778F678E7
:104240003F04384336063043FFF75EFF6A8877A99C
:104250006DA800F035F8641CA4B2042CC5D320224C
:104260006846089959F722FF1F4D2146083D0CCD9D
:1042700009A8083DFFF78BFF09A800906DA9E00091
:10428000019140190579C4792946457924062D0202
:104290002943857906222D042943214304462578A4
:1042A000819B284665782D022843A578E4782D0463
:1042B000284324062043FFF727FF7FB004B0F0BD5A
:1042C00030B5002304E09C000D595B1C05519BB2E6
:1042D0009342F8D330BD0000000020C00000204011
:1042E000CDCC4C3EDC6EFC07184EFD07F8B50F46F2
:1042F0001D4616460446002100F095F8002807D117
:10430000A019401EC0B2002100F08DF8002802D094
:1043100069482880F8BD68460470684C208AC00748
:10432000C00FFBD101232A4619466846FDF7C0F9A4
:1043300028880028EED1208AC007C00FFBD10123B6
:104340002A4631463846FDF7E2F9F8BDFEB502AB24
:10435000062269462820FFF7C9FF6846068840887C
:1043600000280CD001F034F905460C46304601F027
:104370002FF92A46234602F083F901F04BF901F0A8
:1043800035F94F4A4F4B01F0ACF801F043F94E4973
:104390004E4C4F4D884206DB01F028F922462B4651
:1043A00001F09FF808E04B49884207D901F01EF957
:1043B00022462B4600F0F0FF01F02CF901F016F92F
:1043C000454A464B01F09CF801F024F94449086045
:1043D000FEBD10B543480178012904D001210170C8
:1043E0004148FDF7FFF810BD10B53E48017800299F
:1043F00005D0002101703C481038FDF7F3F810BDDE
:1044000010B500F019F810BD08B56B4618702B48B0
:104410005970018AC907C90FFBD1012302216846DF
:10442000FDF746F908BD001F342803D3002901D049
:104430000120704700207047F8B52C4B0026186B00
:10444000F643002801D0304600E00120C117820B5E
:10445000890411438204186325480468456822438F
:10446000294302604160596B002900D10126F117F0
:10447000720BC9045E6311430468F204436822436B
:10448000194302604160FF250024013509232A46B3
:10449000032101200094FCF707FF0A232A4602218A
:1044A00001200094FCF700FF0E4804700E481038FD
:1044B000FDF798F8F8BD000001800000601300507F
:1044C00073874AC1FB2AC3BFDB0F4940EA2E44541D
:1044D000FB211940DB0F49C0E5BF631ADCA54C4046
:1044E0009477FC07384EFD078875FC07B048FD0738
:1044F000A848FD0708B5FFF777FFC0216A461020DE
:10450000FFF782FF6A4600211120FFF77DFF3A2165
:104510006A461E20FFF778FF08BD08B5FFF764FF65
:1045200038216A461F20FFF76FFFC0216A4620200E
:10453000FFF76AFF08BD38B5FFF74BFF7C216A46DD
:104540002020FFF761FF00216A462120FFF75CFF72
:1045500000246A4621462220FFF756FF0C216A46B6
:104560002320FFF751FF6A4621462420FFF74CFF26
:1045700038BD000070B50E460446002203214DF7F9
:10458000EAF905464EF7B6FB688028464DF7F4F980
:104590004EF7B0FB7188884200D30846014620469A
:1045A0004DF7D1FA002070BD0246FB4B92009A589D
:1045B0000120126900290ED0517F5E239B5C002BE5
:1045C0000BD0052906D1517E090702D5917C090738
:1045D00000D400207047917DEFE70229F9D004292B
:1045E000F7D00529F6D10020EDE7024630B593005B
:1045F000E94A0120D2581269137DD47E157F2340E9
:10460000547D2C40012901D0022909D1957C527E8C
:1046100015402A0704D41A462243D20700D10020AD
:10462000032901D0042904D1590702D4610700D419
:10463000002030BDFFB5160AD84CB50061591046B0
:104640000A8B01239B0281B01A430A8357F765FC4A
:10465000002852D0132850D014284ED0152811D03D
:1046600060592D210B5C0122D90600290DDA014683
:10467000A0318F7D002F08D08A753D21304641F74B
:10468000B9FE3AE0022005B0F0BD190703D50021BC
:10469000A0308175F6E7A0308275029801228178FA
:1046A000437809021943401C1B39E12900D3002239
:1046B000C178837809021943B94BFF39801C493905
:1046C000994200D30022C178877809023943801CBF
:1046D0001B39E12900D30022C178877808023843CA
:1046E000FF38493898420AD2002A08D030463FF7AE
:1046F0007BFB304602993FF7BAFB0020C3E71E223E
:10470000142130463FF734F960590121028B8902A8
:104710008A430283F1E710B50446A248008D800762
:10472000800F012800D000206071002807D053F7C7
:104730005DFF01460622A01D59F7B8FC10BD0622F8
:104740009949A01DF8E770B5054600243EF713F916
:104750002855641C082CF9DB70BDF8B502270770DA
:104760000126044646700D4688799049C9698847F4
:104770002A210855287900210007000FA0700300A6
:1047800059F7E8FC07050709100D100B1000A17080
:104790000AE0A67026E0032002E0A77004E00420EF
:1047A000A07001E001281DD0A888000A801FC0B2B7
:1047B000A0721F2800D9A17228463EF791F9811DE9
:1047C0002046A27A0B3059F771FC28463EF788F94B
:1047D00001460622201D59F769FC28794006C00FC2
:1047E000E070F8BDA172F0E7F7B544688CB02546DB
:1047F0002435039505460746243548F785FA0646CD
:104800004420405B52214843694909684018C03040
:104810004089694608840121384643F7B4F948F7CE
:10482000E8F809900E9800698088000AC100614884
:104830000818298940185F495B3159F7BDFB0146CB
:104840006868039D47184035288906900090A06845
:104850000099381A4001400959F7AEFB0A910098B7
:10486000C019401A400140096946A060098C4900FE
:10487000C919891C49014909884204D2069940187E
:1048800040014009A06001460998081A40014A49C0
:104890004009884215D900202B89A268401CD218F3
:1048A00052015209A260EA89521CEA81A368099A5E
:1048B0009A1A520152098A42EED801B20D9843F772
:1048C00003FAA1680998081A4201607D52098242E0
:1048D00010D82A89891849014909A1602A890A99A9
:1048E000511A814206D901210D9843F7EDF9E88963
:1048F000401CE8812989A06859F75EFBF18028896E
:10490000B080208A3081A88870810020B081C807DB
:10491000C00FB073A888522148438E303082304691
:1049200048F7FDF90398466320460FB0F0BDFFB588
:104930001C490020496801240A7893B006462146A4
:104940000C2A0CD06A46117300221192002E09D055
:1049500015990291169D1F2D66D9402064E0002410
:104960002246119413990291149DF4E70299891833
:104970004978012905D0172903D0182901D0192910
:1049800024D1631E04E003AFFF5C8F4216D05B1E90
:104990005BB2002BF7DA15E02C7EFD071879FD07D6
:1049A000010700004C7EFD07CF79FD07B47FFD07AE
:1049B0004C76FD0716020000FFFFFF03002B01DB12
:1049C0004A2003E003AB1955641CE4B20B0059F70D
:1049D000C1FB1D26101010101010101010262626D6
:1049E00026262626262626262626101010101010EB
:1049F0002600119B03E00BAFFF5C8F4204D05B1ECF
:104A00005BB2002BF7DA03E0002B01DB4A2006E063
:104A1000119F0BABD9551199491CC9B2119102993B
:104A2000895C521C89188AB2AA4201D200289DD002
:104A3000AA4200D04A20761CF6B2022E01D20028EB
:104A400082D017B0F0BD10B50022134607E08418DD
:104A50006478012C07D0845C521CA21892B28A425E
:104A6000F5D3184610BD80188378FAE7F0B50646EE
:104A7000A9B01546002084006318DA789F781202E6
:104A80005B783A4352BA1B041A430B5D07241B069A
:104A90001A43231A9F0020AB401CDA510828EAD39E
:104AA00000218A0090190746C37880781B020343CF
:104AB00078785BBA00040343B05C10AA0006034395
:104AC000601A8000135038462230437800781B0269
:104AD00003433846203047785BBA3F0400783B43B5
:104AE000000603430F27781A8000491C1350082939
:104AF000D7D358F76FF90146304658F7E8FD00283C
:104B00002DD058F767F9034620AA10A9684659F72F
:104B1000E9F900226846A11A8B009600C75C71195A
:104B2000CF70C75A3F0A8F70C7583F0C4F70C35899
:104B300020311B0EAB550F239B1A9B00C65CCE7019
:104B4000C65A521C360A8E70C658360C4E70C35860
:104B50001B0E0B70082ADED3002029B0F0BD012007
:104B6000FBE7F7B500251746064641232A462946A6
:104B70000A2057F71DF80446002E10D0012E02D04F
:104B8000022E0CD105E02022611C00203DF70CFF15
:104B900004E0621C394601983DF7B6FE20702046BD
:104BA00057F71FF82846FEBDF8B57848009007680B
:104BB0000C46002F7BD005461C35287E002876D079
:104BC000012802D0022872D102E02078002819D0F2
:104BD00038896F49002688423AD1072047F78CFC74
:104BE000002835D042233E2200216A4856F7E0FFD4
:104BF000082101702178002913D003214170217808
:104C0000817043E061480226611C14302E76202218
:104C1000044659F74BFA22465F4930463DF77EFE7F
:104C200045E0002146701F22531A1B1947185B7874
:104C3000491CBB702029F7DB00213F22531A47187B
:104C40001B1920375B78491CBB702029F6DB1DE05F
:104C50004F493889491C88421AD1082047F74CFC33
:104C6000002815D022233E2200214A4856F7A0FFF3
:104C700009210170217800291BD0122141700021E7
:104C8000FF224318491C9A702029FADB49F740FF9C
:104C90002E76402057F70FFC00983DF743FF56F75C
:104CA000CAFF00980068002801D03DF732FE0020BE
:104CB000F8BD002146701F22531A1B1947185B7854
:104CC000491CBB702029F7DBE0E770B508780025A8
:104CD0000C46012809D01D2810D02B2812D04022C4
:104CE000194651F725FF284670BD57F7CEFA2B48D5
:104CF000012504602A4853F7AEFAF4E729483DF746
:104D000071FDF0E7284801680029ECD1012101601C
:104D100026483DF76DFEE6E770B51D4D244C223D5B
:104D2000AB4217D11B4809232A460021C01E56F763
:104D30003FFF044608221F49401C59F7B7F9207964
:104D400008210843207100252570204649F7E0FE20
:104D5000284670BDA04770BD10B5A022164917485F
:104D600059F7A4F9144950225039154859F79EF9BA
:104D700012481449A03001600F49703941600F4951
:104D800011482039086010BD70470000287AFD07DF
:104D9000252000000408000089E7F1074C7EFD078C
:104DA000030C0000C3C3C3C35077FD07CC7DFD07D0
:104DB0000DC3F0075CE5F1070876FC07200008400A
:104DC000C000FC078CBFF107FF031000F0B53748A7
:104DD00087B0018906914188354D0591A9890491D3
:104DE000698B344AC9B212880392334AD289334C50
:104DF000029222880192C2880092314A01260389D8
:104E000076037711BB4303814388B7103B4343804C
:104E1000A889000A000296310843A8812548382154
:104E2000018025480027C781107800280DD025482B
:104E3000218800687211114321802188090A090222
:104E40004030007D0143218002E0142000F088F909
:104E50001848878001880188012211430180018858
:104E6000C907FCD000E0761E0188C90701D0002EDA
:104E7000F9D187800D49069A0A81059A4A80049AD9
:104E8000AA81039A02800C4B029ADA81019A22804D
:104E9000009ACA80002E02D0012007B0F0BD018820
:104EA0004908490001800020F7E70000002C00506D
:104EB0000025005000220050002400500020005027
:104EC000A876FC074C76FD07F0B5324885B001881E
:104ED00003914188029130490989304B0191198829
:104EE0002F4C009127882F49CE8803256D022E492B
:104EF0000022028022224280FF222748D1320281F2
:104F00002C221A800878FF21013100280CD0274874
:104F1000228800680A4322802188090A0902403059
:104F2000C07C014321800AE020880843208020883B
:104F3000000A000213302080132000F011F91748F6
:104F4000002181800288028801231A43028002889E
:104F5000D207FCD000E06D1E0288D20701D0002DE0
:104F6000F9D181800B49039A0A80029A4A800A4A41
:104F7000019911810099018027800A49CE80002D76
:104F800002D0012005B0F0BD018849084900018028
:104F90000020F7E700240050602800500022005055
:104FA00000200050002C0050A876FC074C76FD072E
:104FB00030B564480288032149023423038000236A
:104FC00083800488048801252C4304800488E40736
:104FD000FCD000E0491E0488E40701D00029F9D183
:104FE00083800280002901D0012030BD018849085A
:104FF00049000180002030BDF8B5534C6088C607D9
:105000006088F60FC005C50F6088400840006080CA
:105010006088FF270137B8436080FFF7C9FF002889
:1050200005D0FFF751FF002801D0FFF7CFFE6188C0
:10503000A1886188490849003143618061882A025A
:10504000B94311436180F8BDF8B53F4C6088C6078D
:105050006088F60FC005C50F60884008400060807A
:105060006088FF270137B84360803DF7A9FC3DF712
:10507000ADFC0022082102203DF79CFC002800D056
:1050800001206188A1886188490849003143618015
:1050900061882A02B94311436180F8BD70B50125CA
:1050A0002A492A020A60BFF34F8FBFF36F8F284946
:1050B0000A6028490B681C0A240240231C430C6028
:1050C000224980390A6020494C880626B443241DB1
:1050D0004C804C882C434C804C8838252C434C8089
:1050E0004C889C434C8001280FD1488833021843D8
:1050F000488048881043488048882A0210434880E6
:105100004888012292039043488070BD10B5124C2C
:10511000E18A124ACBB21189248BC904890E640436
:10512000640E001B093141430120C002401A80B2C5
:10513000584340031189000E090A090201431181F5
:1051400010BD0000002200502020005080E100E04F
:1051500080E200E008E400E000230050002C005052
:10516000064A4108515CC207054801D0090901E01F
:105170000907090F1031C180704700004E4EFD072E
:10518000002C0050F8B5020205464123092134489D
:105190000A3256F70DFD27210170044600201F2317
:1051A0003049AA008F581E1A4936BE5D2718401C88
:1051B0007E702028F6DB00203F238E581F1A4937C7
:1051C000F65D27182037401C7E702028F5DB57F746
:1051D00001FE0146601C58F77AFA002812D10A2015
:1051E00000906A46052128464EF76EFD28464FF787
:1051F00053FD009960221143CAB20146012328469B
:105200004EF7CCFC204656F7ECFCF8BD70B50546D1
:105210000446008914490C3488B088421AD1002011
:105220001F216E460A1AA25C3254401C2028F9DB6A
:1052300020223146204658F739FF00203F210A1A24
:10524000A25C3254401C2028F9DB20226946A018B9
:1052500058F72CFF284646F748F808B070BD000004
:10526000270D00002C7EFD0726200000F8B5024621
:105270004A40D40F42004B0052085B089A4202D2C7
:105280000246084611464A0023D0C30D4A00DDB24B
:10529000120EAD1A202D35DA49020126490AF6050B
:1052A0008A19002C00D0524220214F1B1146B940D0
:1052B0002A411018C20D9A4221D0002C17D0012D7E
:1052C00008DCDA05801AD20F8019D207DBB200F0B1
:1052D00008FAF8BDDA05801A012340001B06C01841
:1052E00080185A428018CA0F1043490007E0490845
:1052F000C2071143DA05801A80194008801800F0AF
:10530000E8F9F8BD61000122511A001BF7E70122FC
:10531000D2075140AAE70122D2075040A6E7024631
:1053200070B54A40D30FDB0740002DD04A002AD089
:10533000010E140E000212020919400A520A8418C2
:10534000E50104465443000A120A2E045043A419EE
:105350004219200CC543AA18120C0125AD03521C9A
:10536000521912047F39240400D0521C104301D476
:105370004000491EC2B20C06C0092018401C40085B
:10538000802A02D003E0002070BD400840000029C0
:1053900000DA0020184370BDF0B5074608465840B3
:1053A00087B0C00F049048000E46590040084908D5
:1053B000BC1A884105D2384631461E4617460B4670
:1053C00002465800400810434DD0300D0390400570
:1053D0005900400D490D0590401A0290402873DA9B
:1053E00018030121000B090508430190049800925D
:1053F000002806D01146019A4942002090410091B0
:105400000190029840210A1A0199009858F792FEDB
:1054100005460C466B4607CB00F048F9C0197141B0
:10542000039A0E0D0023D71756401A467A401643AA
:1054300044D0049A002A2DD0029A012A039A15DC3E
:105440001205C01A914101263605001C7141D20F88
:10545000059ED2070093019202962A46234600F049
:1054600086F907B0F0BD38463146FAE71605234AFB
:105470000F46B218C01AB74101210905001C4F415F
:1054800000187F41114618187941E20F10436D1939
:10549000644113E0E2076D0815436408C207144332
:1054A000039A01261205C01A91413605001C71416C
:1054B000CE07400830434908C01851412A462346C8
:1054C00000F048F9CDE7FFE7049801224000C1173A
:1054D000121A00238B4104983146C417381AA1418F
:1054E000EEE730B40124E407634030BC54E730B445
:1054F0000124E407614030BC4EE700000000E0FFFB
:10550000F0B51FB488B00B99099800244840099958
:10551000C00F490049080991C0070B990090490044
:1055200049080B9109990898A64608431CD00B9985
:105530000A98084318D0099801244000420D4800F9
:10554000410D099824050003000B204309900B9896
:105550000003000B20430B9050181C4940180022F8
:1055600001901446104605E0002001460DB0F0BD44
:10557000032801DA034600E003239C46C11A0AAE61
:105580000AE05F0008ADED5B4F00F75B7D4300274D
:10559000AA187C41491C5B1E6145F2DD410004AB49
:1055A0005A522104120C0A43240C401C0828DFDB49
:1055B000019802900099704601910090059B049A11
:1055C0000799069800F0D3F8D0E700000DFCFFFF24
:1055D0000EB505490291002100910A460B46019142
:1055E00000F0C5F803B000BD33040000C20FD207BD
:1055F000400040080BD0C10D0723DB01C918400251
:105600000905400A1143C2084007114370470020B2
:1056100001467047CB0FDB07490010B54908024629
:105620000A4307D00A0D07240903E401090B121BE2
:10563000002A01DC002010BDC900440F0C43C1004A
:10564000E018D205801800F044F810BDF0B51FB482
:105650000646002082B005464024019100901BE0E0
:10566000019922460F46304600F0A6F9049A059BA0
:10567000801A994110D310461946224658F75AFD10
:10568000361A8F410197224601200021009F58F7CA
:1056900051FD38184D4100902046641E0028DFDC83
:1056A000019B00982946324607B0F0BD10B5202A6C
:1056B00006DBCB170846203A1041C1170B4306E022
:1056C0000B461341D0402024A21A914008431946AA
:1056D00010BD002904DA401C490001D140084000F7
:1056E000704770B40024050C05D11024000402D1C9
:1056F000002921D01124050E01D100020834050F24
:1057000001D10001241D850F01D18000A41C0028B7
:1057100001DB4000641C002908D020252E1B0D460B
:10572000F540A14000D001212943084301061B1B7D
:10573000000ADB1D02D5002070BC7047DB0518187D
:1057400080180029F8DA401C4900F5D170BC4008E7
:105750004000704710B5002B08DA0024401C61415E
:1057600092185B411A4301D14008400010BDF0B5CA
:105770001FB482B005460C0003D0084600F060F963
:1057800002E000F05DF920300246009021462846F4
:1057900058F7D0FC049B059A04460F461843114362
:1057A000084314D0184610431BD0009840210A1A11
:1057B0001846059900F000F905460E46009A05992D
:1057C000049858F7B7FC084305D0012004E02046B0
:1057D000394607B0F0BD0020C11705430E432C43E6
:1057E000374300990E986305401A7905E40A0022B0
:1057F0000C43FD0A0A3002D500200146E9E7010505
:10580000101969410C9C0D9D00196941FFF7A2FF19
:10581000DFE70000F0B50C465C4085B0E40FE4071C
:1058200003944C0000266408590094464908024637
:105830000296224321D062460A431ED06200570DD1
:105840004A000E032303550D012402462C4924056A
:10585000781B1B0B360B40182343264361460090F0
:105860001C46501AB44103D30098401C009002E03B
:10587000921800985B41002803DA0020014605B029
:10588000F0BD0020012109050746864611E0644667
:105890001D46141BB54106D36546521BB3417446E1
:1058A00007430C43A646CD074008490828439218F1
:1058B0005B4105460D43EAD11046184313D06046BC
:1058C000194650407140084306D06046101AB34153
:1058D00006D20122002306E000220123DB0702E0BA
:1058E0000122D2435310009874460105381C6141CF
:1058F000029C039D00196941FFF72CFFBFE70000E0
:10590000FD0300004A0009030123090B1B0519438D
:105910000A4B10B5520D9A4202DA0020014610BD22
:10592000064B34339A4203DC9A1A00F045F810BD56
:10593000034BD21858F7FEFB10BD0000FF03000018
:10594000CDFBFFFF10B5002904DB0124E407404232
:105950008C412146002B04DB1C460123DB0752420D
:10596000A3418B4200D1824210BD000010B5002936
:1059700004DB0124E40740428C412146002B04DB78
:105980001C460123DB075242A341994200D19042B9
:1059900010BD0000064C0125064E05E0E36807CC6B
:1059A0002B430C3C98471034B442F7D3FAF7B4FDBC
:1059B0006077FC079077FC0710B5202A04DB0846C7
:1059C000203AD040002110BD0B46D340D0402024C7
:1059D000A21A91400843194610BD70B54B005B08F0
:1059E00003430BD04B005C0D002633466542B341A8
:1059F000D417AD1AA34102DB0020014670BD120589
:105A00003018514170BD00000FB47CB50C0009ADD9
:105A100001D0611E00E0002101910090074B6A4611
:105A20002946089800F074F9002C02D0009A002151
:105A300011707CBC08BC04B0184700004D64FC0722
:105A40002021020C01D010211046020A01D010467C
:105A50000839020901D01046091F820801D01046FA
:105A6000891E420801D0881E7047081A704700003E
:105A70004900CA020243100000D004204A0D01D0A0
:105A800001221043044A490D914201D102210843E9
:105A9000012800D105207047FF070000F8B5044633
:105AA0004F1EC8000838211815461E460868496868
:105AB0003A4606239A4310D02A463346FFF720FD84
:105AC0003A46D200083AA3181A687F1E5B68FFF7AF
:105AD00063FC06223B469343EED1022F23D0042FD2
:105AE00011D0062F2FD12A463346FFF709FDE36A6E
:105AF000A26AFFF751FC2A463346FFF701FD636AAD
:105B0000226AFFF749FC2A463346FFF7F9FCE369AE
:105B1000A269FFF741FC2A463346FFF7F1FC6369AF
:105B20002269FFF739FC2A463346FFF7E9FCE368B0
:105B3000A268FFF731FC2A463346FFF7E1FC6368B1
:105B40002268FFF729FCF8BD10B50122FFF745FFD9
:105B500010BD10B5FFF720FC10BD0000034A10B5C2
:105B600000201107FFF739FF10BD000001FDFFFF06
:105B700002E008C8121F08C1002AFAD17047704716
:105B8000002001E001C1121F002AFBD17047000074
:105B900001490860704700009877FC07F0B51FB412
:105BA00086B00998089A030D0021024314D0514889
:105BB000514A1818504305141198012810981AD00A
:105BC000281A401C00264D4F4D4900960191049023
:105BD000002812DA444211E01198012449A3012857
:105BE00001D11098C1430698119A84600360C26085
:105BF00041600BB0F0BD4042E4E7044621050020BF
:105C00003F4A001C51410391029012E0E00707D087
:105C100032463B4601990098FFF772FC01910090D3
:105C200032463B4610461946FFF76AFC06460F46C9
:105C30006410002CEAD10498039B0028029A099969
:105C4000089806DAFFF75CFC019B009AFFF758FC06
:105C500005E0FFF7DFFD019B009AFFF7DBFD04463F
:105C60000E460022284BFFF781FE03D80020C043D8
:105C7000014607E00022254B20463146FFF78CFB0A
:105C8000FFF740FE102409E0002C0ADB0A22002363
:105C9000FFF7DCFC079B30321A55641E02460A43AC
:105CA000F2D11122641C079B121B1C19119B012BA2
:105CB00003D0012308430ED10AE0084304D0112089
:105CC00010900020119077E71098151A6D1E0BE0C8
:105CD0001098824202DD00236D1C03E0824201DA4B
:105CE00000236D1E002BEED0069811998260C160D2
:105CF00030C07EE701FCFFFF104D000000001440A3
:105D00000000F03F300000000000F0430000E03FE2
:105D1000FFB597B0064600251BE2252876D1002462
:105D20002746F749049400E00443761C32780120AA
:105D3000203A90400842F7D130782A280ED002222B
:105D4000307801463039092916D804990A23594375
:105D5000303940181443761C0490F1E7189802C8B3
:105D600004911890002904DA0120400304434842BA
:105D7000049002200443761C30782E2814D104208D
:105D800004437078761C2A2809D11898761C80C89C
:105D9000189009E00A214F43303FC719761C30782C
:105DA000014630390929F5D930786C2810D006DC45
:105DB0004C281AD068280ED06A2817D104E074281D
:105DC00013D07A2812D110E00120400504430CE0E2
:105DD0000121090501E0032109050C437178814285
:105DE00003D1012000052418761C761C3078662823
:105DF0000BD013DC58287DD009DC00287BD0452847
:105E0000F6D04628F4D047281AD1A9E118E0632833
:105E100035D0642870D0652812D1A1E170286CD0EB
:105E200008DC6728F1D069287DD06E280DD06F2856
:105E300006D1BCE073282ED0752873D0782859D0AD
:105E40001A9A199990476D1C82E16002400F02284E
:105E500009D003280DD00428189801680DD00D60D2
:105E6000001D189074E11898EA1701680D604A60E7
:105E7000F6E7189801680D80F2E70D70F0E71898C2
:105E80006A4601781172001D18900020507202A815
:105E90000090012005E0189802C818900020009199
:105EA000C04361070ED5002101E00199491C019111
:105EB000B94213DA8142F8DB019A0099895C002922
:105EC000F3D10BE0002101E00199491C01918142CD
:105ED000FADB019A0099895C0029F5D101990498AF
:105EE0001A9B471A21463846199A00F099FA401928
:105EF000019903E051E030E115E050E0451807E07A
:105F0000009800990078491C00911A9A19999047B5
:105F10000198401E0190401CF2D1214638461A9B40
:105F2000199A12E137E00A200021009001916002E5
:105F3000410F022907D0189A01CA1892C217944635
