:0200000407FCF7
:10000000B060FC076D05FC077505FC078D05FC0756
:1000100000000000000000000000000000000000E0
:10002000000000000000000000000000A505FC0723
:100030000000000000000000A705FC074319FC07B2
:10004000E91AFC07451BFC071D27F0076916FC078A
:100050007115FC07AB05FC07B714FC07AB05FC07E3
:10006000AB05FC07AB05FC074913FC074D13FC0768
:100070005113FC075513FC075913FC07AB05FC078C
:100080009113FC07AB05FC07AB05FC07AB05FC07B0
:10009000AB05FC07AB05FC07AB05FC07AB05FC0794
:0200000407FCF7
:100510000348854604F008FD004800474108FC07F1
:10052000B060FC0710B50F49062008800F2000F0CE
:100530000CF8012000F009F8002000F006F8002077
:1005400005210907088062B610BD002809DBC10635
:10055000C90E0120884004490860BFF34F8FBFF3E4
:100560006F8F70470034005080E100E00F488047F3
:100570000F48004704207146084203D0EFF309807A
:100580000C490847EFF308800A49084704207146E0
:10059000084203D0EFF3098007490847EFF30880CA
:1005A00005490847FEE7FEE7FEE7FEE72505FC07ED
:1005B0001105FC072506FC07BD05FC0705221207EF
:1005C000518A802319435182134903680B604368A1
:1005D0004B6083688B60C368CB6003690B614369C0
:1005E0004B6183698B61C369CB6108620B48836A85
:1005F0004B62C36A8B62036BCB62C36B0B63436B4F
:100600004B63806B8863064908200880908A8006C7
:1006100001D500BE7047FEE70000FD0700ED00E0D9
:1006200000330050052109070A8A04231A430A826D
:100630000A8A02231A430A820A8940231A430A813A
:100640001B4B01221A601B4B08221A804A8A802306
:100650001A434A82184A03681361436853618368E6
:100660009361C368D3610369136243695362836909
:100670009362C369D36210631048836A5363C36A89
:100680009363036BD363C36B0B4A40321360436BBA
:100690005360806B9060888A800608D500BE488AC7
:1006A000012280088000D203104348827047FEE791
:1006B00080E200E0003300504000FD0700ED00E064
:1006C000F8B503460C460120154600212B4E024684
:1006D000412B3BD00ADC012B16D00222072B26D05F
:1006E000402B23D12078022824D32AE0422B33D078
:1006F000432B37D0442B19D1207800281AD01F481B
:10070000407B2870227010E006221D491D485DF7CD
:10071000F1FC0627002802D006221A4901E0062231
:10072000B11C28465DF7C2FC27700020F8BD207878
:10073000022802D221700420F8BD30782870707829
:1007400002E0307A2870707A6870DBE72078002841
:10075000F0D00A48807AD4E720780028EAD0074809
:10076000C07ACEE720780028E4D0307BC9E70020AB
:100770007047012070470120704700000653FC07B6
:1007800090E1F1073048FD07F8B5022801D00328B1
:100790004ED1974A136904210B43136105242407A2
:1007A000628A20239A436282228A02231A43228287
:1007B000904E0027102202287578608A39D01043A5
:1007C0006082608A084360827068C01C83088A481F
:1007D0000760628A40210A436282628A8A43628297
:1007E00047618649816201210904C1622188802014
:1007F0000143218000970099491C00916429FADB8C
:10080000618A1022114361827B495B1E4B61218802
:100810008143218003205BF755F800280CD001208C
:10082000F070208A0F2109028843290208432082A0
:10083000F8BD90436082EDE7F77030780543F0E74C
:1008400008B500F080F800F0A9FA052500262D076C
:10085000042709E00421684600964CF7CBFB0028EA
:1008600014D000F011FA11E0288900060ED50120FD
:100870008007006B000409D461480078C00705D1E7
:100880005BF7ABFD5F4800780428E3D072B601F057
:10089000EDF9042806D002280BD0032809D001283E
:1008A0004BD04BE058480078012801D0032000E0ED
:1008B0000220694608700446288A38432882204668
:1008C000FFF762FF022C01D0032C18D14F4841885A
:1008D000FF2201329143418041880122114341802E
:1008E00000960098401C00901428FADB6889800864
:1008F0008000401C688168894006FCD56E80A88A0B
:10090000800602D542490820088030BFA88A8006A8
:1009100002D53F49082048803648C078002807D0D3
:100920003C48006801898AB2416803205AF7A4FF55
:100930002F480169B943016100E030BF62B6C820A9
:100940003549088090E7F0B53448354E0827354AD8
:10095000354BB04201D3394608E0904201D30C2117
:1009600004E0984201D30E2100E00F212F4C304DBE
:10097000204864192F4D817064190125ED034460EE
:10098000AC4201D8012406E00325AD03AC4201D8F6
:10099000032400E00F240C434470274C31468C4262
:1009A00023D2264D26467519944205D38D4201D295
:1009B00004271AE00C2718E09C4209D3954201D283
:1009C000022712E08D4201D206270EE00E270CE02E
:1009D0009D4201D2012708E0954201D2032704E09D
:1009E0008D4201D2072700E00F270770F0BD0000FD
:1009F00000ED00E00448FD070000F407204F101A46
:100A00005877FD07B449FD07B477FD072000005073
:100A1000003300505876FD07003100500448FD07B0
:100A20000000FD0700C0FC070080FC071005FC0764
:100A300054550000000004F8B060FC070C040000EE
:100A4000704770B50D46002441F795FF2855641C8A
:100A5000E4B2202CF8D3002070BD10B500F0D5FA18
:100A600010BD1FB5020E69460A70020C4A70020AD8
:100A70008A70C870684600F0BBFA1FBD70477047A7
:100A800070470749884200D000BE05210907488AFF
:100A9000012280088000D203104348827047000082
:100AA0001111111124480178002902D080214170D0
:100AB00070472249002008702149C87070471E49BC
:100AC0000A78002A03D000280CD002200BE000286E
:100AD00001D0022000E001201849087018490120C7
:100AE000C87070470120803048707047002805D0DA
:100AF000012804D0022804D10120E0E7D2E7002039
:100B0000FBE770470C48C07870470020EFF3108176
:100B1000012282F31088052212071289120605D4D9
:100B20000848028901231A4302811846002900D08F
:100B3000012181F3108870470C48FD07B477FD0749
:100B40005877FD070033005070B505200007018974
:100B50003022914301810189802211430181018961
:100B600089088900491C01810189082319430181F1
:100B7000D4490C8814430C80448A9C4344820589E0
:100B8000402425430581058A0426B5430582858ACC
:100B9000AD07FCD5CC4E002575610E8801252E438E
:100BA0000E804D89AE05C94D0E8801D52E4300E05B
:100BB000AE430E800D887826B54328350D800D880C
:100BC000062635430D80458A1D4345820B88934395
:100BD0000B800289A24302814889800503D5B94967
:100BE00005206031888001208007016882159143CB
:100BF0000160B74801683F225202914342148918AC
:100C00000160016802031143016070BD10B5B14974
:100C100000200968572901D9573908B2C10F0818AF
:100C200040103D21484300B2C10701D01F3000B23F
:100C3000A949884200D8084680B25BF75BFC10BD2A
:100C400010B5A0494888C006040F48880122104307
:100C5000488048881E2290434880A0484B0143802A
:100C60000523038003885B07FCD480884B8893436B
:100C700014334B804B885B085B004B804B8893435D
:100C8000620013434B8010BD70B595490120C863C5
:100C9000C86B0028FCD101208007C0698A4C002164
:100CA0002269904200D22161A2780125002A04D055
:100CB000A1702061FFF7C4FF11E021691922411AD8
:100CC000D201914211D32061FFF7BAFFE188884237
:100CD00001D9411A00E0091A89B2182905D3E08028
:100CE00004F010F8002800D1A57070BD10B548F7C9
:100CF000C7F810BD10B548F7D2F810BD724B0020F0
:100D0000197800290DD076490122CA63CA6B002ADE
:100D1000FCD101218907C969724A1268914201D246
:100D2000012070470021197070470020704710B5EE
:100D30006D4900200860FFF769FF01208007016B03
:100D400049004908016310BD08B55F4988805D49C5
:100D50004A8801231A434A80002200920099491CC4
:100D600000911429FADB052109074B899B089B0098
:100D70005B1C4B814B895B06FCD5488019208001A8
:100D80000092521C00928242FBDB4889800880005E
:100D9000488148890006FCD508BD7047F8B553481E
:100DA000C82101800024448051480827478000F072
:100DB000C9F9444820304088FFF7EFFF424801213D
:100DC0000170404860304188C908C90041803D4EEB
:100DD000718989050AD54188C2130905090D891849
:100DE00041804188782291434031418005252D077B
:100DF0006888002803D138488838FFF7A5FF708835
:100E00004008400070803B4804606A8A40210A43E1
:100E10006A826A8A8A436A8244613749816201210F
:100E20000904C16228888021084328800094009822
:100E3000401C00906428FADB002000F0D9FB224817
:100E4000203000F061F92D490A8A1F484281498A01
:100E5000818100F0A9FB00F05BF802F062FE012046
:100E600041F78FFDFFF770FE2548006841F722FA31
:100E70002448C47004710120800701688215114361
:100E8000016000F00FFDFFF70DFE02F03FFA02F0E7
:100E9000B6FEFFF74CFF1C4913200860FF201B49DA
:100EA000913008600B494F200860EC827088E02187
:100EB0008843A03070800D49C82008800C484780C6
:100EC000F8BD0000200000501048FD070010000091
:100ED00000020040B849FD07E2040000001600507F
:100EE000C0000040605AFC07AC76FD07003100509E
:100EF000003300500000F407204F101A00FEF807DE
:100F00004C76FD075877FD07BC49FD07C049FD0732
:100F100070B51F4E1F483546002410C5401E0028DE
:100F2000FBDA03F08FFD1C48302204801B491C486B
:100F30005DF7BCF81B481D4904701B4808601D493B
:100F40001B4808601D491C4808601D490A2008709C
:100F50001C481D490470322008701C490520086097
:100F60001B4A012111601B4908601B4906200860CB
:100F70001A49072008601A4908200860FF2019490B
:100F800007300860184908601848066070BD000006
:100F9000005CFD07FF0800004048FD0758ECF10722
:100FA000FC76FD07F976FD075455FC075076FD07E2
:100FB0001453FC075476FD079854FC075876FD0738
:100FC000B476FD07B576FD07DD76FD075C76FD0797
:100FD0006076FD076476FD076876FD076C76FD0791
:100FE0007076FD074876FD074476FD074C76FD07D1
:100FF00010B50146102242485DF758F840480021DC
:1010000010388160C160017010BD10B53C4C103CBF
:101010002078002803D100F00BF810202070C0B217
:10102000401EC0B22070364980001031085810BDF3
:1010300070B5344B90B00FCB6C460FC4304804AD44
:101040001038014610311EC91EC51EC500210C9165
:101050000D918168C2680023491C5A41C2608160B9
:101060000F920E914022694620305DF71FF8254E01
:10107000002510360024A000801900F014F8641C2C
:10108000082CF8DB6D1C0A2DF4DB1D4A00206B4692
:101090001032810054585D58401C64195450102877
:1010A000F7DB10B070BD70B5154903784278103188
:1010B0009C0092000B598E588578C0789E190E516D
:1010C0008300C85870401026F041C850AD004E59FA
:1010D00036184E51885870401426F04188500E59E9
:1010E00036180E51C85818247040E041C8504B596A
:1010F0001B184B51885858401923D841885070BD4F
:101100005848FD07B055FC0710B5062201495CF7A9
:10111000CDFF10BDA8FFF807052000070188302289
:10112000114301800188032211430180704705208B
:1011300000070188302291430180018889088900D5
:1011400001807047F0B585B000268C4C029602985D
:1011500028214843009600190099890046500099BB
:10116000491C00910A29F7DB0298401C02900428D0
:10117000EDDB02F0D5FC814D0021083D296069605E
:10118000012702960020009002997D484900465AA6
:1011900000993846884080B206421DD00298282126
:1011A00048430099001989004058411C1BD0002871
:1011B0000DD0C117009A5CF7BDFF029A12015CF7CF
:1011C000B9FF2A686B68104319432860696000986A
:1011D000401C00900A28DBDB0298401C0290042887
:1011E000D0DB05B0F0BD00BEE3E7F8B51646044617
:1011F0000D460A461F46012000215CF79BFF220195
:101200005CF798FF5D4B083B1A685B68104019401B
:10121000084300D100BE032C00D1042459496001C9
:101220004018690008183E43C680F8BD70B50446F2
:101230000D460A46012000215CF77CFF22015CF785
:1012400079FF4E4A083A1368526818401140084323
:1012500000D100BE032C00D104244A49600140188B
:101260000121A940818070BD70B504460D460A4633
:10127000012000215CF75EFF22015CF75BFF3F4A23
:10128000083A1368526818401140084300D100BE64
:10129000032C00D104243B49600140180121A940DE
:1012A000418070BDFFB581B00C4605460A461F4619
:1012B000012000210A9E5CF73DFF2A015CF73AFFFE
:1012C0002E4B083B1A685B6810401940084300D158
:1012D00000BE002E2146284602D0FFF7C5FF01E0E0
:1012E000FFF7A4FF3B4621462846039AFFF77DFF00
:1012F00077E770B5012421460A3881400D4688B24F
:1013000000F02CF884402048C189A9430C43C481D3
:1013100070BD10B504460A3804280BD82046FFF7E4
:10132000E8FF1649A000A03140188038806D0028E1
:1013300001D0804710BD002CFCDBE106C90E012066
:1013400088401249086010BD0A20E2E70B20E0E760
:101350000C20DEE70D20DCE70E20DAE700280BD0BA
:10136000411E4840C003010C002002E04908401C17
:1013700080B20029FAD1704710207047B048FD07AD
:10138000E055FC07003000500014005080E200E0FF
:1013900010B5FFF7CCFE052000078188CA0B16495F
:1013A00018D0164B1A88520714D51A88D20711D0B4
:1013B00018880222104318801888400840001880BE
:1013C0000C68002C05D0985E0421595E0A229A5EB2
:1013D000A04710BD8088C006FBD5094802881206C8
:1013E000F7D501228280028880239A4302804868D0
:1013F0000028EED0804710BD6449FD070002005070
:101400000001005054490A880F239B019A43800130
:1014100002430A80704750490A880F239B019A4370
:10142000800102430A80704710B504464A494B4880
:10143000088000204880062000F046F8204600F092
:1014400050F810BD44484649028802231A430280DE
:10145000491E02D302889207FAD4002101814089F3
:101460007047F8B505463F48006800906846FFF7AA
:10147000DBFF142000F060F8002D01D0092000E00F
:101480000720FFF7C8FFFFF7DDFF0446012000F04B
:1014900053F8002668468670FFF7C6FF002D01D07E
:1014A000092000E00720FFF7B6FFFFF7CBFF2A492E
:1014B00000190E80F8BD2849012008812A480068DB
:1014C000002800D000477047002809DBC106C90E7C
:1014D0000120884025490860BFF34F8FBFF36F8F0D
:1014E000704730B505001FD01B4C29782088012299
:1014F000D2029043C90208432080287801286878E6
:1015000013D0FFF77FFFA9780120800200292188EE
:101510000ED00143218009206080E9780220002953
:10152000618807D00143618030BDFFF774FFEAE7AF
:101530008143EFE78143F6E70AE000BF00BF00BF49
:1015400000BF00BF00BF00BF00BF00BF00BF00BFA3
:10155000401EF2D27047000000150050014000000C
:10156000A0860100E855FC076C49FD0780E100E01A
:1015700010B50A4880890A49C96A002901D08847FC
:1015800010BD042000F001F810BD002805DBC106E5
:10159000C90E01208840034908607047201300509D
:1015A000685AFC0780E200E018B51B4900220A6077
:1015B00005200007448A40231C434482448A9C43FC
:1015C00044824A61154B8B6201231B04CB62048861
:1015D00080231C4304800092521C0092642AFBDB8F
:1015E0000A68D208D2000A6001889943018018BDB8
:1015F000052109070988090600D400BE06490A88A2
:10160000520700D000BE002802D0FF20023000E0C8
:1016100001200860704700000000F407204F101AF6
:10162000544930B4884201D0012100E00021524ADF
:101630004901891808E0838ADB07DB0F12D0038891
:10164000541C8D68CC81AB54CA898B899A42F2D3E1
:1016500082885208520082808A69002A02D0C88992
:1016600030BC104730BC704710B5444800F001F85A
:1016700010BDF8B53F4D404E044620890007000FCD
:10168000062826D009DC012840D002281DD00428D5
:10169000F3D12046FFF7C4FFEFE7072828D00C2836
:1016A000EBD1AC4201D0012000E0002040018719BD
:1016B0002046FFF7B5FFA18849084900A180B96914
:1016C0000029DAD0F8898847D7E7204600F01FF8CC
:1016D000D3E72046AC4201D0012100E000214901BE
:1016E00089190A69002AC8D0818A9E2319400BE013
:1016F0002046AC4201D0012100E0002149018919B6
:101700000A69002AB9D001219047B6E7F8BD194906
:1017100030B4884201D0012100E00021164A49017D
:1017200089180EE003891B069B0F032B1BD0838AAD
:101730009B06DB0F002B95D0531C0C68CB80A25C62
:101740000280CA888B889A42ECD3828802239A430B
:101750008280828880239A4382804A69002A81D0CD
:10176000888830BC10477C231B5A9B07DB0FE1E7BE
:1017700078E70000001000507049FD07001100508C
:10178000F1B592B0634E64490496088AB41C0C907B
:1017900089220520000702810122604B52031A8032
:1017A000028880231A4302800288920892000280F5
:1017B000088A02221043088200F043FB41F700F937
:1017C00041F704F90020694601E08888401C8880C0
:1017D00088889128F9D3524801880991418810914D
:1017E0005049CA880F920A890E92C2880D92408B86
:1017F00008904D48408807904888069000F05AF8B5
:101800000025B0B22B468446484861464180FF21FE
:10181000818001210180C188C907FCD10A460846A0
:10182000049E275C365C7E40F607F60F8E4016431A
:10183000491CC9B2F2B2082905D112994A556D1C4A
:101840000021ADB20A46344FC82620373E80103002
:10185000FF2680B2B600B042E2D95B1C9BB2022BDD
:10186000D2D32D480C9901823149002008802C48A0
:1018700009990180109941802A490F9ACA800E9ACD
:101880000A810D9AC280089A4283274A079850809D
:101890000698488005200007028880218A4302803C
:1018A00013B0F0BD10B52348FFF76AFF2148FFF7DA
:1018B0009FFB10BD08B51A49002008804880194ACE
:1018C0001D4BD380FF23D2331381C880C3215180A5
:1018D000174A082111806946088003E06A4611888A
:1018E000491C1180694609889129F7D36946088007
:1018F00003E06A461188491C1180694609889129CC
:10190000F7D3694601E00888401C088008889128C0
:10191000F9D308BD1001FC07E03000500002004080
:101920000024005060280050002600500035005070
:1019300020200050985AFC07808000001849086059
:10194000704717480068002800D000477047154AC4
:1019500013695B085B00136153691B0E1B06401E75
:10196000034353619069000E0006906110690223E1
:1019700098434900084310611069042188431061AD
:101980001069012108431061704706488169090EFA
:101990000906816101694908490001617047000039
:1019A000B049FD0700E000E0F8B50126B607B56BC9
:1019B0002846FFF79FF9994C2169471800202061BC
:1019C000974938465CF7F8FA96494860944A50437C
:1019D000381A00D0101A80B20860306B0821884392
:1019E000084330639048056090480068002810D094
:1019F000A8420ED28E49097800290AD16168281AB6
:101A00004018E168821D8A4201D2801D00E008462C
:101A10006060F8BDF8B5FFF78AFB0026844805270B
:101A200006700425834C36E021880420890889004B
:101A3000891C21806080208828432080FFF76CFB70
:101A400000E000BF20884007FBD4FFF770FBE08870
:101A5000A188000440187849401805280FD26F4823
:101A60004188491C89B24180142919D346804268B3
:101A70008168531E8B4200D91946416010E06749C6
:101A80004E804868CB68821C9A4200D213464B6055
:101A900067480121017038467F1EFFB20028C3D17C
:101AA000052000074189890708D0418989088900F4
:101AB000418162494A88520852004A800189802245
:101AC00011430181018AA9430182818A8907FCD5DA
:101AD00000F0C4F8012080070169490700D500BE65
:101AE00001694907FCD5F8BDF8B5052636077089A8
:101AF000800720D0B08A400701D502F012F84F4D80
:101B000028888027384328804A4CFF2060800420A2
:101B10002080FFF701FB7D21C900E088A288000436
:101B200080188842F9D905202080454800887080B7
:101B30002888B8432880434801894907FCD4FFF727
:101B400069FFF8BDF8B5354E0127BD072C69002C9B
:101B500062D0200603D58020A8614BF7F4F8A007D7
:101B600003D50220A86147F7B4F8200706D508205E
:101B7000A861002047F76DF804203070E00505D516
:101B8000FF200130A861012047F763F8A00504D5C4
:101B900001204002A8614BF73FF9600603D54020C1
:101BA000A86147F751F8E00603D51020A86145F772
:101BB00086FC600721D50420A861224801894908D4
:101BC000490001815AF76CFC40F776FD0020307027
:101BD0001A484089800510D5707800280DD11A4820
:101BE00077700088C00708D10120FFF73AFC8B21ED
:101BF0008900884201D902207070E00706D00120D8
:101C0000A8615AF769FC4BF79EF83770A0069DD57E
:101C10002020A86100BE99E7F8BD0000B449FD0787
:101C20007102000040000040D049FD07C849FD078F
:101C3000A85AFC070016005061F8FFFF2000005072
:101C40001448FD07003300500015005010B540F750
:101C50006AFB654880686549486010BD10B540F76B
:101C60008EFB624860494068886010BDF8B5002668
:101C700000F0B5F800270090FEF744FF5C4C002808
:101C800002D12079022801D1002000905948008912
:101C9000C00711D1FFF732F800280DD159F757FDD1
:101CA000002809D0E0780126002805D0052000078B
:101CB000808AC00701D004268FE0208800287DD1CB
:101CC000FEF720FF002806D14B48806A002802D08A
:101CD00000F085F80090FEF799FFA17868465AF762
:101CE00041FA002879D00125AD072869400674D44F
:101CF0003F48817868464BF77DF900286DD03F4911
:101D000000200C683E490978022900D132343D494F
:101D10000A78012A00D121340870E96B1220890A5F
:101D200089020143E963E86B37490840A10208438F
:101D3000E863E86B3721C002C00A89050843E863FD
:101D4000324900980426884200D300BEC0026421B4
:101D50005CF732F9002800D0401E244AC01E611CE6
:101D60001060884200D1146021480079002801D019
:101D7000012100E00021106847F711F92448C06AEA
:101D80008047FEF7D2FF002802D0FFF7C5F90127F0
:101D9000154C286B0004C00FFBD02068C005FCD593
:101DA00020688025A8432060002F01D0FFF7BFF9ED
:101DB00010484189462906D2462200E00DE0154B25
:101DC000511A19604281FFF741FF20680006FCD5D7
:101DD000052000070189A94301813046F8BD0E485E
:101DE0000068806A7047000000020040C849FD0793
:101DF0005877FD0700330050787EFD07B849FD078E
:101E0000B477FD07B549FD07FF03E0FF40420F002F
:101E1000B47FFD07C449FD075876FD0700207047D1
:101E20007047704770470020704701218907086B91
:101E30000722104308637047704740087038C0B2EB
:101E4000704740493E48086040493F484881404803
:101E5000418806229143891C41803E4A6321D180FA
:101E60003D493A4A0988603A11823C490988018013
:101E70003B480078002802D03A4930200883704758
:101E800000B58BB0384A4262384A8262384A4261B1
:101E9000384AC262384A0260384A0262384A4260AE
:101EA000384AC261274800214038426B1F231B0477
:101EB0009A434313D218426333480268C3129A43C9
:101EC0000260026803139A43026068464154491C49
:101ED000C9B22829FAD301462C482822006840308C
:101EE0005CF7E4F8FFF7ADFFFEF7AAFE284908808B
:101EF00002F008FF0BB000BD12484038416B1F22B2
:101F00001204914342138918416300060168C9080D
:101F1000C900016005200007018989088900491C62
:101F2000018101890822114301811A4841898905EB
:101F300004D50188782291430831018081E70000AF
:101F40004C05540780000040EBE60000602800507C
:101F500000260050002C00501C48FD071A48FD07C1
:101F6000D449FD07002400501D1EFC07211EFC075C
:101F7000271EFC072B1EFC07231EFC07391EFC072F
:101F8000251EFC073B1EFC07000200404C76FD07A7
:101F90001648FD0720000050FFB58FB000241F46F3
:101FA0001B9E1A9D7E486946099413460884002AA0
:101FB00005D0042219460AA85CF778F802E0002050
:101FC000C0430A900F980A99401C0B90C0B207E0DA
:101FD0000A460241D20701D0641CE4B2401CC0B2E0
:101FE000B842F5D3182044432018032159F7D2FCF6
:101FF0000446109801882180199961800F98142156
:1020000048434119087902280DD0042830460CD0E5
:1020100040221043207109691022A01D5CF746F888
:102020000B98C6B272E02671F5E72022F1E70A9814
:102030003041C00768D03046142148430D90401904
:102040000C900079022804D0042813D010283DD029
:1020500056E0182102A85CF742F80D98285801783C
:10206000684601720D9828584178684641720C986C
:1020700080681CE0182102A85CF731F80D982858F8
:102080000178684601720D98285841786846417277
:102090000D9828588178684681720D982858C17823
:1020A0006846C1720C980121806889040843069033
:1020B0000C98818968468183182109980A4648430B
:1020C000001902A918305BF7F1FF19E00D981822EA
:1020D00029580998504300190490102218305BF7D2
:1020E000E5FF0C9904988A680121C9040A43014656
:1020F000283110465CF715F80C9881890498818581
:102100000998401CC0B20990761CF6B2BE428ED32C
:102110000998607120464DF7B6FE0390002838D12B
:10212000109821880180002009900B98C6B2BE4209
:102130002FD20A983041C00724D009981421401C9E
:10214000C0B271430990481902908089000419D4E3
:102150000298C089002815D002980079022806D17B
:102160006858022208A95BF7C5FF00280AD0029828
:102170002288C18903690998101880B200224DF79E
:102180005CFF0390761CF6B2BE4202D20398002890
:10219000CFD0204659F779FC039813B0F0BD00006A
:1021A0000328000002468B880020022B01D00D205E
:1021B0007047C988002A05D00029F9D00129F7D035
:1021C000812070470029FCD00229F9D17047F0B571
:1021D00089B004464DF7A8FE05460026384F14E0A6
:1021E00005A920464DF7BFFE002301AA07A905A8AF
:1021F00000964DF7ABFF68468088B84203D1641C57
:10220000A0B209B0F0BD641EA4B2A888A04202D852
:10221000E888A042E4D20020F3E7F0B58BB0044692
:102220004DF782FE264F00260546FF371BE008A922
:1022300020464DF798FE002301AA05A908A800969C
:102240004DF784FF68468088B84203D16946097D0E
:10225000022911D01A49884203D16846007D02281C
:1022600007D0641CA4B2A888A04202D8E888A04283
:10227000DDD200200BB0F0BD2046FBE710B50446D0
:10228000FD2000F026FE82790021A24202D980883A
:10229000001981B2084610BD70B504460D46FD20F8
:1022A00000F017FE81888022A14206D880790818A4
:1022B000A04202D9601A28700022104670BD0000AA
:1022C0000328000030B503460120002103241A46EC
:1022D000CA40D20704D04D0022466D1CAA401043CC
:1022E000491CC9B20929F2D330BDFFB585B00546F6
:1022F0000E981E460088FFF7E5FF049030461E2129
:102300000840A98A4B4A0023803001910093029231
:102310000390132304AA484906984EF76CF9070066
:1023200027D10121202059F735FB044620215BF7F6
:10233000D6FE2C610698008820830E980088608362
:10234000F00701D00120C003079908432080A88A24
:1023500060801420E8820120E88120461E30A860B9
:1023600036486860201D40F7D5FBA88A002159F740
:10237000A2FD384609B0F0BD70B504690546606835
:10238000002805D0201D40F7CDFB59F77EFBF6E76E
:1023900000202861204659F778FB70BD70477047D0
:1023A0002448E430704730B50446228B0920521C83
:1023B00093B2648B00222546D540ED0706D05D1C04
:1023C0008D4201D1104630BD9B1C9BB2521CD2B233
:1023D000092AF0D330BD10B50346008B5B8B401C3F
:1023E00080B200221C46D440E40706D0914202D1BC
:1023F000401C80B205E0801C80B2521C52B2092AF7
:10240000F0DB092A00D1002010BD024600208029FF
:1024100001D98D207047062A06D0072A07D0082A3E
:10242000F8D10729F5D170470829F2D1704706295C
:10243000EFD37047EC55FC070A180000F856FC076C
:10244000FFB581B00C46142000F043FD217807460B
:10245000092935D2FFF7BFFF00282FD061782078F7
:10246000FFF7D3FF06002CD17D680DE02879217895
:10247000884208D100222946381D40F7C3FB284670
:1024800059F703FB02E02D68002DEFD160780121A0
:10249000083059F77FFA6178054608315BF71FFE6F
:1024A00020782871607868716278A11CA81D5BF79C
:1024B000FDFD2946381D40F751FB02E0822600E071
:1024C000812602235248039A049959F771FB217817
:1024D0000170467059F785FB002005B0F0BDFFB5CF
:1024E00081B0002000900E46039859F716FD002891
:1024F00002D001284CD04DE0142000F0EAFC074641
:102500003188FFF750FF05464248092D36D27C68D6
:1025100003E02179A94203D02468002CF9D117E007
:10252000002C15D06379039A9B1D049959F740FB41
:10253000054630882880002028716079688062799B
:10254000A11D681D5BF7B2FD284659F74AFB21E043
:102550003D770498010A7977384600F0D7FC0146A8
:102560002B480123401C039A59F722FB057059F7A9
:1025700038FB0121039859F79EFC0BE00623039AD0
:10258000049959F715FB3188018080210171DCE73E
:10259000022000900098A0E7F8B517460D461046B7
:1025A00059F7BBFC012831D1142000F092FC0446FD
:1025B000017FFFF710FF0646217F2A7815489142D8
:1025C00014D1617F6B7809023A4608319B1D59F797
:1025D000EFFA0446068000202071687860806A78EF
:1025E000A91C601D5BF762FD204609E0617F0623A0
:1025F00009023A46083159F7DBFA06808021017159
:1026000059F7EFFA0021384659F755FC0020F8BD7C
:1026100001140000140C0000FFB5064685B0002729
:102620000121282059F7B6F9044628215BF757FD08
:102630000025346126E008981E210840B28A8030C7
:102640000390534B00216F460EC752480022411998
:1026500004914B78405D0699FFF79EFC0746002DDC
:1026600002D106980088A0804A480499405D4978C4
:10267000091A0698008808180699002F088027D1A3
:102680006D1CEDB2444800788542D4D3434D287880
:10269000A0710898C00701D00120C0030799084322
:1026A0002080B08A6080FD20F0820120F0812046E9
:1026B0002430B0603A4870602046103040F72AFA63
:1026C0002988334800F0CDF8B08A002159F7F3FB90
:1026D000384609B0F0BD70B5046905462646103687
:1026E0002069002805D0304640F71CFA59F7CDF98B
:1026F000F6E700202861204659F7C7F970BDF3B509
:1027000081B00298082800D300BE0124204D254F37
:10271000224E10E02046142148434119097902292C
:1027200008D128580088B84204D1E1B200220298AA
:1027300000F0B4F8641C30888442EBDBFEBDF7B5D2
:1027400082B000690124124D164F144E009010E023
:1027500020461421484341190979022908D12858F3
:102760000088B84204D1E1B20022039800F096F844
:10277000641C30888442EBDB0399009800F0BEFBB8
:10278000002159F798FB05B0F0BD074870470000DD
:10279000A458FC079E58FC07A058FC07A258FC0749
:1027A0005857FC07022900000057FC07F7B50746F9
:1027B00082B00D46FD2000F08CFB0646046910E057
:1027C0002079B8420CD16079A8420DD03046002261
:1027D0002146103040F716FA204659F756F905E021
:1027E0002468002CECD101E0002C0ED128460830E2
:1027F0000121009059F7CEF8044600995BF76FFC71
:1028000030462146103040F7A9F9277165712A46F4
:10281000A01D04995BF74AFC002005B0F0BD70B51F
:10282000064614460D46FD2000F053FB0369002CBC
:1028300000D100BE002D0DD100BE0BE01879B042D2
:1028400007D158792880981D2060002B04D00020E3
:1028500070BD1B68002BF1D10020288020600A2069
:1028600070BDFEB5054600200E4600900124F74FCE
:10287000019010E0204614214843411909790229AA
:1028800008D128580088B84204D1E0B26A4608212D
:10289000FFF78CFF641CB442ECDBFEBD7FB5154630
:1028A0000E460446082800D300BE03AA02A93046FB
:1028B000FFF7B5FF68460289002A00D100BE0399E0
:1028C000002900D100BE5BF7F1FB684605550246C2
:1028D00001893046FFF76AFF7FBD7CB5FD2000F01F
:1028E000F8FA84680546002C00D100BE687B6A4671
:1028F00001A90C34FFF793FF68468088082800D0B0
:1029000000BE0099287B08282DD2421C2A736278C9
:10291000002A0A5C02D0D207F4D001E09207F1D578
:10292000A18808318BB2A968CA880102C1200001C0
:10293000083159F73DF906466078002801D0122089
:1029400000E013203070A88861884018B080A0880B
:10295000F0803046A288A11D08305BF7A7FB304607
:1029600059F73FF97CBD607800260028A868C28826
:10297000018907D00423B64859F71AF96188018004
:10298000867007E0B2480623801C59F711F9618868
:102990004180067159F725F9A86859F776F80021A2
:1029A0002846AE6000F0AAFA002159F784FA7CBDEF
:1029B00010B50878122801D0132801D1FFF78DFF38
:1029C000002010BD10B50C46FD2000F082FA808872
:1029D0006188A31D401880B2A18800224DF72DFB0D
:1029E000002010BDF8B517460D46FD2000F071FA25
:1029F000044680886988401886B2384659F78DFAAF
:102A0000012805D03046FFF708FC002802D002E07C
:102A10000220F8BD00BE6946FFF73EFC002800D04A
:102A200000BE0121384659F746FA0C3D0020A5604A
:102A30002073684600786073FFF74FFF0120F8BDF0
:102A4000F8B517460D46FD2000F043FA044680888D
:102A50006988401886B2384659F75FFA012805D0D0
:102A60003046FFF7DAFB002802D002E00220F8BD72
:102A700000BE6946FFF710FC002800D000BE01210F
:102A8000384659F718FA0C3D0020A56020736846B7
:102A900000786073FFF721FF0120F8BD70B516467E
:102AA0000C46104659F739FA002813D1FD2000F0E2
:102AB00010FA0546062332460821664859F778F889
:102AC000A988628889180180A1884180A179017153
:102AD00059F787F8002070BDFFB589B00F460B98F5
:102AE00059F71BFA002802D002200DB0F0BDFD20DE
:102AF00000F0EFF905900020694608720C9802A9D1
:102B0000050A3888FFF7C8FB0024694606468C830F
:102B1000002825D1FD2000F0C7FF43686846007AF1
:102B20001422014651430A1D9A5C022A27D15958A2
:102B3000464A0988914222D1082D00D300BE04AA3A
:102B400001A9FFF76CFE68468088002800D100BE0E
:102B50000498002800D100BE405D694688830224A5
:102B60003C48A31D001F0B9A0C9959F721F8054604
:102B7000388828802E716C80002E16D01AE02946E5
:102B8000059800F0C3F9014631480423C01E0B9A92
:102B900059F70EF805706946097A418059F721F80E
:102BA00001210B9859F787F907E0224607A9681D0C
:102BB0005BF77CFA284659F714F8002095E7FFB533
:102BC00085B00C46FD2000F084F90490002668468C
:102BD000067008986946050A2088FFF75DFB0746DE
:102BE0006088002800D000BE002F62D1FD2000F0D8
:102BF0005BFF0146476868460078142302465A4343
:102C0000131DFB5C022B27D1BA58104B12889A4235
:102C100022D1019602962088FFF7D9FA002800D128
:102C200000BE01AB002203A94DF723FC0398214607
:102C30008005C00FFFF7B6FA07063F0E39D1684688
:102C40000178E2882846FFF729FE18E002290000F3
:102C500007FD0000180C0000002908D08E69002E26
:102C600005D0A2886188A31DB047070021D16288E2
:102C7000A1882088A31D4DF7E0F9070019D1294646
:102C8000049800F043F90146A088079A801D83B29A
:102C90003D4858F78DFF0546A288A11D801D5BF7B2
:102CA00005FA684600786880A088A880284658F70A
:102CB00098FF04233548079A089958F779FF218827
:102CC0000180877058F78DFF002009B0F0BDF8B57E
:102CD0001D4617460E46104659F71FF9002815D114
:102CE000FD2000F0F6F80446274804233A4619462A
:102CF000C01C58F75DFF290A0170082900D300BEE7
:102D00003188A288891A418058F76BFF0020F8BDEE
:102D100070B516460C46104659F7FFF8012819D130
:102D20001A48A179801E002916D0217806230902AD
:102D30003246083158F73CFF0546A078FFF79EFA67
:102D4000288080202871284658F74BFF0021304604
:102D500059F7B1F8002070BDA1883246891D8BB2A9
:102D600021780902083158F723FF0546A078FFF7BC
:102D700085FA288000202871A0886880A288E11D3B
:102D8000681D5BF793F9DEE70AFD0000160C0000F2
:102D9000F8B50025804EFF27002818D00024182001
:102DA00060438719F88A00F0E9F8002802D04168EA
:102DB00038468847FF20F8827D60BD60FD81387D00
:102DC00059F7BEF8641CE4B2202CE8D3F8BD002407
:102DD0002046182148438119224610320D618A820B
:102DE000CF824D608D60CD818D813550087D59F742
:102DF00030F8641CE4B2202CEAD3F8BDF3B50546E4
:102E000081B00026408800F0B9F801000AD0624F76
:102E10006A88002018234343DB19DB8A934203D1DD
:102E2000422628E0402626E0401CC0B22028F1D3EC
:102E3000002418206043C019C08AFF2806D0641CF3
:102E4000E4B2202CF5D3202C14D014E0284608300E
:102E5000009018206043C0190E686B78AA88074656
:102E6000A91DB0470600EED16888F8820298B98A99
:102E70000180E8E74B263046FEBDF8B5464E0746D2
:102E80000024182060438519E88A00F077F80028AC
:102E900003D08268394628469047641CE4B2202C4F
:102EA000EFD3F8BDF3B53C4E81B00F460024182097
:102EB00060438519E88A00F061F8002804D0C368EF
:102EC0003A46284601999847641CE4B2202CEED378
:102ED000FEBD034610B500202F4A014618244C437E
:102EE000A418E48A9C4204D1182041438818006940
:102EF00010BD491CC9B22029F0D310BD428850042E
:102F0000400CD20B01D009020843704702885004DC
:102F1000400CD20B01D009020843704730B5FF21A5
:102F2000020AC4B21C4B002018254543ED18AD8A97
:102F3000A54204D118214843C018C18A03E0401CAF
:102F4000C0B22028F0D31002084330BD30B5FF21B5
:102F5000020AC4B2104B002018254543ED18ED8A33
:102F6000A54204D118214843C018818A03E0401CBF
:102F7000C0B22028F0D31002084330BD014610B57E
:102F80000020C9B2142904D0FD2901D1FFF7FDFBAF
:102F900010BDFFF705FA10BDD849FD0710B500F0C8
:102FA000A9FB00F01DFA0020FDF7A0FD10BD0C21CB
:102FB000254A10B5414389188978FF2902D000F0CD
:102FC000B2F810BD00F038FE10BD10B500F0A2F848
:102FD000002801D000F030FE10BD10B500F02CFE2E
:102FE00010BD10B519490A780270401C491C5BF7E6
:102FF0005DF810BD1549498C01807047082101809A
:1030000010214180002181807D21C180704770B5F1
:103010000C46017800250D4B002904D0012909D068
:103020004820207070BD8278011D1A70581C5BF713
:103030003DF801E040885884257070BD012008707B
:103040000020488088807047F04CFD07104DFD0738
:103050000021F44A05E0834201D101207047491C58
:10306000C9B20C234B43D35CFF2BF4D10020704733
:1030700070B5EC49EC4C0E460C36EC4D0DE0521898
:103080005268002A07D0C2B20C235A43511849682B
:10309000401C60702DE0401C607060780C22424340
:1030A0008B5CFF2BEBD10AE089194968002903D01A
:1030B000FFF7CEFF002809D02078401C207021782F
:1030C0000C204143705CFF28EED117E020780C21E2
:1030D000414389194968401C20700AE04919C968B0
:1030E000002909D0C1B21C2251434919C968401CAA
:1030F000A0708847002070BD401CA070A0781C21E3
:1031000041436A5CFF2AE9D10020A0706070207002
:10311000012070BD10B50121042058F7CCFEFFF747
:10312000A7FF10BDA4E7F8B505460024BD4E0AE090
:1031300080198168002904D0641CE4B228468847BD
:1031400001E0641CE4B220460C214843315CFF29B5
:10315000EED1B44E00240C3609E08F19B96800296D
:1031600003D0FFF775FF002809D0641CE4B20C21DE
:103170006143705CFF28F0D10024AC4E10E0641C69
:10318000B968E4B228468847F1E780190169002947
:1031900004D0641CE4B22846884701E0641CE4B211
:1031A00020461C214843315CFF29EED1F8BDF8B51B
:1031B0009D4DE868002835D15223042209219C48FE
:1031C00058F7F6FC0446E8600D2020700026667073
:1031D0009848A080E08007202072012060721620AD
:1031E000A672E072024620460C3093A107465AF7B9
:1031F0005DFFE8682B210E54C07A21462C3109303E
:103200001F2806D8E07A0421C219204690A30B306B
:1032100006E02B20005D8EA34218204604212B30AF
:1032200000F0EDF8E868F8BDFFB5074680481E4697
:103230000D4681B0412304220921401C58F7B8FCF7
:1032400004461020207065702A463946A01C5AF7A3
:103250002DFF2120065520463246223003995AF789
:1032600025FF204658F7BDFC05B0F0BD70B56E4E89
:1032700004468500361D7059002816D121020E2300
:10328000042275480A3158F793FC09210170002C7B
:1032900000D000BE705110218180082141800021A2
:1032A000C1807D22028141818181705970BD70B5DC
:1032B0005D4EB068002827D15D482C2304220921E7
:1032C000093858F775FC032101700A21B06041707C
:1032D00017210184002585760446458010210A3097
:1032E0005AF7FDFE2021E176A583E5835B496584DD
:1032F000488FFB22FB2800D91046E0845848898F6C
:10330000814200D808462085B06870BD3EB50025D2
:103310004449009501950C223431684602955AF7CC
:10332000C5FE41480C22183069465AF7BFFE3E4C94
:1033300004223834227046A1601C5AF7B7FE39497E
:1033400065842431042058F784FD0021042058F7B7
:10335000B2FD3EBD70B50D4601023F4814462C2318
:1033600004220C380A3158F723FC014620310D7233
:103370004C7258F736FC70BD19E710B5FFF717FF10
:1033800058F72FFC28490020C8600221042058F774
:1033900092FD10BD10B50446FFF768FF58F721FCF9
:1033A000214A0020A100121D505010BD10B5FFF79A
:1033B0007EFF58F716FC1C490020886010BD1A4A91
:1033C000002124324B00D35C834203D14800801893
:1033D00040787047491CC9B20A29F3D304207047CA
:1033E000114910B50020FF232431042442008B54DE
:1033F0005218401CC0B254700A28F7D310BD70B5E3
:103400000646481C1070092015460C46507022468E
:103410001946A81C5AF74AFE3078A41C00193070CF
:1034200070BD00007057FC07D84CFD074058FC07E2
:103430000D0D00004C04000003030A181107595A2F
:1034400008E4862A9E8FE911BC7C9843421800004C
:1034500044696365000000000E0E0000A479FD07BA
:103460004808000010B5104658F757FD002802D054
:1034700000BE002010BD012304220921994858F7FD
:1034800097FB0121017058F7ACFBF2E710B50C78FF
:103490000D2C22D008DC012C0FD0022C21D0032CC3
:1034A00013D00C2C21D122E00E2C20D0112C1ED0B8
:1034B000122C1CD0132C18D119E04878002801D008
:1034C00000BE14E0FFF772FF11E04878002801D039
:1034D00000BE0CE0FFF779FD09E0487800F0E7FB5B
:1034E00005E04C78002C00D000BE00F0F2FB00207C
:1034F00010BDF8B51C4610460E4658F70EFD0228C2
:1035000002D000BE0020F8BD240A00D000BE0C206E
:103510002746474374483D18AC70FF2C15D0012155
:10352000E9700321042058F7C6FC6F483188C15365
:10353000707A28713146681D06220A315AF7B6FDA5
:10354000012200212046FFF705FF3146204600F00A
:1035500087FBD7E770B50D784C78092D04D0002C87
:1035600000D000BE00F0B5FB002070BD70B51D4658
:1035700010460C4658F7D1FC2A0A032802D000BE98
:10358000002070BD0C2042435748FF211018817065
:103590000021C170204600F08EFBF1E7002070474B
:1035A000F0B508780025514C89B01F461646002812
:1035B00004D0012817D0022827D129E06846FFF758
:1035C00010FD684603783246394620460A3358F7DC
:1035D000EFFA0446057068460278411C6280201D9F
:1035E0005AF764FD2BE069460D806846FFF702FD3F
:1035F0000A2332463946204658F7DAFA012101708B
:1036000069460988418058F7ECFA002009B0F0BDFE
:103610000A233946204658F7CBFA04466846FFF796
:10362000EDFC022020706846008860806846408873
:10363000A08068468088E0806846C0882081204657
:10364000E1E738B50C464820694608701D0A204657
:10365000FFF7DDFC2548290202230422801C0A31E1
:1036600058F7A6FA6946097841702178017058F731
:10367000B8FA002038BD10B5104658F74EFC0128A6
:1036800009D1FFF74FFD002805D00221042058F78B
:1036900012FCFFF7A2FC002010BD70B518460D46C5
:1036A0000146E1200623000158F782FA044601464C
:1036B0002846FFF7C3FC204658F793FA002070BD58
:1036C000002070470020704700207047FEB51C4660
:1036D000089B0D26064D6F4668C71346224600F02C
:1036E000B4F8FEBD020D0000F04CFD070B0E00000B
:1036F000B057FC07704710B50A23042209210B4874
:1037000058F756FA04461B2020701420FFF757FE86
:103710006070142060800420A0800020E080FF21E1
:1037200074312181204658F75CFA10BD1B0D000052
:10373000F8B50E4609781846002425460B005AF7BE
:1037400009FD090609120915150C180F1B000B2499
:103750001AA512E007241CA50FE008241CA50CE004
:1037600007241EA509E00A241EA506E00F2420A5B3
:1037700003E0062422A500E000BE0146A31C224867
:1037800058F716FA0746307838707C70002C04D051
:1037900022462946B81C5AF789FC384658F721FAC0
:1037A0000020F8BDFEB51C46089B0126174D6F464C
:1037B00068C71346224600F048F8FEBD4469616CB4
:1037C0006F672053656D69004441313435383500E9
:1037D000123456FFFE9ABCDE0000000001D20080C9
:1037E00005000100312E302E302E302D4C450000CA
:1037F000765F362E302E31322E313032302E32007E
:10380000FFEEDDCCBBAA0000031400002858FC0723
:10381000FFB583B01E4E002401AFA0003558002D27
:1038200000D100BE009703A80FC8A847002809D000
:10383000641C042CF1D303AC0FCC00F04AFA002036
:1038400007B0F0BD68460079FAE7F8B5089C9C46D9
:10385000079D0346002C19D0641E17D40D4FE600B7
:10386000AE5B9E4201D0BE420ED1E3005B195C68A4
:10387000002C00D100BE002C08D013466246A047A1
:10388000069908700020F8BD641EE8D50120F8BD37
:103890003058FC07FFFF00000520000700890006E4
:1038A00008D501208007006B000403D4034800788A
:1038B000C00701D000207047012070475877FD07EE
:1038C0007047704770B50D460446FFF7E5FF0028C6
:1038D00006D06F482A460421201858F7BBFB70BD5C
:1038E000FDF713F96A48042208231146801E58F791
:1038F0005FF94560047058F774F970BDF8B5654C10
:10390000069D06190024002E26D0012E0CD0634FF0
:10391000614B3A46283A022E0AD05E49C91E411828
:103920000A2929D30120F8BD00F088F828703DE06D
:103930000878461E092E0DD88000001F10589842A6
:1039400033D1B0003B5813504A6808781146FFF74E
:10395000B9FF2AE000BE28E04A68002A0AD0504891
:10396000824200D300BE087849494018042158F724
:1039700071FB1AE000BEF6E74649891E4018C0B246
:10398000411E092910D88600B218803AD16F00294B
:103990000BD0994209D0434B994206D0D467F21913
:1039A000803AD467884700E000BE2C700020F8BD44
:1039B0000A46010010B53A480ED0814200D300BE3D
:1039C000364B0020283B84001C59002C06D0401C9C
:1039D0000A28F8DB002010BD00BEF1E784001A5170
:1039E000401C0406240EF5D02046FFF76BFF20464E
:1039F00010BD70B50446401E09281DD82748A100F7
:103A000028380D18803DE86F002813D0254EB042AD
:103A100010D01F480421201858F766FB1C480422C8
:103A200008231146401EEE6758F7C2F8047058F795
:103A3000D8F870BD00BE70BD00BE70BD10B508786E
:103A40000C46411E09291FD882001448121F28382D
:103A50008258144B9A4205D10022890042502830E6
:103A6000425012E0890040580B4988420DD104228F
:103A700008231146064858F79BF8217801706168C1
:103A8000416058F7AEF800E000BE002010BD000015
:103A900003040000FFFBFFFFC338FC07604DFD0778
:103AA000FCFF3F00C138FC070021154A06E08342B5
:103AB00003D11C20414388187047491C1C234B43E9
:103AC000D35CFF2BF3D10020704710B518230422DC
:103AD00009210C4858F76CF804461B202070FD2083
:103AE000FFF76DFC6070FD2060800420A080002145
:103AF000E180E1602161A182204658F772F810BD93
:103B00004058FC071B0D00003EB51D46069B0024D7
:103B100000931346019402942A46FFF796FE3EBD99
:103B2000704710B505242407208A0221884320828B
:103B3000A08A0007FCD50C484188FF2201321143BE
:103B4000418000F067FF09490820088000F0F6FA7C
:103B500000F03CF900F0C4F9608A20218843084352
:103B6000608200F03CFB10BD20000050003300508C
:103B700010B518460C4601460823094858F718F8AE
:103B800021780C225143074A89188978017061888D
:103B90004180002181800321817158F722F810BDF6
:103BA0000EFD0000F04CFD0770B57B4CE078000680
:103BB00002D525462D3501E0774D0E3500F0A0F8F1
:103BC000E07875494006400E40190822891D5AF7D1
:103BD0006DFA714A63792D32104621791F38FFF74B
:103BE00023FB6E496E48FFF7E3FE607070BD10B5B1
:103BF000694C2078FFF7CEFB0020A07010BD70B597
:103C0000654C0025A5700721A01D0170FF214170A2
:103C1000CD218170AB21C1700421001D5AF75FFADC
:103C2000204616225FA10E305AF740FA1620207166
:103C30006571FFF7B3F970BD10B558495848FFF7E3
:103C4000B7FE5549487000F05BF8FFF795FB524905
:103C500001230822891D00F05FF8FFF78EFB10BDDD
:103C600070B50C4605460C205449684340188078CE
:103C7000FF2815D0484E35707078FFF7BAFE60887F
:103C80000838092805D2A088002802D1E0887D28BC
:103C900008D07D204A49C000FFF78AFEB07001E0DD
:103CA000FFF7CAFF21462846FFF781F970BD442877
:103CB00000D1C1E7704710B5374CA078002803D079
:103CC000FFF797FE0020A07000F01AF8FFF7B4FF8E
:103CD00010BD10B53B4C041904D0032C01D1FFF7E3
:103CE00047FF10BD08464988022906D00329F8D1AC
:103CF00000210120FDF7B8FA10BD00F0C3F810BD97
:103D000010B5254C0023A41D2FA20421201D01F075
:103D10001DF9C01C207010BDFEB517460446002BCF
:103D200001D01C2000E01F20E27A2546831A20469D
:103D30000C3001902030184E20350090BB4209DB3A
:103D4000019810183A465AF7B1F9E07AC019E072B2
:103D500008380FE0E87A1F22121ABA420CDB009AE8
:103D600080183A465AF7A2F9E87A8021C019E87219
:103D700008380843F07000E000BEE27A064832716D
:103D80000E3001995AF792F9EA7A034872712D3090
:103D900000995AF78BF9FEBD884DFD07A93BFC073A
:103DA000B80B000003030A181107595A08E4862AC1
:103DB0009E8FE911BC7C984342180000F04CFD072F
:103DC000EF3BFC07F602FFFF2564000010B54149F8
:103DD000002008703F480621401C5AF780F93D48F2
:103DE0001321C01D5AF77BF910BDF8B50326002436
:103DF000314620465AF7E0F801463648401C475CF9
:103E00007D21C90038465AF7D7F8084664215AF789
:103E1000D3F830493030C91D0D1968706421384617
:103E20005AF7CAF808460A215AF7C6F83030A8707F
:103E30000A2138465AF7C0F83031A019C4B2E970E7
:103E4000132CD5D3F8BD10B5FFF7CFFFFD203EF7FB
:103E5000F6FC0146192304221F4857F7A9FE044621
:103E6000002020700120607002206080132019491A
:103E7000A0800246C91DA01D5AF718F9204657F721
:103E8000B0FE10BDF8B5054681881248012900D161
:103E90000170002101700C46104F14E0281981793F
:103EA000027A6423303959435118C0790A225043A9
:103EB000C0190E18032120465AF77EF80549491CFF
:103EC000E41C0E54E4B2A888A042E7D8FFF7BBFF79
:103ED000F8BD0000D44DFD0706FD0000F1FDFFFF19
:103EE000FEB5924A9248951E017811764178517636
:103EF00001468C782C748B1CC97869740179117413
:103F0000417951741979297659796976017A297537
:103F1000417A6975197A1175597A517511462239A4
:103F2000CF1C01971E7CCE71B4465E7C0E72891D3B
:103F3000B64601248E1F0C70B71C00971C7BB4730F
:103F40005B7BF3730127CF718F1F7C75BB75019F5E
:103F500066463E7576467E7502278F738F1F3C77C7
:103F60007B77009F067B3E77467B7E7702274F75E7
:103F7000571C00973C707B70571E067B3E71467B3A
:103F80007E71009F66463E7176467E7103260E77EF
:103F900014725372017B2973417B6973017C117325
:103FA000407C5073101D0190624FC67000245F4822
:103FB00061000E30465C08184578282031464143A0
:103FC0005D48AA0009188858002802D00020C04384
:103FD00000E001208850C1172A465AF7ABF8320199
:103FE0005AF7A8F83A687B6810431943386079603B
:103FF0000020034603220090120229463046FDF7B6
:1040000051F94A4822380455641CE4B2062CCED338
:1040100049484168002902D00021C94300E001213C
:1040200045484160C81749183C6840417B682143B6
:104030001843396078600120002303220146009074
:1040400012021846FDF72EF900242CE037486100D3
:104050001C3808182030067945792820314641431C
:1040600035480A18A9005058002802D00020C04343
:1040700000E001205050C1172A465AF75BF8320180
:104080005AF758F83A687B681043194338607960EA
:104090000120032200900023120229463046FDF73A
:1040A00001F9641CE4B20198C078A042CED8FEBDEC
:1040B000F8B506461D484A000E3011184978805C54
:1040C000FDF7D2F8194DF00000241C3D861B77192E
:1040D00007E06000381881784078FDF7A7F8641C85
:1040E000E4B2A85DA042F4D8F8BDF8B506460F4882
:1040F0004A000E3011184978805CFDF797F80B4D97
:10410000F00000241C3D861B771907E0600038187A
:1041100081784078FDF7A8F8641CE4B2A85DA0425D
:10412000F4D8F8BD01492239085C7047104EFD07EC
:10413000F458FC07A848FD07B048FD0710B500205B
:10414000144B0D22042100F015F8124B12221021FD
:1041500000F010F80F4B24221E2100F00BF82E2245
:104160000C4B114600F006F80A4B3722302100F0C4
:1041700001F810BD30B5521A0446121804E0251A91
:104180006D181D55641CE4B2A242F8DA641CE0B25A
:1041900030BD00002A4EFD0710B5FDF7F6FB1D48A7
:1041A000FDF7CCFB01211C48FDF7D1FB10BD10B57C
:1041B0001A4C2078FFF7B6FF01462078FFF795FFED
:1041C0006078FFF7AFFF01466078FFF771FF607816
:1041D000207000F018F86070FFF7DEFF10BD1FB50B
:1041E0000E4C0020207000F00EF86070FFF7D4FF36
:1041F0000BA30FCB6C460FC4084810226946801CE5
:1042000059F754FF1FBD052802D0401CC0B27047AB
:1042100000207047AF41FC07D90A0000484EFD0757
:10422000FC1E11F9193F4E767FFEB0663CB0B50713
:1042300070B50E460446002203214DF78CFB05465F
:104240004EF758FD688028464DF796FB4EF752FD15
:104250007188884200D30846014620464DF773FC1A
:10426000002070BD0246FB4B92009A580120126953
:1042700000290ED0517F5E239B5C002B0BD00529BB
:1042800006D1517E090702D5917C090700D4002090
:104290007047917DEFE70229F9D00429F7D005296D
:1042A000F6D10020EDE7024630B59300E94A01203F
:1042B000D2581269137DD47E157F2340547D2C4043
:1042C000012901D0022909D1957C527E15402A0787
:1042D00004D41A462243D20700D10020032901D07A
:1042E000042904D1590702D4610700D4002030BD4D
:1042F000FFB5160AD84CB500615910460A8B012348
:104300009B0281B01A430A8357F707FE002852D058
:10431000132850D014284ED0152811D060592D21C3
:104320000B5C0122D90600290DDA0146A0318F7DF0
:10433000002F08D08A753D21304642F75BF83AE0FD
:10434000022005B0F0BD190703D50021A03081750A
:10435000F6E7A0308275029801228178437809023D
:104360001943401C1B39E12900D30022C17883780E
:1043700009021943B94BFF39801C4939994200D3CE
:104380000022C178877809023943801C1B39E12952
:1043900000D30022C178877808023843FF384938B3
:1043A00098420AD2002A08D030463FF71DFD304619
:1043B00002993FF75CFD0020C3E71E22142130461E
:1043C0003FF7D6FA60590121028B89028A430283A2
:1043D000F1E710B50446A248008D8007800F012840
:1043E00000D000206071002807D054F7FFF8014684
:1043F0000622A01D59F75AFE10BD06229949A01D9C
:10440000F8E770B5054600243EF7B5FA2855641C58
:10441000082CF9DB70BDF8B50227077001260446A9
:1044200046700D4688799049C96988472A21085500
:10443000287900210007000FA070030059F78AFEB9
:1044400007050709100D100B1000A1700AE0A670F7
:1044500026E0032002E0A77004E00420A07001E041
:1044600001281DD0A888000A801FC0B2A0721F2892
:1044700000D9A17228463EF733FB811D2046A27A5F
:104480000B3059F713FE28463EF72AFB0146062259
:10449000201D59F70BFE28794006C00FE070F8BDCB
:1044A000A172F0E7F7B544688CB025462435039532
:1044B00005460746243548F727FC06464420405B5E
:1044C00052214843694909684018C030408969460B
:1044D00008840121384643F756FB48F78AFA0990C9
:1044E0000E9800698088000AC1006148081829896F
:1044F00040185F495B3159F75FFD01466868039DCD
:1045000047184035288906900090A0680099381A0D
:104510004001400959F750FD0A910098C019401A0E
:10452000400140096946A060098C4900C919891CED
:1045300049014909884204D20699401840014009BE
:10454000A06001460998081A40014A49400988427A
:1045500015D900202B89A268401CD218520152099B
:10456000A260EA89521CEA81A368099A9A1A520148
:1045700052098A42EED801B20D9843F7A5FBA16813
:104580000998081A4201607D5209824210D82A898E
:10459000891849014909A1602A890A99511A814259
:1045A00006D901210D9843F78FFBE889401CE8816B
:1045B0002989A06859F700FDF1802889B080208AF8
:1045C0003081A88870810020B081C807C00FB07307
:1045D000A888522148438E303082304648F79FFBEE
:1045E0000398466320460FB0F0BDFFB51C4900207C
:1045F000496801240A7893B0064621460C2A0CD05B
:104600006A46117300221192002E09D01599029169
:10461000169D1F2D66D9402064E000242246119487
:1046200013990291149DF4E7029989184978012998
:1046300005D0172903D0182901D0192924D1631EC8
:1046400004E003AFFF5C8F4216D05B1E5BB2002B11
:10465000F7DA15E02C7EFD071879FD070107000049
:104660004C7EFD07CF79FD07B47FFD074C76FD0733
:1046700016020000FFFFFF03002B01DB4A2003E0CE
:1046800003AB1955641CE4B20B0059F763FD1D26FA
:104690001010101010101010102626262626262680
:1046A0002626262626261010101010102600119BF4
:1046B00003E00BAFFF5C8F4204D05B1E5BB2002BAC
:1046C000F7DA03E0002B01DB4A2006E0119F0BAB79
:1046D000D9551199491CC9B211910299895C521C92
:1046E00089188AB2AA4201D200289DD0AA4200D0DD
:1046F0004A20761CF6B2022E01D2002882D017B0D2
:10470000F0BD10B50022134607E084186478012C30
:1047100007D0845C521CA21892B28A42F5D3184684
:1047200010BD80188378FAE7F0B50646A9B01546A3
:10473000002084006318DA789F7812025B783A438D
:1047400052BA1B041A430B5D07241B061A43231A93
:104750009F0020AB401CDA510828EAD300218A00D0
:1047600090190746C37880781B02034378785BBAB8
:1047700000040343B05C10AA00060343601A8000E3
:10478000135038462230437800781B0203433846E2
:10479000203047785BBA3F0400783B430006034370
:1047A0000F27781A8000491C13500829D7D358F7CF
:1047B00011FB0146304658F78AFF00282DD058F7E4
:1047C00009FB034620AA10A9684659F78BFB002273
:1047D0006846A11A8B009600C75C7119CF70C75A42
:1047E0003F0A8F70C7583F0C4F70C35820311B0EC3
:1047F000AB550F239B1A9B00C65CCE70C65A521C49
:10480000360A8E70C658360C4E70C3581B0E0B708D
:10481000082ADED3002029B0F0BD0120FBE7F7B560
:1048200000251746064641232A4629460A2057F7FF
:10483000BFF90446002E10D0012E02D0022E0CD15A
:1048400005E02022611C00203EF7AEF804E0621C67
:10485000394601983EF758F82070204657F7C1F9BD
:104860002846FEBDF8B57848009007680C46002F32
:104870007BD005461C35287E002876D0012802D042
:10488000022872D102E02078002819D038896F49B7
:10489000002688423AD1072047F72EFE002835D05F
:1048A00042233E2200216A4857F782F9082101700D
:1048B0002178002913D0032141702178817043E0D1
:1048C00061480226611C14302E762022044659F7D6
:1048D000EDFB22465F4930463EF720F845E00021D7
:1048E00046701F22531A1B1947185B78491CBB706E
:1048F0002029F7DB00213F22531A47181B192037C4
:104900005B78491CBB702029F6DB1DE04F493889D4
:10491000491C88421AD1082047F7EEFD002815D01F
:1049200022233E2200214A4857F742F9092101700B
:10493000217800291BD0122141700021FF22431849
:10494000491C9A702029FADB4AF7E2F82E764020BB
:1049500057F7B1FD00983EF7E5F857F76CF9009866
:104960000068002801D03DF7D4FF0020F8BD0021E9
:1049700046701F22531A1B1947185B78491CBB70DD
:104980002029F7DBE0E770B5087800250C46012800
:1049900009D01D2810D02B2812D04022194652F7DA
:1049A000C7F8284670BD57F770FC2B4801250460F6
:1049B0002A4853F750FCF4E729483DF713FFF0E786
:1049C000284801680029ECD10121016026483EF702
:1049D0000FF8E6E770B51D4D244C223DAB4217D1D0
:1049E0001B4809232A460021C01E57F7E1F8044658
:1049F00008221F49401C59F759FB20790821084318
:104A000020710025257020464AF782F8284670BD9F
:104A1000A04770BD10B5A0221649174859F746FBAC
:104A2000144950225039154859F740FB124814498F
:104A3000A03001600F49703941600F491148203999
:104A4000086010BD70470000287AFD07252000008F
:104A50000408000089E7F1074C7EFD07030C000005
:104A6000C3C3C3C35077FD07CC7DFD070DC3F0075B
:104A70005CE5F1077859FC0720000840C000FC07FE
:104A80008CBFF107FF031000F0B5374887B00189EC
:104A900006914188354D0591A9890491698B344A65
:104AA000C9B212880392334AD289334C02922288C7
:104AB0000192C2880092314A012603897603771158
:104AC000BB4303814388B7103B434380A889000A56
:104AD000000296310843A8812548382101802548E5
:104AE0000027C781107800280DD02548218800684C
:104AF0007211114321802188090A09024030007D8A
:104B00000143218002E0142000F088F918488780D2
:104B1000018801880122114301800188C907FCD066
:104B200000E0761E0188C90701D0002EF9D18780E8
:104B30000D49069A0A81059A4A80049AAA81039A25
:104B400002800C4B029ADA81019A2280009ACA8074
:104B5000002E02D0012007B0F0BD018849084900AD
:104B600001800020F7E70000002C005000250050D5
:104B7000002200500024005000200050185AFC076A
:104B80004C76FD07F0B5324885B001880391418825
:104B9000029130490989304B019119882F4C0091BD
:104BA00027882F49CE8803256D022E4900220280D6
:104BB00022224280FF222748D13202812C221A80F1
:104BC0000878FF21013100280CD02748228800688E
:104BD0000A4322802188090A09024030C07C01432F
:104BE00021800AE02088084320802088000A0002F3
:104BF00013302080132000F011F917480021818024
:104C00000288028801231A4302800288D207FCD05E
:104C100000E06D1E0288D20701D0002DF9D18180FD
:104C20000B49039A0A80029A4A800A4A0199118123
:104C30000099018027800A49CE80002D02D00120F2
:104C400005B0F0BD01884908490001800020F7E760
:104C50000024005060280050002200500020005026
:104C6000002C0050185AFC074C76FD0730B56448FC
:104C700002880321490234230380002383800488AF
:104C8000048801252C4304800488E407FCD000E05C
:104C9000491E0488E40701D00029F9D183800280ED
:104CA000002901D0012030BD018849084900018058
:104CB000002030BDF8B5534C6088C6076088F60FF9
:104CC000C005C50F60884008400060806088FF27ED
:104CD0000137B8436080FFF7C9FF002805D0FFF710
:104CE00051FF002801D0FFF7CFFE6188A1886188BD
:104CF000490849003143618061882A02B943114360
:104D00006180F8BDF8B53F4C6088C6076088F60F33
:104D1000C005C50F60884008400060806088FF279C
:104D20000137B84360803DF74BFE3DF74FFE002250
:104D3000082102203DF73EFE002800D001206188B6
:104D4000A1886188490849003143618061882A024D
:104D5000B94311436180F8BD70B501252A492A0283
:104D60000A60BFF34F8FBFF36F8F28490A6028494D
:104D70000B681C0A240240231C430C602249803922
:104D80000A6020494C880626B443241D4C804C8878
:104D90002C434C804C8838252C434C804C889C43B9
:104DA0004C8001280FD14888330218434880488836
:104DB0001043488048882A021043488048880122CE
:104DC00092039043488070BD10B5124CE18A124A9C
:104DD000CBB21189248BC904890E6404640E001BB4
:104DE000093141430120C002401A80B258434003B8
:104DF0001189000E090A09020143118110BD00004A
:104E0000002200502020005080E100E080E200E01D
:104E100008E400E000230050002C0050064A41083E
:104E2000515CC207054801D0090901E00907090FD3
:104E30001031C180704700006E4EFD07002C0050FD
:104E4000F8B5020205464123092134480A3256F7D3
:104E5000AFFE27210170044600201F233049AA001D
:104E60008F581E1A4936BE5D2718401C7E702028B8
:104E7000F6DB00203F238E581F1A4937F65D2718AE
:104E80002037401C7E702028F5DB57F7A3FF014632
:104E9000601C58F71CFC002812D10A2000906A46BA
:104EA000052128464EF710FF28464FF7F5FE0099DA
:104EB00060221143CAB20146012328464EF76EFE16
:104EC000204656F78EFEF8BD70B5054604460089AB
:104ED00014490C3488B088421AD100201F216E4634
:104EE0000A1AA25C3254401C2028F9DB20223146E9
:104EF000204659F7DBF800203F210A1AA25C325401
:104F0000401C2028F9DB20226946A01859F7CEF86A
:104F1000284646F7EAF908B070BD0000270D0000EA
:104F20002C7EFD0726200000064C0125064E05E0DC
:104F3000E36807CC2B430C3C98471034B442F7D3BA
:104F4000FBF7EAFA305AFC07605AFC070FB41CB5AD
:104F50000246002007AC00290BD0491E01910092A7
:104F6000064B6A462146069800F01AF8009A00217E
:104F700011701CBC08BC04B018470000F152FC07BB
:104F800002E008C8121F08C1002AFAD17047704712
:104F9000002001E001C1121F002AFBD17047000070
:104FA000FFB58FB00546002606E025280AD0129AE4
:104FB000119990476D1C761C28780028F5D1304651
:104FC00013B0F0BD002402940121B54A009400E022
:104FD00004436D1C2B780846203B98401042F7D1C3
:104FE00028782A280ED0022228780146303909294B
:104FF00016D802990A2359433039401814436D1CBE
:105000000290F1E7109802C802911090002904DA8A
:1050100001204003044348420290022004436D1CD7
:1050200028782E2817D10420044368786D1C2A287C
:105030000CD110986D1C02C8009110900BE00099E3
:105040000A225143303940186D1C009028780146DF
:1050500030390929F3D928786C2810D006DC4C287F
:105060001AD068280ED06A2817D104E0742813D00B
:105070007A2812D110E00120400504430CE0012100
:10508000090501E0032109050C436978814203D138
:105090000120000524186D1C6D1C2878692874D027
:1050A00006DC00288BD0632827D0642806D16CE06A
:1050B0006E2808D073282CD0752878D0129A1199B0
:1050C0009047761C5FE06002400F022809D0032859
:1050D0000DD00428109801680DD00E60001D1090AE
:1050E00051E01098F21701680E604A60F6E71098D8
:1050F00001680E80F2E70E70F0E710986A460178BA
:105100001173001D10900020507303A8019001201E
:1051100005E0109802C8019110900020C04361077B
:105120000CD5002700E07F1C00998F420FDA8742E0
:10513000F9DB0199C95D0029F5D108E0002700E0FD
:105140007F1C8742FCDB0199C95D0029F8D10298D8
:105150002146C01B0290129B119A00F0B3F88019EF
:10516000C61907E0019801990078491C0191129A2B
:10517000119990477F1EF5D22146129B119A0298F1
:1051800000F090F886196D1C16E70A20019010991E
:1051900001C910916102490F032900D100B204290D
:1051A00000D140B2002803DA40422D2103E00DE097
:1051B000210504D52B216A461173012103E0E10783
:1051C00011D02021F7E70CAF0C9114E00A200190D8
:1051D000109901C910916102490F032900D180B2D1
:1051E000042900D1C0B20021EDE7019958F7E4FE8F
:1051F00030317F1E39700028F7D104A8C01B203041
:105200000190600704D5012000048443009801E068
:10521000012000900199884201DD401A00E0002041
:10522000411800900C9809180298401A0290E00367
:1052300006D42146129B119A029800F043F8861971
:1052400000200D9008E003A9085C129A119990477C
:105250000D98401C761C0D900C998842F3DBE003FE
:105260000CD52146129B119A029800F02BF8861952
:1052700004E0129A302011999047761C0099481E3C
:1052800000900029F5DC05E03878129A7F1C11990E
:105290009047761C0199481E01900029F4DC6BE7C9
:1052A00009280100F8B5044600251E461746880463
:1052B00004D405E039462020B0476D1C641EF9D5A2
:1052C0002846F8BDFFB50446002581B01E46C80338
:1052D00001D5302700E02027880404D505E03846B2
:1052E0000399B0476D1C641EF9D5284605B0F0BD82
:1052F0004A68002A06D00A68531C0B601070486880
:10530000401E48607047F40104FF0000FF04D0070E
:1053100006406432811EFC07F91EFC074BD3F007E0
:10532000A9D3F007B1D3F00701D4F00719D4F007DF
:105330002FD4F00751D4F007E1D7F00781DAF00756
:10534000C1D8F007E1D8F00701D9F0073FD9F0073D
:105350004FD9F007FBEEF007D5ECF007F3ECF007C0
:105360000FEDF00729EDF0073DEDF007BFEDF00779
:10537000D7EDF0073FBEF10749C0F10773AFF00763
:10538000C106FC077707FC077307FC076F07FC07DC
:10539000ED21F007830AFC07A919FC072F0DFC0774
:1053A000ED0CFC07F50CFC07FF75F007C974F0075E
:1053B0006B75F0077190F1071F40F107912DFC0705
:1053C000FD2DFC077B2EFC07A52EFC071D2FFC07DF
:1053D0004D2FFC07000000007D0AFC077F0AFC0738
:1053E00057BBF0070986F107018BF107778FF107AB
:1053F0005F8EF107AB56F1075366F1077F17F10790
:1054000073F9F007410AFC07D599F0072947FC0713
:10541000EBB2F0071F48FC076548FC07BF2DF007FB
:10542000532EF0075B78F0072577F007F535F00786
:10543000000000005B0AFC07630AFC07430AFC0744
:1054400095D5F0078BD6F007D7D6F0078FB5F107C3
:105450002FB6F107810AFC070000000000000000E1
:10546000000000000000000000000000000000003C
:10547000000000000000000000000000000000002C
:10548000000000000000000000000000000000001C
:10549000000000000000000005000000B060FC07F4
:1054A000000400009052FD0768020000844EFD07D2
:1054B000000400000455FD077005000020030000F3
:1054C00000A60E0004000000D20000003200000020
:1054D0003C0000000100000001000000020000008C
:1054E00002000000040000000300000006000000AD
:1054F00000000000020000000200000000000000A8
:105500000000000003000000030000000500000090
:1055100005000000060000000A0000000A0000006C
:10552000C8000000B80B000002000000B80B00002B
:10553000B80B000010000000D4010000E5010000DD
:10554000700200006A00000004000000010000007A
:1055500020000000504600030003983A6400F40164
:10556000B80BB80BB80B000CB80B120030003000B1
:10557000CD009A011200240030006400B000180031
:10558000280012001200D0070000FFFF00000000FA
:105590006400C8000000D0070002444131343538AF
:1055A00035000000000000000000000000000000C6
:1055B000657870616E642031362D62797465206B78
:1055C0000004080C0105090D02060A0E03070B0F63
:1055D00000050A0F01060B0C0207080D0304090E53
:1055E000FF003F00FF03FF01010001010028000050
:1055F000010000000000000003280000010000007E
:1056000002000000292A0000010000008080000044
:10561000032800000100000004000000242A00000C
:10562000010000008080000003280000010000004D
:1056300006000000252A0000010000008080000014
:10564000032800000100000008000000272A0000D5
:10565000010000008080000003280000010000001D
:105660000A000000262A00000100000080800000DF
:1056700003280000010000000C000000282A0000A0
:1056800001000000808000000328000001000000ED
:105690000E000000232A0000010000000880000026
:1056A0000328000001000000100000002A2A00006A
:1056B0000100000008800000032800000100000035
:1056C00012000000502A00000100000007800000C6
:1056D000EB22FC077923FC079D23FC079F23FC0793
:1056E000001400004124FC07130C0000DF24FC0719
:1056F000031400009925FC07E056FC070300000096
:105700001926FC07D726FC07FF26FC073F27FC07C6
:10571000130C0000D92AFC07150C0000BF2BFC0756
:10572000170C0000CF2CFC07000C0000B129FC076F
:1057300006FD0000E529FC0703FD0000C529FC0764
:1057400008FD0000412AFC070EFD00009D2AFC0711
:1057500005FD0000112DFC071057FC070900000093
:1057600000004C044C04070100010203040506007C
:10577000FF00000000000000000000001400000016
:10578000F736FC0700000000FF00000000000000EA
:1057900000000000000000002058FC07344DFD0709
:1057A00004000100000000000000000000000000F4
:1057B000010D00006534FC07000D00008D34FC076E
:1057C000000E00005535FC07010E0000F334FC0705
:1057D000030E00006D35FC070A0E0000A135FC0722
:1057E0000C0E00004336FC071C0D00007736FC074A
:1057F000100D00009D35FC070F0E00009B36FC07C6
:105800002C0E0000C136FC07120C0000C536FC0748
:10581000080E0000C936FC07FFFF00001138FC0726
:105820001858FC0701000000021400003137FC0783
:10583000CD36FC07FD38FC07A537FC07093BFC0704
:10584000FD000000A458FC0704000000CB3AFC0750
:10585000000000000000000000000000FF00000049
:105860000000000000000000000000000000000038
:105870000000000000000000595A08E4862A9E8FAC
:10588000E911BC7C984342180028032802295634A9
:10589000E0D1815442108EFFD2B377E32A7700041F
:1058A000010004008858FC071000000001000000FF
:1058B000100010007858FC078A58FC07020000000E
:1058C0000100000000000000000000008E58FC07EE
:1058D0001000000009020200130000000000000098
:1058E0008C58FC07020000000900020002000000C2
:1058F000000000000000000300070006000500048F
:10590000010001010103000101001D01F142FC073A
:105910000900020D8749FC0700000508D549FC076E
:1059200000000000000000003142FC07414EFC076F
:105930006542FC07A742FC07D343FC070347FC076B
:105940000344FC07A544FC071744FC07EB45FC0790
:105950000000000000000000000000000000000047
:105960000000000000000000000000000000000037
:105970000000000000000000750BF10700000000AF
:10598000B3B5F107000000003B3FF1070000000045
:105990004538F107000000005791F10700000000B2
:1059A0001584F107000000005764F00700000000B4
:1059B0007985F00700000000C397F00700000000A1
:1059C000B97AF107000000000000000000000000AC
:1059D00000000000000000000000000000000000C7
:1059E00000000000000000000000000000000000B7
:1059F00000000000000000000000000000000000A7
:105A00000000000000000000000000000000000096
:105A100000000000000000000101000A04280A0440
:105A20000203AA0055032A00A001FFFF2C01000079
:105A30001001FC071001FC0700040000904FFC0758
:105A4000645AFC07685AFC0748060000904FFC07A0
:105A50000448FD070448FD0780060000904FFC073E
:045A6000800C0000B6
:0400000507FC0511DE
:00000001FF
