:0200000407FCF7
:10000000F880FC077105FC077905FC079105FC07E2
:1000100000000000000000000000000000000000E0
:10002000000000000000000000000000A905FC071F
:100030000000000000000000AB05FC071D1CFC07D1
:100040006B1DFC07C71DFC071D27F0078118FC0767
:100050007F17FC07AF05FC07C714FC07AF05FC07BB
:10006000AF05FC07AF05FC075913FC075D13FC0740
:100070006113FC076513FC076913FC07AF05FC0758
:10008000A113FC07AF05FC07AF05FC07AF05FC0794
:10009000A51BFC07AF05FC07AF05FC07AF05FC0778
:0200000407FCF7
:100510000448854605F08CFF004800474508FC0765
:10052000C046C046F880FC0710B50F490620088079
:100530000F2000F00CF8012000F009F8002000F076
:1005400006F8002005210907088062B610BD0028C2
:1005500009DBC106C90E0120884004490860BFF3C9
:100560004F8FBFF36F8F70470034005080E100E081
:100570000F4880470F48004704207146084203D0C7
:10058000EFF309800C490847EFF308800A49084750
:1005900004207146084203D0EFF309800749084759
:1005A000EFF3088005490847FEE7FEE7FEE7FEE7B0
:1005B0002905FC071105FC072906FC07C105FC07F6
:1005C00005221207518A8023194351821349036877
:1005D0000B6043684B6083688B60C368CB600369C2
:1005E0000B6143694B6183698B61C369CB610862AD
:1005F0000B48836A4B62C36A8B62036BCB62C36B2B
:100600000B63436B4B63806B88630649082008804B
:10061000908A800601D500BE7047FEE70000FD0706
:1006200000ED00E000330050052109070A8A042389
:100630001A430A820A8A02231A430A820A89402339
:100640001A430A811B4B01221A601B4B08221A8095
:100650004A8A80231A434A82184A0368136143680E
:10066000536183689361C368D3610369136243690B
:10067000536283699362C369D36210631048836ACB
:100680005363C36A9363036BD363C36B0B4A4032F8
:100690001360436B5360806B9060888A800608D536
:1006A00000BE488A012280088000D203104348829D
:1006B0007047FEE780E200E0003300504000FD0795
:1006C00000ED00E0F8B503460C4601201546002178
:1006D0002B4E0246412B3BD00ADC012B16D00222C6
:1006E000072B26D0402B23D12078022824D32AE0C0
:1006F000422B33D0432B37D0442B19D120780028FC
:100700001AD01F48407B2870227010E006221D4935
:100710001D485DF7EFFC0627002802D006221A4983
:1007200001E00622B11C28465DF7C0FC27700020BE
:10073000F8BD2078022802D221700420F8BD30785C
:100740002870707802E0307A2870707A6870DBE781
:1007500020780028F0D00A48807AD4E72078002852
:10076000EAD00748C07ACEE720780028E4D0307B72
:10077000C9E7002070470120704701207047000042
:10078000B872FC0790E1F1073048FD07F8B5022880
:1007900001D003284ED1974A136904210B431361FA
:1007A00005242407628A20239A436282228A022334
:1007B0001A432282904E0027102202287578608A00
:1007C00039D010436082608A084360827068C01C20
:1007D00083088A480760628A40210A436282628AEB
:1007E0008A43628247618649816201210904C162AC
:1007F000218880200143218000970099491C0091A5
:100800006429FADB618A1022114361827B495B1EF5
:100810004B6121888143218003205BF753F8002836
:100820000CD00120F070208A0F2109028843290290
:1008300008432082F8BD90436082EDE7F77030787E
:100840000543F0E708B500F080F800F0A8FA0525A8
:1008500000262D07042709E00421684600964CF77E
:10086000C9FB002814D000F011FA11E02889000615
:100870000ED501208007006B000409D46148007880
:10088000C00705D15BF7A9FD5F4800780428E3D0D5
:1008900072B601F02BFB042806D002280BD00328E7
:1008A00009D001284BD04BE058480078012801D0EE
:1008B000032000E00220694608700446288A384375
:1008C00028822046FFF762FF022C01D0032C18D1AA
:1008D0004F484188FF2201329143418041880122E3
:1008E0001143418000960098401C00901428FADBC8
:1008F000688980088000401C688168894006FCD5B2
:100900006E80A88A800602D542490820088030BF40
:10091000A88A800602D53F49082048803648C0781A
:10092000002807D03C48006801898AB2416803204A
:100930005AF7A2FF2F480169B943016100E030BFB7
:1009400062B6C8203549088090E7F0B53448354E86
:100950000827354A354BB04201D3394608E090426A
:1009600001D30C2104E0984201D30E2100E00F21B5
:100970002F4C304D204864192F4D8170641901258A
:10098000ED034460AC4201D8012406E00325AD0329
:10099000AC4201D8032400E00F240C434470274CE0
:1009A00031468C4223D2264D26467519944205D3F2
:1009B0008D4201D204271AE00C2718E09C4209D38B
:1009C000954201D2022712E08D4201D206270EE0A5
:1009D0000E270CE09D4201D2012708E0954201D28A
:1009E000032704E08D4201D2072700E00F2707709C
:1009F000F0BD000000ED00E00448FD070000F40732
:100A0000204F101A5877FD077449FD07B477FD078A
:100A100020000050003300505876FD070031005090
:100A20000448FD070000FD0700C0FC070080FC072C
:100A30001005FC07A0750000000004F85881FC07B1
:100A40000C040000704770B50D46002441F793FF79
:100A50002855641CE4B2202CF8D3002070BD10B5DA
:100A600000F0D9FA10BD1FB5020E69460A70020CDB
:100A70004A70020A8A70C870684600F0BDFA1FBD4D
:100A80007047704770470749884200D000BE052173
:100A90000907488A012280088000D2031043488257
:100AA000704700001111111124480178002902D06B
:100AB0008021417070472249002008702149C87088
:100AC00070471E490A78002A03D000280CD0022063
:100AD0000BE0002801D0022000E001201849087036
:100AE00018490120C8707047012080304870704755
:100AF000002805D0012804D0022804D10120E0E715
:100B0000D2E70020FBE770470C48C0787047002010
:100B1000EFF31081012282F3108805221207128957
:100B2000120605D40848028901231A430281184697
:100B3000002900D0012181F3108870470C48FD077F
:100B4000B477FD075877FD070033005070B50520D6
:100B500000070189302291430181018980221143DC
:100B60000181018989088900491C018101890823C3
:100B700019430181D3490C8814430C80448A9C4357
:100B800044820589402425430581058A0426B5430E
:100B90000582858AAD07FCD5CB4E002575610E8890
:100BA00001252E430E804D89AE05C84D0E8801D516
:100BB0002E4300E0AE430E800D887826B5432835DD
:100BC0000D800D88062635430D80458A1D434582DC
:100BD0000B8893430B800289A243028148898005D8
:100BE00003D5B8490520603188800120800701685D
:100BF000821591430160B64801683F225202914339
:100C0000421489180160016802031143016070BD3C
:100C100010B5B04900200968572901D9573908B2E1
:100C2000C10F081840103D21484300B2C10701D050
:100C30001F3000B2A849884200D8084680B25BF74E
:100C400059FC10BD10B59F494888C006040F48885C
:100C500001221043488048881E22904348809F48C4
:100C60004B0143800523038003885B07FCD4808805
:100C70004B88934314334B804B885B085B004B805D
:100C80004B889343620013434B8010BD70B5944969
:100C90000120C863C86B0028FCD101208007C0690F
:100CA000894C00212269904200D22161A27801255D
:100CB000002A04D0A1702061FFF7C4FF11E0216970
:100CC0001922411AD201914211D32061FFF7BAFFD4
:100CD000E188884201D9411A00E0091A89B218292D
:100CE00005D3E08004F08CFF002800D1A57070BD12
:100CF00010B548F7C5F810BD10B548F7D0F810BDCD
:100D0000714B0020197800290DD075490122CA6362
:100D1000CA6B002AFCD101218907C969714A12688E
:100D2000914201D2012070470021197070470020C4
:100D3000704710B56C4900200860FFF769FF01207B
:100D40008007016B49004908016310BD08B55E4981
:100D500088805C494A8801231A434A800022009215
:100D60000099491C00911429FADB052109074B89D8
:100D70009B089B005B1C4B814B895B06FCD5488024
:100D8000192080010092521C00928242FBDB4889AC
:100D900080088000488148890006FCD508BDF8B568
:100DA0005248C821018000244480514808274780C8
:100DB00000F0D0F9434820304088C046C046424841
:100DC000012101703F4860304188C908C900418055
:100DD0003C4E718989050AD54188C2130905090D60
:100DE000891841804188782291434031418005250E
:100DF0002D076888002801D137488838FFF7A6FFFB
:100E000070884008400070803A4804606A8A402137
:100E10000A436A826A8A8A436A82446136498162E5
:100E200001210904C1622888802108432880009498
:100E30000098401C00906428FADB002000F0E4FCDD
:100E40002148203000F068F92C490A8A1E48428166
:100E5000498A818100F0B4FC00F05AF802F0A3FF47
:100E6000012041F78EFDFFF771FE2548006841F72C
:100E700021FA2448C470047101208007016882159A
:100E80001143016000F01AFEFFF70EFE02F08EFB28
:100E900002F0F7FFFFF74DFF1B4913200860FF200A
:100EA0001A49913008600B494F200860EC82708825
:100EB000E0218843A03070800C49C82008800C488D
:100EC0004780F8BD200000501048FD0700100000CA
:100ED000000200407849FD07E204000000160050BF
:100EE000C0000040A87AFC07AC76FD070031005036
:100EF000003300500000F407204F101A00FEF807DE
:100F00004C76FD075877FD077C49FD078049FD07B2
:100F100070B5204C204920465DF7E1F805211F48B7
:100F200049025DF7DCF804F013FD1D48002505803B
:100F300030221C491C485DF7B9F81C481D49057052
:100F40001B4808601D491C4808601E491C48086071
:100F50001D490A2008701D481D490570322008707F
:100F60001C49052008601C4A012111601B490860CA
:100F70001B49062008601B49072008601A49082001
:100F80000860FF20194907300860194908601948AE
:100F9000046070BD005CFD07781600000076FD0758
:100FA0004048FD0758ECF107FC76FD07F976FD0790
:100FB0000875FC075076FD07C872FC075476FD07DC
:100FC0004C74FC075876FD07B476FD07B576FD072F
:100FD000DD76FD075C76FD076076FD076476FD072C
:100FE0006876FD076C76FD077076FD074876FD078D
:100FF0004476FD074C76FD0710B5014610224448A3
:101000005DF754F8424A00200146083A03C21046F0
:101010003830017610BD10B53D4C3834207E0028A4
:1010200003D100F00CF810202076C0B2401EC0B2F0
:1010300037492076800008394018806910BDF0B526
:10104000344B91B00FCB6D460FC5314C083C204658
:1010500008300FC80FC50FC500200C900D902168F7
:101060006068491C00225041216060600846616848
:101070000E900F9120464022694618305DF716F811
:10108000244F002610370025A800C01900F013F8DF
:101090006D1C082DF8DB761C0A2EF4DB00206B4655
:1010A00081000A1959589569401C691891611028E6
:1010B000F6DB11B0F0BD70B51549037842781031F8
:1010C0009C0092000B598E588578C0789E190E515D
:1010D0008300C85870401026F041C850AD004E59EA
:1010E00036184E51885870401426F04188500E59D9
:1010F00036180E51C85818247040E041C8504B595A
:101100001B184B51885858401923D841885070BD3E
:101110000081FC076475FC0710B5062201495CF7E5
:10112000C5FF10BDA8FFF807052000070188302281
:10113000114301800188032211430180704705207B
:1011400000070188302291430180018889088900C5
:1011500001807047F0B585B000268C4C029602984D
:1011600028214843009600190099890046500099AB
:10117000491C00910A29F7DB0298401C02900428C0
:10118000EDDB02F00FFE814D0021083D2960696012
:10119000012702960020009002997D484900465A96
:1011A00000993846884080B206421DD00298282116
:1011B00048430099001989004058411C1BD0002861
:1011C0000DD0C117009A5CF7B5FF029A12015CF7C7
:1011D000B1FF2A686B681043194328606960009862
:1011E000401C00900A28DBDB0298401C0290042877
:1011F000D0DB05B0F0BD00BEE3E7F8B51646044607
:101200000D460A461F46012000215CF793FF22018C
:101210005CF790FF5D4B083B1A685B681040194013
:10122000084300D100BE032C00D1042459496001B9
:101230004018690008183E43C680F8BD70B50446E2
:101240000D460A46012000215CF774FF22015CF77D
:1012500071FF4E4A083A136852681840114008431B
:1012600000D100BE032C00D104244A49600140187B
:101270000121A940818070BD70B504460D460A4623
:10128000012000215CF756FF22015CF753FF3F4A23
:10129000083A1368526818401140084300D100BE54
:1012A000032C00D104243B49600140180121A940CE
:1012B000418070BDFFB581B00C4605460A461F4609
:1012C000012000210A9E5CF735FF2A015CF732FFFE
:1012D0002E4B083B1A685B6810401940084300D148
:1012E00000BE002E2146284602D0FFF7C5FF01E0D0
:1012F000FFF7A4FF3B4621462846039AFFF77DFFF0
:1013000077E770B5012421460A3881400D4688B23E
:1013100000F02CF884402048C189A9430C43C481C3
:1013200070BD10B504460A3804280BD82046FFF7D4
:10133000E8FF1649A000A03140188038806D0028D1
:1013400001D0804710BD002CFCDBE106C90E012056
:1013500088401249086010BD0A20E2E70B20E0E750
:101360000C20DEE70D20DCE70E20DAE700280BD0AA
:10137000411E4840C003010C002002E04908401C07
:1013800080B20029FAD17047102070475048FD07FD
:101390009475FC07003000500014005080E200E01B
:1013A00010B5FFF7CCFE052000078188CA0B16494F
:1013B00018D0164B1A88520714D51A88D20711D0A4
:1013C00018880222104318801888400840001880AE
:1013D0000C68002C05D0985E0421595E0A229A5EA2
:1013E000A04710BD8088C006FBD5094802881206B8
:1013F000F7D501228280028880239A4302804868C0
:101400000028EED0804710BD0449FD0700020050BF
:101410000001005054490A880F239B019A43800120
:1014200002430A80704750490A880F239B019A4360
:10143000800102430A80704710B504464A494B4870
:10144000088000204880062000F046F8204600F082
:1014500050F810BD44484649028802231A430280CE
:10146000491E02D302889207FAD4002101814089E3
:101470007047F8B505463F48006800906846FFF79A
:10148000DBFF142000F060F8002D01D0092000E0FF
:101490000720FFF7C8FFFFF7DDFF0446012000F03B
:1014A00053F8002668468670FFF7C6FF002D01D06E
:1014B000092000E00720FFF7B6FFFFF7CBFF2A491E
:1014C00000190E80F8BD2849012008812A480068CB
:1014D000002800D000477047002809DBC106C90E6C
:1014E0000120884025490860BFF34F8FBFF36F8FFD
:1014F000704730B505001FD01B4C29782088012289
:10150000D2029043C90208432080287801286878D5
:1015100013D0FFF77FFFA9780120800200292188DE
:101520000ED00143218009206080E9780220002943
:10153000618807D00143618030BDFFF774FFEAE79F
:101540008143EFE78143F6E70AE000BF00BF00BF39
:1015500000BF00BF00BF00BF00BF00BF00BF00BF93
:10156000401EF2D2704700000015005001400000FC
:10157000A08601009C75FC070C49FD0780E100E096
:1015800010B58A4A13885B085B00138013884024D7
:10159000A343138013880824A343C000034313808C
:1015A0001089800A80020843108110BD30B57F4B3E
:1015B0001C880125640864002C431C801C8840257D
:1015C000AC432C431C80012900D101201C8820251C
:1015D000AC43400104431C8018881024A043090137
:1015E000084318809888800A80021043988030BD94
:1015F00030B5EFF31081012282F3108805231B0719
:101600009A882024A24322439A80002900D00121F5
:1016100081F31088654C6034A18949084900A18193
:10162000A189C907C90FFBD16049002220310A8274
:101630005E4A038893824388138383889383C38895
:101640000B8013880625AB43457A6D002B4313802E
:10165000827B002A00D100BEC37B002B00D100BEDC
:101660008B8B5B095B01521E13438B830A8B5309DF
:10167000C27B5B01521E13430B83817A012917D071
:101680008189C07AFFF77CFFA18901208143014352
:10169000A181A089C007C00FFBD045480168802206
:1016A000090A09021143016042491020086030BD57
:1016B0008289C17A007AFFF779FFE5E7F0B59E46A7
:1016C0003A4B0025394C844680332846374F6034E6
:1016D0000FE0258AAD07ED0FFBD065462D5C3D82FE
:1016E000401C1D8880B2002D03D030494031898ACA
:1016F0000FE00E46491E89B2002EEAD17146C90795
:1017000007D0218A4907C90FFBD0218A8906C90F52
:10171000FBD1002A00D01580F0BDF0B5002784462B
:10172000FF2638463B460136204C22E05B1C9BB22C
:10173000268201E01D4D60358B4209D22F8ABF07FA
:10174000FF0FF3D104E0278A65462F54401C80B276
:10175000884205D2154F60373F8BBF06BF0EF2D1CE
:10176000124D80352F88002F03D010494031898ACF
:1017700001E08842DED3002A00D01780F0BD0B487C
:1017800010B5203080890C49C96A002901D08847EA
:1017900010BD042000F001F810BD002805DBC106D3
:1017A000C90E0120884005490860704700130050A9
:1017B00004E400E000E100E0B07AFC0780E200E031
:1017C00018B51B4900220A6005200007448A4023FF
:1017D0001C434482448A9C4344824A61154B8B6279
:1017E00001231B04CB62048880231C4304800092E5
:1017F000521C0092642AFBDB0A68D208D2000A60FD
:1018000001889943018018BD052109070988090647
:1018100000D400BE06490A88520700D000BE002846
:1018200002D0FF20023000E0012008607047000075
:101830000000F407204F101A544930B4884201D0F8
:10184000012100E00021524A4901891808E0838AF9
:10185000DB07DB0F12D00388541C8D68CC81AB549E
:10186000CA898B899A42F2D38288520852008280B8
:101870008A69002A02D0C88930BC104730BC704742
:1018800010B5444800F001F810BDF8B53F4D404E8A
:10189000044620890007000F062826D009DC01280D
:1018A00040D002281DD00428F3D12046FFF7C4FF02
:1018B000EFE7072828D00C28EBD1AC4201D001205B
:1018C00000E00020400187192046FFF7B5FFA188FE
:1018D00049084900A180B9690029DAD0F889884708
:1018E000D7E7204600F01FF8D3E72046AC4201D0EE
:1018F000012100E00021490189190A69002AC8D0A4
:10190000818A9E2319400BE02046AC4201D0012180
:1019100000E00021490189190A69002AB9D0012192
:101920009047B6E7F8BD194930B4884201D001218B
:1019300000E00021164A490189180EE003891B06C0
:101940009B0F032B1BD0838A9B06DB0F002B95D0AC
:10195000531C0C68CB80A25C0280CA888B889A4298
:10196000ECD3828802239A438280828880239A4320
:1019700082804A69002A81D0888830BC10477C2345
:101980001B5A9B07DB0FE1E778E7000000100050CF
:101990001049FD0700110050F1B592B0634E644943
:1019A0000496088AB41C0C90892205200007028145
:1019B0000122604B52031A80028880231A4302805E
:1019C0000288920892000280088A0222104308824C
:1019D00000F077FB40F7F4FF40F7F8FF002069467E
:1019E00001E08888401C888088889128F9D3524873
:1019F00001880991418810915049CA880F920A893B
:101A00000E92C2880D92408B08904D4840880790F6
:101A10004888069000F05AF80025B0B22B4684465C
:101A2000484861464180FF21818001210180C188B1
:101A3000C907FCD10A460846049E275C365C7E40F6
:101A4000F607F60F8E401643491CC9B2F2B20829B8
:101A500005D112994A556D1C0021ADB20A46344F8A
:101A6000C82620373E801030FF2680B2B600B04234
:101A7000E2D95B1C9BB2022BD2D32D480C99018278
:101A80003149002008802C48099901801099418033
:101A90002A490F9ACA800E9A0A810D9AC280089A22
:101AA0004283274A079850800698488005200007FF
:101AB000028880218A43028013B0F0BD10B523480C
:101AC000FFF76AFF2148FFF797FA10BD08B51A49DA
:101AD000002008804880194A1D4BD380FF23D23351
:101AE0001381C880C3215180174A0821118069469B
:101AF000088003E06A461188491C118069460988FC
:101B00009129F7D36946088003E06A461188491C89
:101B10001180694609889129F7D3694601E0088850
:101B2000401C088008889128F9D308BD1001FC07E3
:101B3000E0300050000200400024005060280050B7
:101B4000002600500035005020200050E07AFC07AD
:101B500080800000818949084900818181890822AB
:101B600091438181704710B50C46034601202849F6
:101B700000050860BFF34F8FBFF36F8F002A02D0BC
:101B80001846FFF7E7FF58083821224A0840135843
:101B9000002B03D08018406821469847142000F09D
:101BA0002CF810BD70B51C4E7488002520E01A4931
:101BB000280180394018E10717D08189090609D426
:101BC0000189491C8AB24189491C89B28A4201D1E2
:101BD000012200E0002241064B0F01219940B18013
:101BE0000189491C89B2FFF7BEFF6D1CEDB2640884
:101BF000002C01D0042DDAD370BD002806DBC1060D
:101C0000C90E0120884002498039086070470000F1
:101C100080E100E05049FD0780360050024800682E
:101C2000002800D0004770477049FD07F8B501262D
:101C3000B607B56B2846FFF75FF8984C216947183F
:101C400000202061964938465CF7B6F9954948600E
:101C5000934A5043381A00D0101A80B20860306B93
:101C600008218843084330638F4805608F48006827
:101C7000002810D0A8420ED28D49097800290AD137
:101C80006168281A4018E168821D8A4201D2801DCD
:101C900000E008466060F8BDF8B5FFF750FA00268E
:101CA0008348052706700425824C35E021880420EE
:101CB00089088900891C2180608020882843208031
:101CC000FFF732FA00E000BF20884007FBD4FFF79F
:101CD00036FAE088A18800040818774940180528DA
:101CE0006E480ED24188491C89B24180142918D30C
:101CF0004680416882684B1E934200D91A46426072
:101D00000FE046804168C3688A1C9A4200D213469D
:101D1000436067480121017038467F1EFFB20028EA
:101D2000C4D1052000074189890708D04189890865
:101D30008900418161494A88520852004A800189DC
:101D4000802211430181018AA9430182818A890786
:101D5000FCD500F0C3F8012080070169490700D5D0
:101D600000BE01694907FCD5F8BDF8B50526360760
:101D70007089800720D0B08A400701D502F013F89F
:101D80004E4D28888027384328804A4CFF206080A9
:101D900004202080FFF7C8F97D21C900E088A288CF
:101DA000000410188842F9D9052020804448008892
:101DB00070802888B8432880424801894907FCD4AC
:101DC000FFF76AFFF8BDF8B5344E0127BD072C694F
:101DD000002C62D0200603D58020A8614AF7B3FF0B
:101DE000A00703D50220A86146F773FF200706D598
:101DF0000820A861002046F72CFF04203070E00581
:101E000005D5FF200130A861012046F722FFA0057B
:101E100004D501204002A8614AF7FEFF600603D501
:101E20004020A86146F710FFE00603D51020A86106
:101E300045F745FB600721D50420A86121480189A9
:101E40004908490001815AF72BFB40F735FC002077
:101E500030701A484089800510D5707800280DD15F
:101E6000194877700088C00708D10120FFF701FBEF
:101E70008B218900884201D902207070E00706D0CA
:101E80000120A8615AF728FB4AF75DFF3770A006CA
:101E90009DD52020A86100BE99E7F8BD7449FD07D3
:101EA00071020000400000409049FD078849FD078D
:101EB000F07AFC070016005061F8FFFF2000005088
:101EC0001448FD07003300500015005010B540F7CE
:101ED0002AFA654880686549486010BD10B540F72A
:101EE0004EFA624860494068886010BDF8B5002627
:101EF00000F0B5F800270090FEF706FE5C4C0028C5
:101F000002D12079022801D100200090594800898F
:101F1000C00711D1FEF7F4FE00280DD159F717FCC8
:101F2000002809D0E0780126002805D00520000708
:101F3000808AC00701D004268FE0208800287DD148
:101F4000FEF7E2FD002806D14B48806A002802D047
:101F500000F085F80090FEF75BFEA17868465AF71E
:101F600001F9002879D00125AD072869400674D40D
:101F70003F48817868464BF73DF800286DD03F49CF
:101F800000200C683E490978022900D132343D49CD
:101F90000A78012A00D121340870E96B1220890ADD
:101FA00089020143E963E86B37490840A10208430D
:101FB000E863E86B3721C002C00A89050843E8637B
:101FC000324900980426884200D300BEC002642132
:101FD0005BF7F2FF002800D0401E244AC01E611C9F
:101FE0001060884200D1146021480079002801D097
:101FF000012100E00021106846F7D1FF2448C06AA3
:102000008047FEF794FE002802D0FFF78DF80127E5
:10201000154C286B0004C00FFBD02068C005FCD510
:1020200020688025A8432060002F01D0FFF787F8A3
:1020300010484189462906D2462200E00DE0154BA2
:10204000511A19604281FFF741FF20680006FCD554
:10205000052000070189A94301813046F8BD0E48DB
:102060000068806A70470000000200408849FD0750
:102070005877FD0700330050787EFD077849FD074B
:10208000B477FD077549FD07FF03E0FF40420F00ED
:10209000B47FFD078449FD075876FD07002070478F
:1020A0007047704770470020704701218907086B0F
:1020B0000722104308637047704740087038C0B269
:1020C000704740493E48086040493F484881404881
:1020D000418806229143891C41803E4A6321D18078
:1020E0003D493A4A0988603A11823C490988018091
:1020F0003B480078002802D03A49302008837047D6
:1021000000B58BB0384A4262384A8262384A42612E
:10211000384AC262384A0260384A0262384A42602B
:10212000384AC261274800214038426B1F231B04F4
:102130009A434313D218426333480268C3129A4346
:102140000260026803139A43026068464154491CC6
:10215000C9B22829FAD301462C4828220068403009
:102160005BF7A4FFFFF7ADFFFEF76CFD2849088081
:1021700003F046FD0BB000BD12484038416B1F22F2
:102180001204914342138918416300060168C9088B
:10219000C900016005200007018989088900491CE0
:1021A000018101890822114301811A484189890569
:1021B00004D50188782291430831018081E700002D
:1021C0004C05540780000040EBE6000060280050FA
:1021D00000260050002C00501C48FD071A48FD073F
:1021E0009449FD07002400509D20FC07A120FC0716
:1021F000A720FC07AB20FC07A320FC07B920FC07A5
:10220000A520FC07BB20FC07000200404C76FD0720
:102210001648FD0720000050FFB58FB000241F4670
:102220001B9E1A9D7E486946099413460884002A1D
:1022300005D0042219460AA85BF738FF02E0002007
:10224000C0430A900F980A99401C0B90C0B207E057
:102250000A460241D20701D0641CE4B2401CC0B25D
:10226000B842F5D3182044432018032159F792FBB4
:102270000446109801882180199961800F981421D3
:1022800048434119087902280DD0042830460CD063
:1022900040221043207109691022A01D5BF706FF40
:1022A0000B98C6B272E02671F5E72022F1E70A9892
:1022B0003041C00768D03046142148430D90401982
:1022C0000C900079022804D0042813D010283DD0A7
:1022D00056E0182102A85BF702FF0D9828580178F4
:1022E000684601720D9828584178684641720C98EA
:1022F00080681CE0182102A85BF7F1FE0D982858B1
:102300000178684601720D982858417868464172F4
:102310000D9828588178684681720D982858C178A0
:102320006846C1720C9801218068890408430690B0
:102330000C98818968468183182109980A46484388
:10234000001902A918305BF7B1FE19E00D981822A8
:1023500029580998504300190490102218305BF74F
:10236000A5FE0C9904988A680121C9040A43014614
:10237000283110465BF7D5FE0C9881890498818539
:102380000998401CC0B20990761CF6B2BE428ED3AA
:102390000998607120464DF776FD0390002838D1EA
:1023A000109821880180002009900B98C6B2BE4287
:1023B0002FD20A983041C00724D009981421401C1C
:1023C000C0B271430990481902908089000419D461
:1023D0000298C089002815D002980079022806D1F9
:1023E0006858022208A95BF785FE00280AD00298E7
:1023F0002288C18903690998101880B200224DF71C
:102400001CFE0390761CF6B2BE4202D2039800284E
:10241000CFD0204659F739FB039813B0F0BD000028
:102420000328000002468B880020022B01D00D20DB
:102430007047C988002A05D00029F9D00129F7D0B2
:10244000812070470029FCD00229F9D17047F0B5EE
:1024500089B004464DF768FD05460026384F14E064
:1024600005A920464DF77FFD002301AA07A905A86D
:1024700000964DF76BFE68468088B84203D1641C15
:10248000A0B209B0F0BD641EA4B2A888A04202D8D0
:10249000E888A042E4D20020F3E7F0B58BB0044610
:1024A0004DF742FD264F00260546FF371BE008A9E1
:1024B00020464DF758FD002301AA05A908A800965B
:1024C0004DF744FE68468088B84203D16946097DCD
:1024D000022911D01A49884203D16846007D02289A
:1024E00007D0641CA4B2A888A04202D8E888A04201
:1024F000DDD200200BB0F0BD2046FBE710B504464E
:10250000FD2000F036FE82790021A24202D98088A7
:10251000001981B2084610BD70B504460D46FD2075
:1025200000F027FE81888022A14206D88079081811
:10253000A04202D9601A28700022104670BD000027
:102540000328000030B503460120002103241A4669
:10255000CA40D20704D04D0022466D1CAA40104349
:10256000491CC9B20929F2D330BDFFB585B0054673
:102570000E981E460088FFF7E5FF049030461E21A6
:102580000840A98A4B4A00238030019100930292AF
:102590000390132304AA484906984EF72CF8070025
:1025A00027D10121202059F7F5F9044620215BF7B6
:1025B00096FD2C610698008820830E980088608321
:1025C000F00701D00120C003079908432080A88AA2
:1025D00060801420E8820120E88120461E30A86037
:1025E00036486860201D40F795FAA88A002159F7FF
:1025F00062FC384609B0F0BD70B5046905466068F4
:10260000002805D0201D40F78DFA59F73EFAF6E76D
:1026100000202861204659F738FA70BD704770478E
:102620002448E430704730B50446228B0920521C00
:1026300093B2648B00222546D540ED0706D05D1C81
:102640008D4201D1104630BD9B1C9BB2521CD2B2B0
:10265000092AF0D330BD10B50346008B5B8B401CBC
:1026600080B200221C46D440E40706D0914202D139
:10267000401C80B205E0801C80B2521C52B2092A74
:10268000F0DB092A00D1002010BD0246002080297D
:1026900001D98D207047062A06D0072A07D0082ABC
:1026A000F8D10729F5D170470829F2D170470629DA
:1026B000EFD37047A075FC070A180000AC76FC0742
:1026C000FFB581B00C46142000F053FD2178074679
:1026D000092935D2FFF7BFFF00282FD06178207875
:1026E000FFF7D3FF06002CD17D680DE02879217813
:1026F000884208D100222946381D40F783FA28462F
:1027000059F7C3F902E02D68002DEFD1607801215F
:10271000083059F73FF96178054608315BF7DFFC6F
:1027200020782871607868716278A11CA81D5BF719
:10273000BDFC2946381D40F711FA02E0822600E070
:10274000812602235248039A049959F731FA2178D5
:102750000170467059F745FA002005B0F0BDFFB58D
:1027600081B0002000900E46039859F7D6FB002850
:1027700002D001284CD04DE0142000F0FAFC0746AE
:102780003188FFF750FF05464248092D36D27C6854
:1027900003E02179A94203D02468002CF9D117E085
:1027A000002C15D06379039A9B1D049959F700FA00
:1027B0000546308828800020287160796880627919
:1027C000A11D681D5BF772FC284659F70AFA21E043
:1027D0003D770498010A7977384600F0E7FC014616
:1027E0002B480123401C039A59F7E2F9057059F769
:1027F000F8F90121039859F75EFB0BE00623039AD1
:10280000049959F7D5F93188018080210171DCE7FD
:10281000022000900098A0E7F8B517460D46104634
:1028200059F77BFB012831D1142000F0A2FC0446AB
:10283000017FFFF710FF0646217F2A781548914255
:1028400014D1617F6B7809023A4608319B1D59F714
:10285000AFF90446068000202071687860806A78AD
:10286000A91C601D5BF722FC204609E0617F06235E
:1028700009023A46083159F79BF906808021017117
:1028800059F7AFF90021384659F715FB0020F8BD7C
:1028900001140000140C0000FFB5064685B00027A7
:1028A0000121282059F776F8044628215BF717FC08
:1028B0000025346126E008981E210840B28A803045
:1028C0000390534B00216F460EC752480022411916
:1028D00004914B78405D0699FFF79EFC0746002D5A
:1028E00002D106980088A0804A480499405D497842
:1028F000091A0698008808180699002F088027D121
:102900006D1CEDB2444800788542D4D3434D2878FD
:10291000A0710898C00701D00120C003079908439F
:102920002080B08A6080FD20F0820120F081204666
:102930002430B0603A4870602046103040F7EAF822
:102940002988334800F0CDF8B08A002159F7B3FA4E
:10295000384609B0F0BD70B5046905462646103604
:102960002069002805D0304640F7DCF859F78DF88B
:10297000F6E700202861204659F787F870BDF3B5C7
:1029800081B00298082800D300BE0124204D254FB5
:10299000224E10E0204614214843411909790229AA
:1029A00008D128580088B84204D1E1B20022029828
:1029B00000F0B4F8641C30888442EBDBFEBDF7B550
:1029C00082B000690124124D164F144E009010E0A1
:1029D00020461421484341190979022908D1285871
:1029E0000088B84204D1E1B20022039800F096F8C2
:1029F000641C30888442EBDB0399009800F0CEFB26
:102A0000002159F758FA05B0F0BD0748704700009B
:102A10005878FC075278FC075478FC075678FC0776
:102A20000C77FC0702290000B476FC07F7B50746CF
:102A300082B00D46FD2000F09CFB0646046910E0C4
:102A40002079B8420CD16079A8420DD030460022DE
:102A50002146103040F7D6F8204659F716F805E021
:102A60002468002CECD101E0002C0ED1284608305F
:102A70000121009058F78EFF044600995BF72FFB69
:102A800030462146103040F769F8277165712A46B3
:102A9000A01D04995BF70AFB002005B0F0BD70B5DE
:102AA000064614460D46FD2000F063FB0369002C2A
:102AB00000D100BE002D0DD100BE0BE01879B04250
:102AC00007D158792880981D2060002B04D0002061
:102AD00070BD1B68002BF1D10020288020600A20E7
:102AE00070BDFEB5054600200E4600900124FE4F45
:102AF000019010E020461421484341190979022928
:102B000008D128580088B84204D1E0B26A460821AA
:102B1000FFF78CFF641CB442ECDBFEBD7FB51546AD
:102B20000E460446082800D300BE03AA02A9304678
:102B3000FFF7B5FF68460289002A00D100BE03995D
:102B4000002900D100BE5BF7B1FA68460555024680
:102B500001893046FFF76AFF7FBD7CB5FD2000F09C
:102B600008FB84680546002C00D100BE687B6A46DD
:102B700001A90C34FFF793FF68468088082800D02D
:102B800000BE0099287B08282DD2421C2A73627847
:102B9000002A0A5C02D0D207F4D001E09207F1D5F6
:102BA000A18808318BB2A968CA880102C12000013E
:102BB000083158F7FDFF06466078002801D0122042
:102BC00000E013203070A88861884018B080A08889
:102BD000F0803046A288A11D08305BF767FA3046C6
:102BE00058F7FFFF7CBD607800260028A868C288DF
:102BF000018907D00423BD4858F7DAFF61880180B6
:102C0000867007E0B9480623801C58F7D1FF618819
:102C10004180067158F7E5FFA86858F736FF002194
:102C20002846AE6000F0BAFA002159F744F97CBD9D
:102C300010B50878122801D0132801D1FFF78DFFB5
:102C4000002010BD10B50C46FD2000F092FA8088DF
:102C50006188A31D401880B2A18800224DF7EDF9CC
:102C6000002010BDF8B517460D46FD2000F081FA92
:102C7000044680886988401886B2384659F74DF96D
:102C8000012805D03046FFF708FC002802D002E0FA
:102C90000220F8BD00BE6946FFF73EFC002800D0C8
:102CA00000BE0121384659F706F90C3D0020A56009
:102CB0002073684600786073FFF74FFF0120F8BD6E
:102CC000F8B517460D46FD2000F053FA04468088FB
:102CD0006988401886B2384659F71FF9012805D08F
:102CE0003046FFF7DAFB002802D002E00220F8BDF0
:102CF00000BE6946FFF710FC002800D000BE01218D
:102D0000384659F7D8F80C3D0020A5602073684676
:102D100000786073FFF721FF0120F8BD70B51646FB
:102D20000C46104659F7F9F8002813D1FD2000F0A1
:102D300020FA05460623324608216D4858F738FF29
:102D4000A988628889180180A1884180A1790171D0
:102D500058F747FF002070BDFFB589B00F460B98AC
:102D600059F7DBF8002802D002200DB0F0BDFD209D
:102D700000F0FFF905900020694608720C9802A93E
:102D8000050A3888FFF7C8FB0024694606468C838D
:102D9000002825D1FD2000F0C9FF43686846007A6D
:102DA0001422014651430A1D9A5C022A27D1595820
:102DB0004D4A0988914222D1082D00D300BE04AAB1
:102DC00001A9FFF76CFE68468088002800D100BE8C
:102DD0000498002800D100BE405D69468883022423
:102DE0004348A31D001F0B9A0C9958F7E1FE0546B6
:102DF000388828802E716C80002E16D01AE0294663
:102E0000059800F0D3F9014638480423C01E0B9AF8
:102E100058F7CEFE05706946097A418058F7E1FE01
:102E200001210B9859F747F807E0224607A9681DCA
:102E30005BF73CF9284658F7D4FE002095E7FFB52C
:102E400085B00C46FD2000F094F9039000276846F9
:102E5000077008986946060A2088FFF75DFB05465B
:102E60006088002800D000BE002D71D1FD2000F048
:102E70005DFF694609781423594342680B1DD35CF2
:102E8000022B21D15158184A098891421CD101972F
:102E900002972088FFF7DBFA002800D100BE01ABC3
:102EA000002204A94DF7E5FA049821468005C00FD9
:102EB000FFF7B8FA05062D0E4AD168460178E28878
:102EC0003046FFF72BFE28E000280BD080698446AF
:102ED000002807D06846A2886188A31D007865464F
:102EE000A8470546019705E00229000007FD0000FC
:102EF000180C00000297208801A94DF734F8002D26
:102F000026D101980089C00B07D16288A18820884A
:102F1000A31D4DF792F8051E1AD13146039800F013
:102F200045F90146A088079A801D83B23E4858F7AC
:102F30003FFE0746A288A11D801D5BF7B7F86846D3
:102F400000787880A088B8803E70384658F749FEEF
:102F500004233648079A089958F72AFE21880180E9
:102F6000857058F73EFE002009B0F0BDF8B51D464B
:102F700017460E46104658F7D0FF002815D1FD2001
:102F800000F0F7F80446284804233A461946C01CC6
:102F900058F70EFE290A0170082900D300BE3188B7
:102FA000A288891A418058F71CFE0020F8BD70B530
:102FB00016460C46104658F7B0FF012819D11B4899
:102FC000A179801E002916D02178062309023246F5
:102FD000083158F7EDFD0546A078FFF78FFA2880F5
:102FE00080202871284658F7FCFD0021304658F70C
:102FF00062FF002070BDA1883246891D8BB2217806
:103000000902083158F7D4FD0546A078FFF776FA93
:10301000288000202871A0886880A288E11D681D92
:103020005BF744F8DEE700000AFD0000160C000024
:10303000F8B50025804EFF27002818D0002418205E
:1030400060438719F88A00F0E9F8002802D0416847
:1030500038468847FF20F8827D60BD60FD81387D5D
:1030600058F76EFF641CE4B2202CE8D3F8BD0024AE
:103070002046182148438119224610320D618A8268
:10308000CF824D608D60CD818D813550087D58F7A0
:10309000E0FE641CE4B2202CEAD3F8BDF3B505468B
:1030A00081B00026408800F0B9F801000AD0624FD4
:1030B0006A88002018234343DB19DB8A934203D13B
:1030C000422628E0402626E0401CC0B22028F1D34A
:1030D000002418206043C019C08AFF2806D0641C51
:1030E000E4B2202CF5D3202C14D014E0284608306C
:1030F000009018206043C0190E686B78AA880746B4
:10310000A91DB0470600EED16888F8820298B98AF6
:103110000180E8E74B263046FEBDF8B5464E07462F
:103120000024182060438519E88A00F077F8002809
:1031300003D08268394628469047641CE4B2202CAC
:10314000EFD3F8BDF3B53C4E81B00F4600241820F4
:1031500060438519E88A00F061F8002804D0C3684C
:103160003A46284601999847641CE4B2202CEED3D5
:10317000FEBD034610B500202F4A014618244C43DB
:10318000A418E48A9C4204D118204143881800699D
:1031900010BD491CC9B22029F0D310BD428850048B
:1031A000400CD20B01D0090208437047028850043A
:1031B000400CD20B01D009020843704730B5FF2103
:1031C000020AC4B21C4B002018254543ED18AD8AF5
:1031D000A54204D118214843C018C18A03E0401C0D
:1031E000C0B22028F0D31002084330BD30B5FF2113
:1031F000020AC4B2104B002018254543ED18ED8A91
:10320000A54204D118214843C018818A03E0401C1C
:10321000C0B22028F0D31002084330BD014610B5DB
:103220000020C9B2142904D0FD2901D1FFF7EDFB1C
:1032300010BDFFF7F5F910BD9849FD0710B500F076
:10324000A3FB00F01DFA0020FDF752FC10BD0C217D
:10325000254A10B5414389188978FF2902D000F02A
:10326000B2F810BD00F02AFE10BD10B500F0A2F8B3
:10327000002801D000F022FE10BD10B500F01EFEA7
:1032800010BD10B519490A780270401C491C5AF744
:103290000DFF10BD1549498C018070470821018040
:1032A00010214180002181807D21C180704770B54F
:1032B0000C46017800250D4B002904D0012909D0C6
:1032C0004820207070BD8278011D1A70581C5AF772
:1032D000EDFE01E040885884257070BD0120087023
:1032E0000020488088807047B04CFD07D04CFD0717
:1032F0000021F44A05E0834201D101207047491CB6
:10330000C9B20C234B43D35CFF2BF4D10020704790
:1033100070B5EC49EC4C0E460C36EC4D0DE05218F5
:103320005268002A07D0C2B20C235A435118496888
:10333000401C60702DE0401C607060780C2242439D
:103340008B5CFF2BEBD10AE089194968002903D077
:10335000FFF7CEFF002809D02078401C207021788C
:103360000C204143705CFF28EED117E020780C213F
:10337000414389194968401C20700AE04919C9680D
:10338000002909D0C1B21C2251434919C968401C07
:10339000A0708847002070BD401CA070A0781C2140
:1033A00041436A5CFF2AE9D10020A0706070207060
:1033B000012070BD10B50121042058F77CFDFFF7F6
:1033C000A7FF10BDA4E7F8B505460024BD4E0AE0EE
:1033D00080198168002904D0641CE4B2284688471B
:1033E00001E0641CE4B220460C214843315CFF2913
:1033F000EED1B44E00240C3609E08F19B9680029CB
:1034000003D0FFF775FF002809D0641CE4B20C213B
:103410006143705CFF28F0D10024AC4E10E0641CC6
:10342000B968E4B228468847F1E7801901690029A4
:1034300004D0641CE4B22846884701E0641CE4B26E
:1034400020461C214843315CFF29EED1F8BDF8B578
:103450009D4DE868002835D15223042209219C485B
:1034600058F7A6FB0446E8600D2020700026667021
:103470009848A080E08007202072A6720120607228
:103480001620E072024620460C3093A107465AF7F8
:103490000DFEE8682B210E54C07A21462C310930EC
:1034A0001F2806D8E07A0421C219204690A30B30C9
:1034B00006E02B20005D8EA34218204604212B300D
:1034C00000F0EDF8E868F8BDFFB5074680481E46F5
:1034D0000D4681B0412304220921401C58F768FBA6
:1034E00004461020207065702A463946A01C5AF701
:1034F000DDFD2120065520463246223003995AF739
:10350000D5FD204658F76DFB05B0F0BD70B56E4E89
:1035100004468500361D7059002816D121020E235D
:10352000042275480A3158F743FB09210170002C29
:1035300000D000BE705110218180082141800021FF
:10354000C1807D22028141818181705970BD70B539
:103550005D4EB068002827D15D482C230422092144
:10356000093858F725FB032101700A21B06041702A
:1035700017210184002585760446458010210A30F4
:103580005AF7ADFD2021E176A583E5835B4965848B
:10359000488FFB22FB2800D91046E0845848898FC9
:1035A000814200D808462085B06870BD3EB5002530
:1035B0004449009501950C223431684602955AF72A
:1035C00075FD41480C22183069465AF76FFD3E4C94
:1035D00004223834227046A1601C5AF767FD39492D
:1035E00065842431042058F734FC0021042058F766
:1035F00062FC3EBD70B50D4601023F4814462C23C7
:1036000004220C380A3158F7D3FA014620310D72E2
:103610004C7258F7E6FA70BD19E710B5FFF717FFBF
:1036200058F7DFFA28490020C8600221042058F723
:1036300042FC10BD10B50446FFF768FF58F7D1FAF9
:10364000214A0020A100121D505010BD10B5FFF7F7
:103650007EFF58F7C6FA1C490020886010BD1A4A40
:10366000002124324B00D35C834203D148008018F0
:1036700040787047491CC9B20A29F3D30420704727
:10368000114910B50020FF232431042442008B543B
:103690005218401CC0B254700A28F7D310BD70B540
:1036A0000646481C1070092015460C4650702246EC
:1036B0001946A81C5AF7FAFC3078A41C001930707F
:1036C00070BD00002477FC07984CFD07F477FC07D9
:1036D0000D0D00004C04000003030A181107595A8D
:1036E00008E4862A9E8FE911BC7C984342180000AA
:1036F00044696365000000000E0E0000A479FD0718
:103700004808000010B5104658F707FC002802D002
:1037100000BE002010BD012304220921964858F75D
:1037200047FA0121017058F75CFAF2E710B50C78FE
:103730000E2C13D008DC012C12D0032C16D00C2C2C
:103740000CD00D2C08D119E00F2C07D0112C05D06E
:10375000122C03D0132C01D000F0FDFB002010BD73
:103760004878002805D1FFF771FFF7E7487800286F
:1037700001D000BEF2E7FFF778FDEFE7487800F0F0
:10378000D8FBEBE7F8B51C4610460E4658F7C5FBCC
:10379000022802D000BE0020F8BD240A00D000BEDE
:1037A0000C202746474375483D18AC70FF2C15D0B8
:1037B0000121E9700321042058F77DFB6F4831880F
:1037C000C153707A28713146681D06220A315AF7B2
:1037D0006DFC012200212046FFF70CFF31462046F8
:1037E00000F080FBD7E770B50D784C78092D04D038
:1037F000002C00D000BE00F0AEFB002070BD70B504
:103800001D4610460C4658F788FB2A0A032802D0AA
:1038100000BE002070BD0C2042435848FF21101804
:1038200081700021C170204600F087FBF1E7F0B500
:1038300008780025524C89B01F461646002804D04F
:10384000012817D0022827D129E06846FFF719FD83
:10385000684603783246394620460A3358F7A8F9B5
:103860000446057068460278411C6280201D5AF7A4
:103870001DFC2BE069460D806846FFF70BFD0A230F
:1038800032463946204658F793F9012101706946BE
:103890000988418058F7A5F9002009B0F0BD0A2336
:1038A0003946204658F784F904466846FFF7F6FC87
:1038B0000220207068460088608068464088A080AA
:1038C00068468088E0806846C08820812046E1E71D
:1038D0000020704738B50C464820694608701D0A1C
:1038E0002046FFF7E4FC2648290202230422801C1C
:1038F0000A3158F75DF969460978417021780170FD
:1039000058F76FF9002038BD10B5104658F705FB81
:10391000012809D1FFF756FD002805D00221042017
:1039200058F7C9FAFFF7A9FC002010BD70B518467A
:103930000D460146E1200623000158F739F90446F7
:1039400001462846FFF7CAFC204658F74AF90020EE
:1039500070BD002070470020704700207047FEB502
:103960001C46089B0D26074D6F4668C71346224626
:1039700000F0B5F8FEBD0000020D0000B04CFD07E0
:103980000B0E00006477FC07704710B50A23042271
:1039900009210B4858F70CF904461B20207014200D
:1039A000FFF75DFE6070142060800420A08000207E
:1039B000E080FF2174312181204658F712F910BDB3
:1039C0001B0D0000F8B50E46097818460024254660
:1039D0000B005AF7BFFB090609120915150C180F41
:1039E0001B000B241AA512E007241CA50FE00824D5
:1039F0001CA50CE007241EA509E00A241EA506E06C
:103A00000D2420A503E0062422A500E000BEA31C8F
:103A10000146224858F7CCF80746307838707C7059
:103A2000002C04D022462946B81C5AF73FFB3846E2
:103A300058F7D7F80020F8BDFEB51C46089B0126B4
:103A4000174D6F4668C71346224600F048F8FEBD82
:103A50004469616C6F672053656D6900444131347E
:103A600035383500123456FFFE9ABCDE00000000E7
:103A700001D2008005000100312E302E302E302D75
:103A80004C450000765F362E302E31362E313134E3
:103A900034000000FFEEDDCCBBAA000003140000E0
:103AA000DC77FC07FFB583B01E4E002401AFA000F9
:103AB0003558002D00D100BE009703A80FC8A847B5
:103AC000002809D0641C042CF1D303AC0FCC00F007
:103AD00042FA002007B0F0BD68460079FAE7F8B571
:103AE000089C9C46079D0346002C19D0641E17D4E1
:103AF0000D4FE600AE5B9E4201D0BE420ED1E30008
:103B00005B195C68002C00D100BE002C08D0134665
:103B10006246A047069908700020F8BD641EE8D5EB
:103B20000120F8BDE477FC07FFFF00000520000737
:103B30000089000608D501208007006B000403D42B
:103B400003480078C00701D000207047012070476B
:103B50005877FD077047704770B50D460446FFF76C
:103B6000E5FF002806D06B482A460421201858F7A4
:103B700071FA70BDFCF7CBFF66480422082311469A
:103B8000801E58F715F84560047058F72AF870BD84
:103B9000F8B5614C069D06190024002E26D0012E92
:103BA0000CD05F4F5D4B3A46283A022E0AD05A4954
:103BB000C91E41180A2927D30120F8BD00F080F85A
:103BC000287039E00878461E092E0DD88000001FA5
:103BD000105898422FD1B0003B5813504A680878CB
:103BE0001146FFF7B9FF26E000BE24E04A68002A2C
:103BF00002D04C48824200D900BE0878454940189E
:103C0000042158F727FA16E04349891E4018C0B22C
:103C1000411E0929E8D88600B218803AD16F0029E0
:103C200009D0994207D0404B994204D0D467F21989
:103C3000803AD46788472C700020F8BD0A460100FE
:103C400010B5384801D0814200D900BE0020344B65
:103C5000283B84001C59002C04D0401C0A28F8DBA7
:103C6000002010BD84001A51401C0406240EF7D019
:103C70002046FFF771FF204610BD70B50446401E78
:103C800009281BD82648A10028380D18803DE86F68
:103C9000002813D0244EB04210D01E480421201812
:103CA00058F722FA1B48042208231146401EEE67EB
:103CB00057F77EFF047057F794FF70BD00BE70BDCC
:103CC00010B508780C46411E09291FD882001448F7
:103CD000121F28388258144B9A4205D100228900BD
:103CE00042502830425012E0890040580B49884227
:103CF0000DD1042208231146064857F759FF2178B1
:103D000001706168416057F76CFF00E000BE002061
:103D100010BD000003040000FFFBFFFF573BFC0742
:103D2000204DFD07FCFF3F00553BFC070021154AD5
:103D300006E0834203D11C20414388187047491C88
:103D40001C234B43D35CFF2BF3D10020704710B5ED
:103D50001823042209210C4857F72AFF04461B2088
:103D60002070FD20FFF77BFC6070FD206080042048
:103D7000A0800021E180E1602161A182204657F707
:103D800030FF10BDF477FC071B0D00003EB51D464B
:103D9000069B002400931346019402942A46FFF7E1
:103DA0009EFE3EBD704710B505242407208A0221DF
:103DB00088432082A08A0007FCD50C484188FF2256
:103DC00001321143418001F0ABFD09490820088010
:103DD00000F071FA00F009FB00F0F9FA00F0E4FAE3
:103DE000608A202188430843608210BD2000005073
:103DF0000033005010B518460C4601460823094808
:103E000057F7D6FE21780C225143074A8918897842
:103E1000017061884180002181800321817157F701
:103E2000E0FE10BD0EFD0000B04CFD0770B5794CF2
:103E3000E078000602D525462D3501E0754D0E359A
:103E400000F099F8E07873494006400E40190822C6
:103E5000891D5AF72BF96F4A63792D321046217963
:103E60001F38FFF731FB6C496C48FFF7E7FE6070C5
:103E700070BD10B5674C2078FFF7DCFB0020A07008
:103E800010BD70B5634C0025A5700721A01D017001
:103E9000FF214170CD218170AB21C1700421001D33
:103EA0005AF71DF9204616225DA10E305AF7FEF88A
:103EB000162020716571FFF7C1F970BD10B5564924
:103EC0005648FFF7BBFE5349487000F054F8FFF71F
:103ED000A3FB504901230822891D00F05AF8FFF77F
:103EE0009CFB10BD70B50C4605460C20524968433A
:103EF00040188078FF2815D0464E35707078FFF74F
:103F0000BCFE60880838092805D2A088002802D1A4
:103F1000E0887D2808D07D204849C000FFF78EFE4C
:103F2000B07001E0FFF7CAFF21462846FFF78FF97E
:103F300070BD442800D1C1E7704710B5354CA0785A
:103F4000002803D0FFF799FE0020A07000F013F8BE
:103F5000FFF7B4FF10BD10B5394C041904D0032C81
:103F600001D1FFF747FF10BD084649880229FAD161
:103F700000F0AEF810BD10B500F02EF9254C00236E
:103F8000A41D30A20421201D02F08CFAC01C207058
:103F900010BDFEB517460446002B01D01C2000E0E2
:103FA0001F20E27A2546831A20460C3001902030EB
:103FB000184E20350090BB4209DB019810183A4694
:103FC0005AF774F8E07AC019E07208380FE0E87A1E
:103FD0001F22121ABA420CDB009A80183A465AF78E
:103FE00065F8E87A8021C019E87208380843F07053
:103FF00000E000BEE27A074832710E3001995AF7AC
:1040000055F8EA7A034872712D3000995AF74EF844
:10401000FEBD0000484DFD072D3EFC07B80B00001B
:1040200003030A181107595A08E4862A9E8FE911DA
:10403000BC7C984342180000B04CFD07733EFC075F
:10404000F602FFFF25640000F0B595B018223F4945
:104050000EA85AF72BF800F0BFF83D4EB06802F0FA
:1040600013F807460091706802F00EF804460D46FA
:10407000306802F009F80B4600990246059168463F
:10408000BCC034A2202106A802F00CFAC5B2FD2063
:104090003EF7D5FB014626230422334857F788FD17
:1040A0000446002020700120607002206080A580FE
:1040B0002A4606A9A01D59F7F9FF204657F791FD9A
:1040C0002A491E20FFF7BAFD2949488015B0F0BDE6
:1040D000F8B505468088264E00280ED0A8794528D8
:1040E00007D10107488A012280088000D2031043CB
:1040F0004882A888012800D1307000203070044622
:1041000015E028198179027A64233039594352180D
:10411000C0790A214843174940181718032120463F
:1041200059F74AFF1249091DE41C0F54E4B2A8884C
:10413000A042E6D8FFF788FF7088002804D10B4919
:104140001E20FFF77BFD7080F8BD0000A878FC07FB
:10415000C04DFD0728252E30662C252E30662C25D7
:104160002E3066290000000006FD00004940FC07D3
:10417000944DFD07F1FDFFFFF8B50F461D461646AD
:104180000446002100F0AAF8002807D1A019401E1B
:10419000C0B2002100F0A2F8002802D073482880A5
:1041A000F8BD68460470724C208AC007C00FFBD16E
:1041B00001232A4619466846FDF780FA2888002818
:1041C000EED1208AC007C00FFBD101232A46314619
:1041D0003846FDF7A2FAF8BDF0B585B003AB06226C
:1041E00069462820FFF7C8FF684646880788808808
:1041F0000290002E21D0304601F038FF04460D46D3
:10420000384601F033FF22462B4602F087FF01F0CB
:104210004FFF01F039FF574A574B01F0A8FE01F05C
:1042200047FF5649564C574D884208DB01F02CFF9A
:1042300022462B4601F09BFE0AE00020E9E75249A6
:10424000884207D901F020FF22462B4601F0EAFD03
:1042500001F02EFF01F018FF4C4A4D4B01F096FE85
:1042600001F026FF4B4C64212060304659F7A4FE34
:1042700001F0F4FE60606421029859F79DFE01F0A0
:10428000EDFEA06005B0F0BD10B5434801780129EE
:1042900004D0012101704148FDF7AAF910BD10B505
:1042A0003D480178002905D0002101703B481038B5
:1042B000FDF79EF910BD10B500F019F810BD08B556
:1042C0006B4618702A485970018AC907C90FFBD17B
:1042D000012302216846FDF7F1F908BD001F3428CB
:1042E00003D3002901D00120704700207047F8B5A2
:1042F0002B4B0026186BF643002801D0304600E017
:104300000120C117820B89041143820418632548D8
:10431000046845682243294302604160596B0029C3
:1043200000D10126F117720BC9045E6311430468C2
:10433000F20443682243194302604160FF250024D0
:10434000013509232A46032101200094FCF7B2FF1E
:104350000A232A46022101200094FCF7ABFF0E48F5
:1043600004700E481038FDF743F9F8BD01800000D5
:104370006013005073874AC1FB2AC3BFDB0F49405B
:10438000EA2E4454FB211940DB0F49C0E5BF631AF4
:10439000DCA54C40C04DFD07BE4DFD07D078FC07A5
:1043A0005048FD074848FD0708B5FFF778FFC021D2
:1043B0006A461020FFF783FF6A4600211120FFF7AD
:1043C0007EFF3A216A461E20FFF779FF08BD08B537
:1043D000FFF765FF38216A461F20FFF770FFC021F5
:1043E0006A462020FFF76BFF08BD38B5FFF74CFF8A
:1043F0007C216A462020FFF762FF00216A462120C7
:10440000FFF75DFF00246A4621462220FFF757FF91
:104410000C216A462320FFF752FF6A4621462420DA
:10442000FFF74DFF38BD000070B50E460446002270
:1044300003214DF790FA05464EF75CFC688028464C
:104440004DF79AFA4EF756FC7188884200D3084619
:10445000014620464DF777FB002070BD0246FF4B1A
:1044600092009A580120126900290ED0517F5E23D4
:104470009B5C002B0BD0052906D1517E090702D584
:10448000917C090700D400207047917DEFE7022955
:10449000F9D00429F7D00529F6D10020EDE702462E
:1044A00030B59300ED4A0120D2581269137DD47EB5
:1044B000157F2340547D2C40012901D0022909D1C8
:1044C000957C527E15402A0704D41A462243D2070F
:1044D00000D10020032901D0042904D1590702D4B6
:1044E000610700D4002030BDF8B514460D461046D3
:1044F00057F713FD240A002830D0D949A2008B5861
:1045000001271E8BBF023E431E83132826D014288A
:1045100024D0152811D088582D210A5C0123D106FA
:1045200000290CDA0146A0318E7D002E07D08B7554
:104530003D21204641F75EFF10E00220F8BD110743
:1045400003D50021A0308175F7E7A03083752046A0
:104550003FF74AFC294620463FF789FC0020F8BD7A
:10456000FFB581B01546170A104657F7D6FC00284C
:1045700038D0132836D0142834D0290A8C00B84EED
:10458000152815D0FF202946033057F7ADFD3059C7
:104590002D21095CC90603D5A030C07D00280ED0AE
:1045A0003D026D1CA8B257F7B8FC19280CD00FE0DB
:1045B00030590121A030C175022005B0F0BD3D2168
:1045C000384641F717FF0DE0A8B2012157F773FCF9
:1045D00030590122018B52029143018338460299DE
:1045E0003FF745FC0020E8E7F0B59D498700C95931
:1045F000002680314A8C8B8C1B2A00D21B228C8B8C
:10460000944200D222468A849A4200D001260B8C22
:10461000CD8C1B2B00D21B23CC8B9C4200D223467B
:10462000CB84AB4200D001260B8ECD8D9C46FF2360
:1046300049339D4201D21C4600E02C460D8DA54217
:1046400000D325460D86654500D001264C8EA44634
:104650008C8D9C4200D21C464B8DA34200D21C463E
:104660004C86644500D00126EB080B3B9BB29A4276
:1046700000D213468B86522379495843794BCA5945
:104680001C6880320419D28C8034E285C9591A68BA
:1046900080318018498E803001863046F0BD10B5DB
:1046A00004467148008D8007800F012800D000204B
:1046B0006071002807D053F799FF01460622A01D1C
:1046C00059F7F4FC10BD06226849A01DF8E770B543
:1046D000054600243EF74FF92855641C082CF9DBE9
:1046E00070BDF8B5022707700126044646700D46D6
:1046F00088795F49C96988472A21085528790021A6
:104700000007000FA070030059F724FD07050709F3
:10471000100D100B1000A1700AE0A67026E0032017
:1047200002E0A77004E00420A07001E001281DD081
:10473000A888000A801FC0B2A0721F2800D9A172E9
:1047400028463EF7CDF9811D2046A27A0B3059F755
:10475000ADFC28463EF7C4F901460622201D59F754
:10476000A5FC28794006C00FE070F8BDA172F0E703
:10477000F7B544688CB025462435039505460746B1
:10478000243548F7C1FA06464420405B522148438D
:10479000344909684018C0304089694608840121BD
:1047A000384643F7F0F948F724F909900E98006964
:1047B0008088000AC1002F480818298940182D490F
:1047C0005B3159F7F9FB01466868039D471840358E
:1047D000288906900090A0680099381A4001400985
:1047E00059F7EAFB0A910098C019401A40014009A4
:1047F0006946A060098C4900C919891C4901490909
:10480000884204D20699401840014009A060014640
:104810000998081A400118494009884215D9002012
:104820002B89A268401CD21852015209A260EA8961
:10483000521CEA81A368099A9A1A520152098A42C3
:10484000EED801B20D9843F73FFAA1680998081A0B
:104850004201607D5209824221D80FE02C7EFD0783
:104860001879FD074C76FD074C7EFD07CF79FD07D3
:10487000B47FFD0716020000FFFFFF032A89891895
:1048800049014909A1602A890A99511A814206D928
:1048900001210D9843F718FAE889401CE88129891D
:1048A000A06859F789FBF1802889B080208A30817F
:1048B000A88870810020B081C807C00FB073A88895
:1048C000522148438E303082304648F728FA039808
:1048D000466320460FB0F0BDFFB5002093B00646FA
:1048E0000124FE4949680A7821460C2A0CD06A4600
:1048F000117300221192002E09D015990291169D74
:104900001F2D54D9402052E00024224611941399BF
:104910000291149DF4E7029989184978012905D07C
:10492000172903D0182901D0192912D1631E04E0D8
:1049300003AFFF5C8F4204D05B1E5BB2002BF7DA43
:1049400003E0002B01DB4A2003E003AB1955641C94
:10495000E4B20B0059F7FEFB1D26101010101010CA
:104960001010102626262626262626262626262629
:104970001010101010102600119B03E00BAFFF5C0D
:104980008F4204D05B1E5BB2002BF7DA03E0002BF2
:1049900001DB4A2006E0119F0BABD9551199491C48
:1049A000C9B211910299895C521C89188AB2AA4233
:1049B00001D20028AFD0AA4200D04A20761CF6B21D
:1049C000022E01D2002894D017B0F0BD10B50022FD
:1049D000134607E084186478012C07D0845C521CCD
:1049E000A21892B28A42F5D3184610BD8018837877
:1049F000FAE7F0B50646A9B0154600208400631812
:104A0000DA789F7812025B783A4352BA1B041A4351
:104A10000B5D07241B061A43231A9F0020AB401C82
:104A2000DA510828EAD300218A0090190746C37892
:104A300080781B02034378785BBA00040343B05CC0
:104A400010AA00060343601A800013503846223033
:104A5000437800781B0203433846203047785BBA1E
:104A60003F0400783B43000603430F27781A800079
:104A7000491C13500829D7D358F7ACF901463046E2
:104A800058F725FE00282DD058F7A4F9034620AA90
:104A900010A9684659F726FA00226846A11A8B0029
:104AA0009600C75C7119CF70C75A3F0A8F70C758FC
:104AB0003F0C4F70C35820311B0EAB550F239B1A70
:104AC0009B00C65CCE70C65A521C360A8E70C65801
:104AD000360C4E70C3581B0E0B70082ADED3002014
:104AE00029B0F0BD0120FBE7F7B5002517460646C3
:104AF00041232A4629460A2057F75AF80446002E31
:104B000010D0012E02D0022E0CD105E02022611C13
:104B100000203DF749FF04E0621C394601983DF74B
:104B2000F3FE2070204657F75CF82846FEBDF8B526
:104B30006B48009007680C46002F7BD005461C355B
:104B4000287E002876D0012802D0022872D102E007
:104B50002078002819D038896249002688423AD145
:104B6000072047F7C9FC002835D042233E22002108
:104B70005D4857F71DF8082101702178002913D0EE
:104B8000032141702178817043E055480226611C61
:104B900014302E762022044659F788FA22465349CB
:104BA00030463DF7BBFE45E0002146701F22531AF8
:104BB0001B1947185B78491CBB702029F7DB0021C3
:104BC0003F22531A47181B1920375B78491CBB70CA
:104BD0002029F6DB1DE043493889491C88421AD157
:104BE000082047F789FC002815D022233E22002107
:104BF0003D4856F7DDFF09210170217800291BD0BF
:104C0000122141700021FF224318491C9A7020296B
:104C1000FADB49F77DFF2E76402057F74CFC0098D1
:104C20003DF780FF57F707F800980068002801D08B
:104C30003DF76FFE0020F8BD002146701F22531A79
:104C40001B1947185B78491CBB702029F7DBE0E78C
:104C500070B5087800250C46012809D01D2810D011
:104C60002B2812D04022194651F762FF284670BD0A
:104C700057F70BFB1948012504601D4853F7EBFA61
:104C8000F4E71C483DF7AEFDF0E71B48016800293A
:104C9000ECD10121016019483DF7AAFEE6E770B5A5
:104CA000104D174C223DAB422ED10F4809232A4606
:104CB0000021C01E56F77CFF044608221149401C03
:104CC00059F7F4F92079082108432071002525704F
:104CD000204649F71DFF284670BD00004C7EFD07A9
:104CE000287AFD07252000000408000089E7F10765
:104CF000030C0000C3C3C3C35077FD07CC7DFD0781
:104D00000DC3F0075CE5F107A047E5E7F1B584B016
:104D10000498FF4980000C5804980502A81D0290D1
:104D2000002C15D06068818804290CD34188861D29
:104D30000C38009101903146049854F762F8F54917
:104D4000884206D160680C3856F775FF0020606015
:104D500033E4F178B2780F02019928431743C880F1
:104D6000384640383F2819D803223946049850F76E
:104D7000CFF80600E6D0B07B0128E3D13420B07331
:104D800029460A310423E448029A56F711FFB189F3
:104D900041801021017056F724FFD3E76168342069
:104DA00008700221009856F7F5FD05463146009A35
:104DB00059F77CF968782978000208436168C8804F
:104DC000E878A978000208436168062F08810BD0B3
:104DD000042F09D06068052F10D00C3856F72BFF30
:104DE000284656F752FEB1E760688188052913D33B
:104DF000297981726168287988720DE08188052996
:104E00000AD32979817261682879887260688188FB
:104E1000062901D36979C172606856F7E2FEDFE7BF
:104E2000FFB587B00E46099857F777F80999090A30
:104E30000391002876D08800B54905900D58B749F0
:104E4000B079096B0A225043B47808183DF748FE40
:104E500001906868002808D0012C2DD00398FFF736
:104E600055FF6868002802D026E0022C5AD1B0888D
:104E70000127022805D30198417800780C020443E9
:104E800002E04DF737FF04464DF734FFA04201D250
:104E90000224002720464C3083B29E49A048099A3C
:104EA00056F786FE241D68604480002F01D0002044
:104EB00000E034206968087068680028BAD0811D55
:104EC0000091B2880199841C071D01928088238873
:104ED00082189A4209D8009A8018019A59F7E6F880
:104EE000398801980818388009E01A1A009BC01800
:104EF00059F7DCF8208838806968342008703888D1
:104F000004280FD3009841780278080210432188C2
:104F1000001D884207D280B220803988814207D99B
:104F2000388002E068E0884202D96968342008705D
:104F30003888218888425FD1686800990C380190D0
:104F4000039853F75EFF69680978002951D17149C8
:104F500088424ED003990F0201993843C8802088B7
:104F60000221019056F716FD04902288009959F706
:104F70009DF8049800283FD0696800208880019837
:104F800002226B46039907C36868049B821C011DBB
:104F9000801D3DF77FFC69680870049856F775FD21
:104FA00068684188002902D00178002954D001891D
:104FB00040393F2944D8017830291ED00146544A4F
:104FC00005980C39105808303DF7C8FD69680398FA
:104FD000891D3DF770FC4628686801891FD00322AF
:104FE00003984FF795FF00282CD0808A00282CD0FA
:104FF00028E00398FFF78AFE42E04A49098D090636
:10500000C90F07D048490C380968099A898D89B2B7
:1050100056F704FE68680C3856F70DFE12E00322BE
:1050200003984FF775FF04000CD039460A3104236A
:105030003948099A56F7BCFDA189418010210170B9
:1050400056F7CFFD002068601AE0686800220189E9
:1050500003983DF72BFCF5E70189084640383F28C7
:105060000ED8032203984FF753FF002808D0808AF8
:10507000002805D168680022018903983DF716FCD5
:10508000B0793DF720FD00200BB0F0BDFFB58BB02F
:10509000064616980027022821D00D9801881498FA
:1050A00081427DD37188084640383F2802D8159840
:1050B0004FF76FFF0C98361D0088149A80190E99CF
:1050C00058F7F4FF0C980188149808180C99088078
:1050D0000D9801881498081A0D99088069E100203C
:1050E0000E9D079069782C78090221433180E97878
:1050F000AC780902214371808C46403904242D1D6F
:10510000024603468E46402900D3287861460DE0CA
:10511000AC7DFD07FFFF0000260E0000E078FD07D4
:10512000010A00004C7EFD075876FD0704291FD0B8
:10513000052914D0062918D070463F283ED8159866
:105140004FF727FF0006000E04D0FC48008D000634
:10515000C00F31D002230120F94A002712E06978FC
:1051600000290FD0F74A17230CE0F74A0F2309E074
:10517000522802D0D22802D002E0142000E01520EC
:10518000F24A1F23002A7DD098427BD2800010581B
:1051900004900028F7D0002008900590708800E067
:1051A00006E14038402803D32878052430716D1C6F
:1051B000701D00900498AFE03027EDE03327EBE05E
:1051C000522864D00CDC4B283FD004DC41286AD044
:1051D00042285AD111E04C2820D0502855D140E027
:1051E000632830D004DC572818D061284DD19BE0CB
:1051F0006C2864D0772848D109E00098297801709C
:105200000098641C401CA4B26D1C009081E00498BE
:10521000401C04900178089881427AD10098A41C1F
:10522000401C41084900881C009068782A780002D8
:10523000104308800599AD1CA4B2002969D00890DC
:105240000020059065E00120FBE710222946009828
:1052500058F72CFF009810341030A4B2103500908D
:1052600057E0204640301499039088420DD84022E0
:105270002946009858F71AFF00984030009003988C
:1052800084B200E079E0403543E0342741E0082271
:105290002946009858F70AFF009808340830A4B24D
:1052A0000835009035E006222946009858F7FEFEA2
:1052B0000098A41D801DA4B2AD1D009029E0149893
:1052C000001B80B203903088001B001D81B20120BA
:1052D00007900498401C04900098401C400840002F
:1052E00000900498007857281CD04228CDD100980F
:1052F0000170090A417000982946801C0090039AA9
:1053000058F7D4FE03980399201884B200984018E7
:1053100000900498401C04900078002820D0002FB2
:1053200019D01DE04908E2E71498001B80B20390F1
:105330000098039A401C4108490001200091079001
:105340002946009858F7B2FE03980099201884B2B5
:1053500003980818DCE70D990988A14200D32FE7CC
:105360000D980088A04208D304990978002904D137
:105370000799002903D1A04201D034270CE00D99F0
:10538000001B08800C9801880098801B001F0818DB
:105390000C99002F08800CD07088042809D00628AA
:1053A00007D04038402804D30E984079707100E04F
:1053B000342738460FB0F0BDFFB581B01F46164602
:1053C0000C46104656F7A9FD00253F2802D021893A
:1053D000062908D03B4632462146019850F765F928
:1053E00005462846B4E4000701D50225F9E72078F0
:1053F0000028F6D1300AA11D3DF767F9F1E7F3B5B2
:1054000081B00198524C850060590F464068CE88A3
:1054100001462431009142F789FF00994D4A4031FD
:105420000091C989701A80B2904214D2B14212D050
:1054300060593146406842F732F860590522791CBC
:105440001F3058F733FE019805210002401C80B23E
:1054500056F731FDFEBD60590522791C1F3058F703
:1054600025FE009880883EF70DF8FEBDF8B53A4C51
:10547000064685000F4660594821095C24290ED153
:1054800000691022791D2E3058F710FE6159252031
:10549000403108720022114630464EF7DFFE605957
:1054A0004821095C0C291FD100691022791D2E307A
:1054B00058F7FCFD60595F210069095C09072DD48C
:1054C00001462E3110221E3058F714FE00280CD051
:1054D000605909214030017230464FF7DDFB01462B
:1054E000002230464EF745FAF8BD042168460170A7
:1054F0006A46052130464EF7E7FB68460178602092
:1055000001436846017030464FF7C6FB01466846C6
:105510000278012330464EF741FBF8BD30464FF785
:10552000BBFB01281AD060590721403001720022CC
:10553000114630464EF792FEF8BD00004C7EFD0746
:1055400014F3F1071CF3F10778F3F107B4F3F10753
:105550001879FD07FF7F00002C7EFD0761590020B0
:105560000969C031887160590421026930461E32D0
:105570004EF7AAFB605901694031897F002907D0A5
:105580001A2140300172002130464EF7F1FED3E778
:105590001B214030017230464EF73FFFCCE7F8B593
:1055A000EC4C05468600A0594822125C192AC3D14A
:1055B00040224930491D58F779FDA0594022E6495B
:1055C000493058F797FD002805D0E349284620398F
:1055D00055F7EFFFB0E70B21684601706A460521D9
:1055E00028464EF771FB6846017860200143684603
:1055F000017028464FF750FB0146684602780123A8
:1056000028464EF7CBFA97E7FFB581B003980C46D2
:10561000060A002556F781FC002818D0132816D05A
:10562000142814D0CD48B700C0592030407BC006A4
:1056300028D5039856F771FC15280CD0A0793DF7B2
:1056400042FA304641F759FE032806D015E0A0790A
:105650003DF739FA1FE002251DE0C048C05920304F
:10566000407B400704D53D2130463DF764FE04E011
:105670003D22002130463DF76CFE3D21304640F78B
:10568000B9FE08E020460C38B5498180C680204626
:1056900049F73EFA01252846A4E6F1B592B01298E2
:1056A0003DF71EFA0446129869460079AD4A400655
:1056B000C00F0A9008900A208883618B081A9042D4
:1056C0007ED2E08A06287BD31922D201904277D875
:1056D000228BFF23F5339A4272D8521C9300D218C2
:1056E000034653435B1C5A100A2359438A4267DC22
:1056F000217F00290CD1617F002909D1A17F0029D8
:1057000006D1E17F002903D12021095DC90657D0C8
:10571000274620377978C906C90E491F0C294FD270
:10572000A18A81424CD8E17C002949D0421E082A36
:1057300001D9082000E0401E814241D806A840F768
:1057400041FE00283CD1884D0622E86121460EA882
:1057500058F7ACFCA878002874D06079800901283B
:105760000AD020460A9946F76BFF010062D0382024
:10577000405C002858D05DE0204646F7CEFFE86147
:10578000002804D110A9204646F7DDFFE861764ED7
:10579000803EF16A887A012801D0042812D1E86994
:1057A00000280DD006222530103158F7A3FC002820
:1057B00006D1E869F16A2030C07AC97B884200E0EE
:1057C0007EE07DD1EE69002E34D030462530014692
:1057D0000B9006220EA858F769FC2036F17A089142
:1057E00007AA0B9846F70EFE00280FD0E869203074
:1057F000C07A002811D168465C49808B45F7B4FD1A
:1058000007AA0121594846F7FDFD06E007AA012134
:1058100010A846F7F7FD00280CD0E9696846808B90
:10582000323145F7B7FD05E00A18527D002A0AD04B
:10583000102873DB4C488038C06A407A022806D0B2
:10584000032804D00EE0401C1028EDDBF2E7684688
:10585000808B0A2806D307AA20460A9946F7D2FD6C
:1058600000285BD0002206A9204646F775FE0028D6
:1058700054D13D4D803DE86A407A02280BD0032880
:1058800009D000236846028B0EA8089946F785FECA
:10589000002802D031E00123F4E7E18A68468180E4
:1058A000218BC180618B01817878410968468174C0
:1058B0007878C106C90E684641740622214600E088
:1058C0002CE00A3058F7F2FB129800794006C10F1D
:1058D00068460174038B214601A8AA6D41F71FFD9C
:1058E0000146A86501A83DF7C5FB0020A865214633
:1058F00068461C31008B40F7B8FD43F756FD1A4C43
:1059000020342079002805D00021092056F7ECFB2F
:10591000002020710021084656F7CDFA13B0F0BDE3
:1059200010B570221249134858F7C0FB10493822AD
:105930003839114858F7BAFB0E481049A0300160B9
:105940000B49703941600B490D482039086010BD82
:10595000704700002C7EFD07EC7DFD071879FD07E0
:1059600006080000770C0000E479FD0704E5F10764
:105970005079FC0720000840C000FC078CBFF107ED
:10598000FF3F1000F0B5374887B001890691418884
:10599000354D0591A9890491698B344AC9B21288A1
:1059A0000392334AD289334C029222880192C288F0
:1059B0000092314A0126038976037711BB430381A4
:1059C0004388B7103B434380A889000A0002963100
:1059D0000843A88125483821018025480027C78130
:1059E000107800280DD025482188006872111143D5
:1059F00021802188090A09024030007D014321806D
:105A000002E0142000F088F9184887800188018896
:105A10000122114301800188C907FCD000E0761EF5
:105A20000188C90701D0002EF9D187800D49069A57
:105A30000A81059A4A80049AAA81039A02800C4B33
:105A4000029ADA81019A2280009ACA80002E02D03E
:105A5000012007B0F0BD01884908490001800020FD
:105A6000F7E70000002C00500025005000220050F5
:105A70000024005000200050C079FC074C76FD0740
:105A8000F0B5324885B001880391418802913049D0
:105A90000989304B019119882F4C009127882F4993
:105AA000CE8803256D022E490022028022224280E8
:105AB000FF222748D13202812C221A800878FF2148
:105AC000013100280CD02748228800680A43228030
:105AD0002188090A09024030C07C014321800AE084
:105AE0002088084320802088000A0002133020808C
:105AF000132000F011F917480021818002880288E4
:105B000001231A4302800288D207FCD000E06D1EF8
:105B10000288D20701D0002DF9D181800B49039A68
:105B20000A80029A4A800A4A0199118100990180EB
:105B300027800A49CE80002D02D0012005B0F0BD9B
:105B400001884908490001800020F7E7002400503F
:105B5000602800500022005000200050002C00500F
:105B6000C079FC074C76FD0730B5644802880321F4
:105B7000490234230380002383800488048801259C
:105B80002C4304800488E407FCD000E0491E04880C
:105B9000E40701D00029F9D183800280002901D0D7
:105BA000012030BD0188490849000180002030BD36
:105BB000F8B5534C6088C6076088F60FC005C50F5E
:105BC00060884008400060806088FF270137B84344
:105BD0006080FFF7C9FF002805D0FFF751FF0028BC
:105BE00001D0FFF7CFFE6188A1886188490849008C
:105BF0003143618061882A02B94311436180F8BD55
:105C0000F8B53F4C6088C6076088F60FC005C50F21
:105C100060884008400060806088FF270137B843F3
:105C200060803CF7CDFE3CF7D1FE00220821022027
:105C30003CF7C0FE002800D001206188A18861885F
:105C4000490849003143618061882A02B943114300
:105C50006180F8BD70B501252A492A020A60BFF3A8
:105C60004F8FBFF36F8F28490A6028490B681C0AC1
:105C7000240240231C430C60224980390A602049D9
:105C80004C880626B443241D4C804C882C434C8001
:105C90004C8838252C434C804C889C434C800128F0
:105CA0000FD1488833021843488048881043488001
:105CB00048882A0210434880488801229203904372
:105CC000488070BD10B5124CE18A124ACBB21189DE
:105CD000248BC904890E6404640E001B09314143FE
:105CE0000120C002401A80B2584340031189000EBF
:105CF000090A09020143118110BD00000022005071
:105D00002020005080E100E080E200E008E400E0B4
:105D100000230050002C0050064A4108515CC20785
:105D2000054801D0090901E00907090F1031C180B8
:105D300070470000E04DFD07002C0050F8B502024E
:105D400005464123092134480A3255F731FF2721FE
:105D50000170044600201F233049AA008F581E1AE4
:105D60004936BE5D2718401C7E702028F6DB0020D7
:105D70003F238E581F1A4937F65D27182037401CDD
:105D80007E702028F5DB57F725F80146601C57F791
:105D90009EFC002812D10A2000906A460521284660
:105DA0004DF792FF28464EF777FF00996022114386
:105DB000CAB20146012328464DF7F0FE204655F7AA
:105DC00010FFF8BD70B505460446008914490C342F
:105DD00088B088421AD100201F216E460A1AA25CA0
:105DE0003254401C2028F9DB20223146204658F747
:105DF0005DF900203F210A1AA25C3254401C202881
:105E0000F9DB20226946A01858F750F9284645F7D3
:105E10006CFA08B070BD0000270D00002C7EFD0755
:105E200026200000F0B507460846584087B0C00F4E
:105E3000049048000E46590040084908BC1A8841A1
:105E400005D2384631461E4617460B4602465800D4
:105E5000400810434DD0300D039040055900400DCF
:105E6000490D0590401A0290402873DA1803012169
:105E7000000B09050843019004980092002806D001
:105E80001146019A494200209041009101900298E8
:105E900040210A1A0199009858F74CF905460C461A
:105EA0006B4607CB00F050F9C0197141039A0E0DF3
:105EB0000023D71756401A467A40164344D0049A16
:105EC000002A2DD0029A012A039A15DC1205C01A65
:105ED000914101263605001C7141D20F059ED20763
:105EE0000093019202962A46234600F08EF907B0ED
:105EF000F0BD38463146FAE71605234A0F46B21878
:105F0000C01AB74101210905001C4F4100187F410B
:105F1000114618187941E20F10436D19644113E0DE
:105F2000E2076D0815436408C2071443039A01266B
:105F30001205C01A91413605001C7141CE07400878
