:0200000407FCF7
:100000001886FC07B500FC07BD00FC07D500FC07FF
:1000100000000000000000000000000000000000E0
:10002000000000000000000000000000ED00FC07E0
:100030000000000000000000EF00FC07F100FC07DA
:10004000F300FC07F300FC077108FC077508FC07C8
:10005000F300FC07F300FC07F300FC07F300FC07C8
:10006000F300FC07F300FC073704FC073B04FC0724
:100070003F04FC074304FC074704FC07F300FC07AC
:10008000F300FC07F300FC07F300FC07F300FC0798
:100090005505FC07F300FC07F300FC07F300FC0721
:1000A0000348854602F046F8004800475B1FFC07FE
:1000B0001886FC070F4880470F4800470420714608
:1000C000084203D0EFF309800C490847EFF308809A
:1000D0000A49084704207146084203D0EFF309801B
:1000E00007490847EFF3088005490847FEE7FEE7A0
:1000F000FEE7FEE70D01FC07A100FC075F01FC071E
:100100005D01FC07124911480860704710B511499C
:10011000062008800F2000F00CF8012000F009F8FC
:10012000002000F006F8002005210907088062B6CB
:1001300010BD002809DBC106C90E01208840064910
:100140000860BFF34F8FBFF36F8F70470024F40038
:100150000080FC070034005080E100E0FEE7FEE78D
:10016000704710B5032800D10420DC4C4001001971
:10017000490008181A43C28010BD032800D104208A
:10018000D64A4001801849000818C088C006C00E31
:100190007047032800D10420D04A40018018012272
:1001A0008A4082807047032800D10420CB4A400156
:1001B000801801228A404280704770B50646049834
:1001C000144600280D46304602D0FFF7ECFF01E050
:1001D000FFF7DFFF224629463046FFF7C2FF70BD1A
:1001E00010B5002807D0431EBC4C5B0070341B19AF
:1001F000012802D002E00023F6E708311888012424
:100200008C40A0438A4002431A8010BD032800D1CD
:100210000420B24A40018018008801228A40104020
:1002200000D00120704708B5ADA2126800920328E3
:1002300005D86A46105C884201D3012008BD002021
:1002400008BDFFB583B0A7A00068009010460A382B
:10025000FF2601368640019014460D9FB0B200F093
:100260002DF9002F01D0012100E000219E4D814099
:10027000A889B0430143A9813F2000F01FF98740BE
:10028000A889800980010743AF81B0B200F016F958
:100290000C998140288AB0430143298201260198A4
:1002A00037468740B8B200F009F906998140288A9C
:1002B000B843014329823F2000F000F903996A46C0
:1002C000525C0499511881408748620040381018E8
:1002D000828D9209920111438185A007C20EFF21F0
:1002E000914080209040002C08DBA3087F4A9B00AF
:1002F0009B181A688A4302431A600AE02207120F09
:10030000083A93087A4A9B009A18D3698B430343AF
:10031000D361002C04DBE006C00E86407548066001
:1003200007B0F0BD70490A8A01210A3881400A40AD
:10033000C80701D0002038E0880701D5012034E04B
:10034000480701D5022030E0080701D503202CE042
:10035000C80601D5042028E0880601D5052024E040
:10036000480601D5062020E0080601D507201CE03C
:10037000C80501D5082018E0880501D5092014E03A
:10038000480501D50A2010E0080501D50B200CE036
:10039000C80401D50C2008E0880401D50D2004E034
:1003A000480401D50E2000E00F20C240D0B27047B3
:1003B00070B501240A3884400D46A0B200F07EF8E2
:1003C00085404948018AA1430D43058270BD70B53F
:1003D000012421460A3881400D4688B200F06EF8AB
:1003E00084404148C189A9430C43C48170BD024681
:1003F0000A3A042A04D8404A80008018803881656F
:10040000704710B504460A3804280AD82046FFF77A
:10041000DEFF3949A00040188038806D002801D0E7
:10042000804710BD002CFCDBE106C90E012088408E
:100430003249086010BD0A20E3E70B20E1E70C20F9
:10044000DFE70D20DDE70E20DBE710B55B062C4C67
:100450005B0E6380D301002806D001280AD0022851
:100460000ED0032812D018E0072916D8012A14D874
:10047000491C10E0052910D8012A0ED809310AE0DC
:1004800009290AD8012A08D80F3104E0072904D81D
:10049000012A02D819310B4300E00023238010BD4C
:1004A000174900200880704740061549400E4880D3
:1004B0007047134840884006400E704700280BD014
:1004C000411E4840C003010C002002E04908401CC6
:1004D00080B20029FAD170471020704700300050D8
:1004E0000705090701090F190014005000E400E096
:1004F00000ED00E000E100E01886FC0780E200E08B
:100500004000005081894908490081818189082281
:1005100091438181704710B50C46034601208749FD
:1005200000050860BFF34F8FBFF36F8F002A02D022
:100530001846FFF7E7FF58083821814A084013584A
:10054000002B03D08018406821469847142000F003
:10055000EAF810BD70B57B4E7488002520E079491B
:10056000280180394018E10717D08189090609D48C
:100570000189491C8AB24189491C89B28A4201D148
:10058000012200E0002241064B0F01219940B18079
:100590000189491C89B2FFF7BEFF6D1CEDB26408EA
:1005A000002C01D0042DDAD370BD70B54B79CA7917
:1005B0009C07D207E40F920C2403DB0722431B0D98
:1005C0001A430B791C09240222431C07E40FE4019F
:1005D00022439C07E40FA40122435C07E40F64015B
:1005E000DB072243DB0E1A430B785C07E40FE400C1
:1005F0009B0722435B0F1A4382818D790F2D26D0F2
:10060000514AF02384184F4A002C06D0102C04D0F5
:10061000202C2BD0302C1AD128E0EFF310840126A7
:1006200086F3108816883606360FAE4203D1158839
:100630009D431D4315808B7915882D092D011D4380
:10064000158028E0002200E0012282F310888A68E9
:100650000280120C4280CA688280120CC2800A8A10
:10066000521E42814A88002A19D117E0EFF3108404
:10067000012686F3108816883607360FAE4204D15D
:1006800016880F25AE432E4316808D7916889E431B
:100690002B011E431680002CD6D1D3E70A8A521EA6
:1006A0000281400838221040254A4B69135089695D
:1006B00080184160254801688022090A0902114317
:1006C0000160142000F02FF870BD40083823184056
:1006D0001B4B1950C01842607047828908239A4307
:1006E000C9000A43828181890122114381817047B7
:1006F000C18901220FE71348803880891149C0075A
:10070000C00F70398989C907C90F08430D4960397D
:100710008989C907C90F08430A4950398989C90716
:10072000C90F08437047002806DBC106C90E012027
:1007300088400249803908607047000080E100E08D
:100740002C86FC078036005000CAFFAF14E400E09E
:100750008307FF22DB0E9A408907090E9940002883
:1007600008DB8308F9489B001B181868904308436E
:10077000186070470007000F08388308F4489B0092
:100780001B18D86990430843D8617047F14930B4C9
:10079000884201D0012100E00021EF4A4901891877
:1007A00008E0838ADB07DB0F12D00388541C8D68B6
:1007B000CC81AB54CA898B899A42F2D38288520881
:1007C000520082808A69002A02D0C88930BC104752
:1007D00030BC7047F8B5DF4DDF4E04462089000776
:1007E000000F062826D009DC012840D002281DD0A1
:1007F0000428F3D12046FFF7C9FFEFE7072828D0E8
:100800000C28EBD1AC4201D0012000E000204001D7
:1008100087192046FFF7BAFFA18849084900A1803F
:10082000B9690029DAD0F8898847D7E7204600F06F
:10083000DDF9D3E72046AC4201D0012100E00021E0
:10084000490189190A69002AC8D0818A9E23194062
:100850000BE02046AC4201D0012100E0002149011B
:1008600089190A69002AB9D001219047B6E7F8BD75
:10087000B848AFE7B948ADE7EFF31081012282F342
:100880001088B44B052212079842908801D180232A
:1008900000E0402318439080002903D0012080F31A
:1008A000108870470020FAE7012288210A52EFF3EE
:1008B000108182F31088A74B052212079842908876
:1008C00001D1802300E0402398439080002903D089
:1008D000012080F3108870470020FAE710B5024627
:1008E0004032938FDB07DB0FFBD183898022934358
:1008F00013438381CCB2C0231C520B041B0E038014
:100900000902090E818081899143818110BD914A3C
:10091000904201D0012000E000208F4A4001801861
:10092000416170478B4A904201D0012000E00020D5
:10093000894A4001801881617047864A904201D0FF
:10094000012000E00020844A4001801801617047C6
:1009500070B504467F480D46844201D0012000E076
:1009600000207D49400146182046FFF785FF7C2086
:10097000005B28680102090A2046FFF7AFFFE9780B
:10098000C8068A06800FD20FC000920049071043A4
:10099000490F0843A081E878C109204680300183CF
:1009A000E978CA0918D04906CA0F218A2023994339
:1009B000520111432182E9784906CA0F218A022394
:1009C000994352001143218229790907890F8183B4
:1009D00029798907890F0184287A3077E86830619E
:1009E000286970616869B06128790007800F7077A5
:1009F00070BD828A5209D207D20FFAD001807047A7
:100A000030B513460C46054606E021782846641C9E
:100A1000FFF7EFFF5B1E9BB2002BF6D130BD70B528
:100A20004C4D0446A84201D0012000E000204A4E6F
:100A3000400186190020F080B280002B06D0012BE7
:100A400007D13160AC4205D1022004E02046FFF717
:100A5000D7FF70BD032000F0BBF8A08802218843B7
:100A60000843A080A088802188430843A080317F6C
:100A7000AC4201D1022000E00320FFF769FEAC4246
:100A800001D1022000E0032000F099F870BD818AB6
:100A90008909C907C90FFAD07047818AC907C90FE8
:100AA000FBD00088C0B2704710B50B46044606E084
:100AB0002046FFF7F2FF521E187092B25B1C002A0C
:100AC000F6D110BD70B5234D0446A84201D00120D7
:100AD00000E00020204E400186190020B281F08104
:100AE000B160002B05D0012B06D1AC4205D102200C
:100AF00004E02046FFF7D8FF70BD032000F068F83F
:100B0000A188012081430143A180A088042188435A
:100B10000843A080317FAC4201D1022000E00320D5
:100B2000FFF716FEAC4201D1022000E0032000F0E6
:100B300046F870BD028A20218A430A430282018A54
:100B400002229143114301827047000000E400E05B
:100B500000ED00E0001000504C86FC070011005032
:100B600008B501E0491E17D3828A9209D207D20F35
:100B7000F8D0828A5209D207D20FF3D0028A2021FC
:100B80008A4300210282028A02239A4302826A4631
:100B90001180FF225F3205E0002008BD6B461988F6
:100BA000491C1980694609889142F7D3818AC9078F
:100BB000C90F02D0FFF7BEFFEEE7012008BD0028F5
:100BC000C2DBC106C90E0120884021490860BBE78D
:100BD0000028B9DBC106C90E012088401C498031BC
:100BE0000860BFF34F8FBFF36F8FADE7194930B483
:100BF000884201D0012100E00021174A49018918EB
:100C00000EE003891B069B0F032B1BD0838A9B06D8
:100C1000DB0F002B1BD0531C0C68CB80A25C028026
:100C2000CA888B889A42ECD3828802239A438280B6
:100C3000828880239A4382804A69002A07D0888864
:100C400030BC10477C231B5A9B07DB0FE1E7BFE555
:100C500000E100E0001000504C86FC070846FE4909
:100C60000A891207FCD4FD494A68002A00D01047BF
:100C700070470846F8490A891207FCD4F7498A6880
:100C8000002A00D0104770470846F3490A89120726
:100C9000FCD4F249CA68002A00D010477047F8B562
:100CA0000C46014600200090EB4894460088C005A1
:100CB000800F01D0012300E00023E84D28698289DC
:100CC0000627BA435E001346334383818180090CB3
:100CD000C180641E0481448100226146FFF7F5FC57
:100CE000686981894022914381818189B943314377
:100CF000818169460180090C418004814481002280
:100D00001146FFF7E2FC00216869FFF7E6FC0121CC
:100D10002869FFF7E2FCF8BDFFB5CF48144602880A
:100D200081B0D205920F012A2FD80088C005800F0C
:100D300001D0012600E00026C84D286982890627D7
:100D4000BA437600324382818180090CC180641EDF
:100D50000481448100221946FFF7B7FC6869818944
:100D6000B9433143818101990180090C418004819B
:100D7000448100221146FFF7A8FC00216869FFF7B3
:100D8000ACFC01212869FFF7A8FC05B0F0BDEFF32A
:100D90001080012181F31088052109078A88012329
:100DA000DB021A438A80002800D0012080F31088DB
:100DB000704710B5A94841780078FFF7F4F910BDE5
:100DC00010B5EFF31084012080F31088A248018849
:100DD0004908490001800520000781880122D202CC
:100DE00091438180FFF7E5FF002C03D0012080F3C1
:100DF000108810BD0020FAE797490A88520852006F
:100E00000A800A8802239A43C3079B0F1A430A8069
:100E10000A8880070423C00F9A43800002430A8097
:100E20000888012210430880704701B569468B4845
:100E30000978017069464978417008BD86490A8879
:100E4000520852000A800A8818239A43C0000243BD
:100E50000A80088801221043088070477E490A886A
:100E6000520852000A800A88FF2381339A43C00146
:100E700002430A800888012210430880704776499F
:100E80000A88520852000A800A8801239B039A4369
:100E9000800302430A8008880122104308807047BB
:100EA0006E49486070476D49886070476B49C860FB
:100EB0007047F8B50446694E80783070E0787070FD
:100EC000FFF777FFFFF763FF2178634D0A07C80735
:100ED000520F400E520009091043C90008436178BF
:100EE0004A07920D4906C90F104389030843288019
:100EF00028898008800028810127EF806068706061
:100F0000A068B060E068F060204600F001F9288831
:100F1000384328800020F8BD10B55048417800784B
:100F2000FFF737F910BD70B54B4B1C881D89E405E0
:100F3000A40FAD08AD00AD1C1D811D886D061ED42B
:100F4000012A05D1012C03D8454A00F017F916E013
:100F5000002201250FE01E883605FCD4002C10D09D
:100F6000012C12D00668360C9E8006885E80001D1B
:100F7000DD80521C92B28A42EDD300F026F90020A7
:100F800070BD06785E80401CF2E706885E80801C9B
:100F9000EEE7F8B5304B1C88E405A50F1C89A408C2
:100FA000A4001C811C88640621D4012A05D1012DCE
:100FB00003D82C4AFFF773FE19E0844664460022EA
:100FC00011E000265E801E88B604FCD5002D10D0EE
:100FD000012D12D09E885F8836043E4340C401260E
:100FE000DE80521C92B28A42EBD300F0EEF8002071
:100FF000F8BD5E880670401CF1E75E8867463E805B
:101000006646B61CB446EAE7F8B5134C258826892F
:10101000ED05AD0FB608B60026812688760635D4D4
:10102000012B05D1012D03D80F4BFFF775FE2DE0E5
:101030008E46F446002325E026883605FCD4002D94
:1010400026D0012D2ED00668360CA6800688668034
:10105000001D2688B60409E0001200508C86FC07AB
:101060005D0CFC07730CFC07890CFC07F1D5A68806
:10107000678836043E43674640C7BC460126E68083
:101080005B1C9BB29342D7D300F09FF80020F8BDC1
:1010900006786680401C2688B604FCD566880E70EB
:1010A000491CEBE706886680801C2688B604FCD5C0
:1010B000678876463780B61CB646DFE74949002286
:1010C0000B899B089B009B1C0B810B88DB059B0FEE
:1010D000012B01D9030C8B80488008888004FCD543
:1010E0000120C8800888C005800F012801D98888A0
:1010F000020448888018704710B50446FFF70CFFBB
:101100002046FFF7DBFF0446FFF753FE204610BDE5
:1011100070B50446007C88B0C00729D0324E334DEC
:101120001C22334968462E6100F0F2FF69460879B7
:10113000617C0007000F09010843694608713046C9
:10114000FFF733FA207CC00715D0274810306A46D5
:101150006861117902221143FB2211406A46117124
:101160002049891C03916946FFF71FFA08B070BD3A
:101170001D4E203ED3E71C481038E8E7F8B51B4C5D
:1011800003466069944685894026B5433543858189
:10119000144A1288D205920F01D0012600E00026E1
:1011A00085890627BD4372001543858103801A0C8B
:1011B0004280491E0181418100226146FFF785FA84
:1011C00001216069FFF789FAF8BD0648018909071E
:1011D000FCD401210288920402D54288C180F9E73B
:1011E0007047000000120050203600508C86FC072B
:1011F0007821FC07F949012008707047F749012060
:101200004870704710B50120FFF728FE0520000246
:10121000FFF772FF80B210BD10B5FFF7F3FFC007F4
:1012200001D00D20C04310BD70B50024EC4DFFF778
:10123000E9FFC00704D0641CAC42F8D30020C043CF
:1012400070BD10B5FFF768FEFFF7B3FD0020FFF794
:1012500005FEAB20FFF750FF002010BD0DC8E1498F
:101260000DC1704710B50C46FFF723FE002C06D0C9
:101270002046FFF7F3FFFFF7E4FF002010BD062034
:10128000C04310BD10B50446FFF7C6FF00281ED1AD
:10129000FFF7E4FDFFF740FE9F20FFF70FFF002060
:1012A000FFF70CFF0006000A20600020FFF706FF92
:1012B00000062168000C084320600020FFF7FEFEB6
:1012C0002168C0B208432060FFF773FD002010BD05
:1012D00070B59AB006466022C349684600F018FF10
:1012E00018A8FFF7CFFF002815D11898002814D0B0
:1012F000411C12D0082100246D460C226243521971
:10130000526882420CD10C2044436019FFF7A6FFBB
:10131000285D307000201AB070BD0A20C043FAE783
:10132000641CE4B28C42E8D30920C043F3E710B553
:101330000C46FFF7BEFDFFF784FF2046FFF7C8FF0E
:1013400010BD10B5FFF768FF002805D1FFF786FD37
:10135000B920FFF7D1FE002010BD10B50446FFF7FD
:101360005BFF00280DD1FFF779FD2046FFF7C4FE93
:10137000FFF75AFF002804D1FFF744FF800701D58B
:10138000002010BD0B20C04310BD0620E5E7502013
:10139000E3E710B5FFF740FF00280DD1FFF75EFD32
:1013A0000420FFF7A9FEFFF73FFF002804D1FFF755
:1013B00029FF800701D4002010BD0B20C04310BDC1
:1013C00010B50446FFF728FF002809D10120FFF7D8
:1013D00045FDE01DF930FFF78FFEFFF725FF0020E8
:1013E00010BD10B504460220FFF738FD1520000699
:1013F000FFF782FE0002000C206010BD70B50546AC
:10140000FFF7C3FF04000CD1FFF70EFF0220FFF728
:1014100025FD28020121000A09064018FFF76CFE8D
:10142000204670BD10B504460120FFF717FD2B20A4
:101430000002FFF761FE206010BDD2E738B5044618
:101440006846FFF7CEFFFFF7DDFE01040098014379
:10145000090A0902214308460091FFF7CFFF38BD72
:1014600010B50446FFF7D8FE002812D10120FFF77F
:10147000F5FCFFF751FD09200003FFF71FFE0020D8
:10148000FFF71CFE0020FFF719FE2080FFF791FCFC
:10149000002010BD10B50446FFF7BEFE00281BD18A
:1014A000FFF7DCFCFFF738FD4B20FFF707FE0220BB
:1014B000FFF7D4FC0020FFF701FE0020FFF7FEFD40
:1014C0000146002003C4083CFFF7F8FD22681043E2
:1014D0002060FFF76EFC002010BD10B50446FFF73A
:1014E0009BFE00280ED10620FFF737FF002809D108
:1014F000FFF788FE01463C20814304402143C8B2E7
:10150000FFF75EFF10BD10B50446FFF785FE00280B
:101510000ED10620FFF721FF002809D10220FFF796
:101520009DFC812000062043FFF7E6FDFFF77CFECF
:1015300010BD70B50C460546FFF76EFE00280DD1B4
:101540000620FFF70AFF002808D10220FFF786FCDB
:1015500020062843FFF7D0FDFFF766FE70BD70B58B
:101560000C460546FFF758FE00280CD10620FFF771
:10157000F4FE002807D10220FFF770FC2006284364
:10158000FFF7BAFD002070BD10B5FFF745FE00283B
:101590000BD10620FFF7E1FE002806D1FFF75EFC25
:1015A000C720FFF7A9FDFFF73FFE10BD10B5FFF7FD
:1015B00033FE002805D1FFF790FF002801D1FFF787
:1015C000E3FF10BD08B56846FFF72CFF00988009BF
:1015D000C00701D00C20C04308BD00000480FC07F8
:1015E00080841E000880FC079421FC0770B5144617
:1015F0000E460546FFF710FE002824D10620FFF70F
:10160000ACFE00281FD1FF200130844200D90446DF
:101610000220FFF723FCFFF77FFC0121304649063B
:101620000843FFF74BFD0020FFF718FC05E0287882
:101630006D1CFFF743FD641EA4B2002CF7D1FFF729
:10164000B8FBFFF7F1FD70BD70B514460D460646B8
:10165000FFF7E2FD00281FD10620FFF77EFE0028DD
:101660001AD1FF200130844200D904460220FFF73E
:10167000F5FBFFF751FC012040062843FFF71EFD54
:101680000020FFF7EBFB002221463046FFF74BFC22
:10169000FFF78FFBFFF7C8FD70BD70B514460D4610
:1016A0000646FFF7B9FD002829D10620FFF755FEB1
:1016B000002824D1FF200130844200D904460220B2
:1016C000FFF7CCFBFFF728FC012128464906084319
:1016D000FFF7F4FC0020FFF7C1FBEF48FFF7E0FB4A
:1016E000EE4D00202870012221463046FFF71BFCFA
:1016F00028780028FCD0FFF75CFBFFF795FD70BD54
:10170000FFB583B0002001900E460091FF200143F9
:1017100014460D460020FFF7A1FBE1488068801BBE
:10172000A04200D204462746002615E00098C019C2
:10173000A84202D900982F1A7F1C0398BAB28019C8
:101740000099FFF753FF019000280AD1681CF61991
:10175000A71BFF3501350090A642E7D30698068007
:10176000019807B0F0BDFFB583B0002001900E4690
:101770000091FF20014314460D460020FFF76EFB49
:10178000C7488068801BA04200D204462746002636
:1017900015E00098C019A84202D900982F1A7F1CA2
:1017A0000398BAB280190099FFF74EFF0190002804
:1017B000D7D1681CF619A71BFF3501350090A6424A
:1017C000E7D3069806800198CBE7FFB583B00020E9
:1017D00001900E460091FF20014314460D46002063
:1017E000FFF73CFBAE488068801BA04200D2044655
:1017F0002746002615E00098C019A84202D9009893
:101800002F1A7F1C0398BAB280190099FFF745FF81
:1018100001900028A5D1681CF619A71BFF350135DA
:101820000090A642E7D306980680019899E770B524
:1018300014460D460646FFF7EFFC002822D106208D
:10184000FFF78BFD00281DD1FF200130844200D915
:1018500004460220FFF702FBFFF75EFB0120400673
:101860002843FFF72BFC0020FFF7F8FA04E030468E
:10187000FFF724FC641EA4B2002CF8D1FFF799FAFC
:10188000FFF7D2FC70BDFFB581B00E46FF2000917E
:10189000014315460C460020FFF7E0FA80488068B7
:1018A000801BA84200D205462E46002713E0009870
:1018B0008019A04202D90098261A761CB2B200996B
:1018C0000198FFF7B4FF00280AD1601CBF19EE1B76
:1018D000FF3401340090AF42E9D304980780002020
:1018E00005B0F0BD08B56846FFF79CFD00984009BB
:1018F000C00701D00720C0436EE6F8B51D46174665
:101900000C460646FFF788FC002825D164483919A3
:101910008068814202D9001B288000E02F800220CD
:10192000FFF79CFAFFF7F8FA03212046090608435F
:10193000FFF7C4FB0020FFF791FA002406E0002027
:10194000FFF7BCFB641C3070A4B2761C2888A04250
:10195000F5D8FFF72EFA0020F8BDF8B51D4616465B
:101960000C460746FFF758FC00281DD14C4831199A
:101970008068814202D9001B288000E02E8002206E
:10198000FFF76CFAFFF7C8FA032000062043FFF7C1
:1019900095FB0020FFF762FA298800223846FFF7FE
:1019A000F8FAFFF706FA0020F8BDF8B51D4616460E
:1019B0000C460746FFF730FC002826D1384831197D
:1019C0008068814202D9001B288000E02E8002201E
:1019D000FFF744FAFFF7A0FA032000062043FFF7C1
:1019E0006DFB0020FFF73AFA2E48FFF75CFA2B4C0C
:1019F00000206070298801223846FFF7CAFA607813
:101A00000028FCD0FFF7D5F90020F8BD10B5C2B012
:101A1000FF24013401466B46224601A8FFF76DFF03
:101A2000002805D168460088A04203D00820C043A2
:101A300042B010BD002001A982008A58521C02D079
:101A40000120C043F4E7401C80B24028F4D30020BA
:101A5000EEE770B514490024084005462002281816
:101A6000FFF7D4FF002803D1641CA4B2102CF5D3D7
:101A700070BD70B50A4880680001050C002406E0BE
:101A80002003FFF7E6FF002804D1641CA4B2AC4297
:101A9000F6D3002070BD0000F511FC070480FC07A0
:101AA0000880FC07FD11FC0700FFFF0018B5F8498E
:101AB00000220A6005200007448A40231C43448218
:101AC000448A9C4344824A61F24B8B6201231B048B
:101AD000CB62048880231C4304800092521C009235
:101AE000642AFBDB0A68D208D2000A6001889943A5
:101AF000018018BDE84A81005258E5498A62CA6AE5
:101B00007F231B049A43E44B1B1F185C0004024311
:101B1000CA627047DE49CA6A920A92020243CA62E6
:101B2000704730B5DA49FF230868DB04C008C000FD
:101B300008600868FF220132104308600868C00886
:101B4000C000401C086000209E2402E0401C0828C1
:101B500005D28500651BAD005D59ED07F6D10B6818
:101B6000DB08DB000B600B6893430B6030BDF7B5FF
:101B700094460026FFF7D5FF0546082824D2C44C1A
:101B80002068FF270137384320604E20401B002388
:101B90006246019900F01AF800280BD00098002343
:101BA00041004F20401B1A46491C00F00FF8002846
:101BB00000D001262068B8432060002E04D02068A1
:101BC00001214902084320603046FEBDFFB581B0C7
:101BD0000546AF4C02981F460126206203986062BA
:101BE0002068C008C000801C2060F00328436060AB
:101BF000A068C007FCD003220020920329461143AD
:101C000004E06160401CA268D207FCD0A2685207C1
:101C1000920F02D00A2802D0F3E70A281FD12846E3
:101C2000039A029900F041F90646B74317D020689D
:101C3000C008C00020602068C00510D42846039A60
:101C40000299FFF794FF002809D02068C008C0005F
:101C500020602068C008C000401C20600126206869
:101C6000C008C0002060304605B0F0BD88490020A3
:101C7000086070478649002802D0FF20023000E04B
:101C8000012008607047FEB5074601201E460290FD
:101C9000002B05D000250C46012A03D0700817E060
:101CA0000120FEBDFF20E100C0040A180898FFF7DC
:101CB000E1FF1168764A0020106020460125641C6F
:101CC0003A68089BFFF782FF0028EAD0701E4008A0
:101CD0000190002000900EE0A800C1194A68395810
:101CE0002046089BFFF772FF0028DAD00098641C9A
:101CF000401CAD1C009001998842EDD3B54212D230
:101D0000FF20E100C0040A180898FFF7B3FF6049FC
:101D1000526800200860A80039582046089BFFF749
:101D200055FF0028BDD00298FEBD70B5584C049DEB
:101D3000E0604800012A09D00021084320615B1EB1
:101D40006361002D04D0FF20153002E00121F4E78B
:101D50001420206000F0A4F8A068800701D50020BE
:101D600070BD012070BD70B5494C049DE060480015
:101D7000012A09D00021084320615B1E6361002D08
:101D800004D0FF20143002E00121F4E7132020608A
:101D900000F086F870BD70B54900049D012A00D09E
:101DA00000223B4C11432161591E6161002D02D07C
:101DB000FF21053103E02168C908C900091D216020
:101DC000002108E0A2681205120F082AFAD08A0042
:101DD0008258A261491C9942F4D300F061F8A068CE
:101DE000800701D5002070BD012070BDF8B5284CDA
:101DF000069FA5682E068025002E02DAA6682E43CF
:101E0000A6604900012A00D0002211432161591E19
:101E10006161002F02D0FF21043100E00321216025
:101E2000002107E0A2681205120FFBD0A2698E0004
:101E30008251491C9942F5D300F032F8A06800069F
:101E400004D5A0682843A0600020F8BD0120F8BD9B
:101E5000C01C80080E49401E4861104801691022CC
:101E60001143016170470D480169102291430161DE
:101E7000704710B5052000F050F810BD10B50620D1
:101E800000F04BF810BD10B5072000F046F810BD6B
:101E90000000F407204F101AF821FC070200005040
:101EA000264881684906FCD57047F0B5234B1C686D
:101EB000FF25C000ED0445191868C008C00018606F
:101EC000BFF35F8F1868402630431860BFF35F8F01
:101ED0001868C008C000401C18609868060680207A
:101EE000002E02DA9E6806439E602E686D681F68A9
:101EF000FF08FF001F60BFF35F8F1C609C68240613
:101F000003D599680143996005E0AA4203D1B14223
:101F100001D10120F0BD0020F0BD08490A68D208B7
:101F2000D20002430A608868C006FCD58868800633
:101F300001D5012070470020704700000000F40721
:101F400010B50120FEF78AFFFEF7E6FF8F200002A2
:101F5000FFF7B4F8FEF72DFF10BD00F080F800F099
:101F600003F8FFF7EDFFFCE7F8B505242407208A06
:101F7000022188432082A08A0007FCD51F4841889F
:101F8000FF220132114341801D491E48FEF7E0FC4B
:101F90001B482C30FFF762F919481830FEF789FF0B
:101FA00000250326042336023246194628460095AA
:101FB000FEF703F901200090082332460321002098
:101FC000FEF7FBF807233246022100200095FEF7BA
:101FD000F4F806233246072100200095FEF7EDF8BD
:101FE00005230022194610460095FEF7E6F8608AA0
:101FF0002021884308436082F8BD00002000005083
:102000000822FC0700110050704708B53B490880C2
:102010003B494A8801231A434A80002200920099D2
:10202000491C00911429FADB052109074B899B08FB
:102030009B005B1C4B814B895B06FCD548801920BB
:1020400080010092521C00928242FBDB488980088A
:102050008000488148890006FCD508BD704738B526
:10206000284908200880FEF77BF825482030408862
:10207000FFF7F4FF224860304188C908C900418059
:102080001F4C618989050AD54188C2130905090DCC
:10209000891841804188782291434031418060888D
:1020A00040084000608018480021016005252D0788
:1020B0006B8A402213436B826B8A93436B8241612C
:1020C000124A826201221204C262288880221043CE
:1020D000288000910098401C00906428FADB0020C2
:1020E000FFF7C8FDFFF7E2FCFFF73EFFA220E88202
:1020F0006088E0218843A030608038BDA486FC075A
:1021000020000050003300500000F407204F101A48
:1021100003460B439B0703D009E008C9121F08C000
:10212000042AFAD203E00B780370401C491C521EAB
:10213000F9D27047064C0125064E05E0E36807CC4E
:102140002B430C3C98471034B442F7D3FDF7ACFF57
:102150004022FC076022FC0702E008C8121F08C1E9
:10216000002AFAD170477047002001E001C1121F18
:10217000002AFBD1704700000400000005000000A9
:1021800002120050000000000000000000000000EB
:1021900000000000010000001130EF00000002000C
:1021A000020000001230EF000000040003000000F5
:1021B00000421F0000000200040000001120C200C5
:1021C00000000200050000001128C200000002000B
:1021D000060000001228C200000004000F000000EA
:1021E0001160850000000200120000001264C800A7
:1021F00000000400000000010409420008138400EC
:1022000010270809204F101A0B0800830000000057
:1022100002000000000000000000000000000000BC
:1022200000000003000000000000000000000000AB
:10223000000000000000000000000000000004009A
:102240006022FC070080FC07080000005821FC0702
:102250006822FC070880FC07A00600006821FC0734
:082260000024F400000000005E
:0400000507FC00A153
:00000001FF
