:0200000407FCF7
:100000003886FC070D01FC071501FC072D01FC07D4
:1000100000000000000000000000000000000000E0
:100020000000000000000000000000004501FC0787
:1000300000000000000000004701FC07B70FFC07AC
:100040004B01FC074B01FC072506FC072906FC07B2
:100050008115FC074B01FC074B01FC074B01FC071A
:100060004B01FC074B01FC073704FC073B04FC0772
:100070003F04FC074304FC074704FC074B01FC0753
:100080004B01FC074B01FC074B01FC074B01FC0734
:100090004B01FC074B01FC074B01FC074B01FC0724
:1000A0000348854601F0E2FB004800473516FC078F
:1000B0003886FC07124911480860704710B511498D
:1000C000062008800F2000F00CF8012000F009F84D
:1000D000002000F006F8002005210907088062B61C
:1000E00010BD002809DBC106C90E01208840064961
:1000F0000860BFF34F8FBFF36F8F70470024F40089
:100100000080FC070034005080E100E00F48804789
:100110000F48004704207146084203D0EFF30980DE
:100120000C490847EFF308800A4908470420714644
:10013000084203D0EFF3098007490847EFF308802E
:1001400005490847FEE7FEE7FEE7FEE7BD00FC07BE
:10015000A100FC075F01FC075D01FC07FEE7FEE76D
:10016000704710B5032800D10420DC4C4001001971
:10017000490008181A43C28010BD032800D104208A
:10018000D64A4001801849000818C088C006C00E31
:100190007047032800D10420D04A40018018012272
:1001A0008A4082807047032800D10420CB4A400156
:1001B000801801228A404280704770B50646049834
:1001C000144600280D46304602D0FFF7ECFF01E050
:1001D000FFF7DFFF224629463046FFF7C2FF70BD1A
:1001E00010B5002807D0431EBC4C5B0070341B19AF
:1001F000012802D002E00023F6E708311888012424
:100200008C40A0438A4002431A8010BD032800D1CD
:100210000420B24A40018018008801228A40104020
:1002200000D00120704708B5ADA2126800920328E3
:1002300005D86A46105C884201D3012008BD002021
:1002400008BDFFB583B0A7A00068009010460A382B
:10025000FF2601368640019014460D9FB0B200F093
:100260002DF9002F01D0012100E000219E4D814099
:10027000A889B0430143A9813F2000F01FF98740BE
:10028000A889800980010743AF81B0B200F016F958
:100290000C998140288AB0430143298201260198A4
:1002A00037468740B8B200F009F906998140288A9C
:1002B000B843014329823F2000F000F903996A46C0
:1002C000525C0499511881408748620040381018E8
:1002D000828D9209920111438185A007C20EFF21F0
:1002E000914080209040002C08DBA3087F4A9B00AF
:1002F0009B181A688A4302431A600AE02207120F09
:10030000083A93087A4A9B009A18D3698B430343AF
:10031000D361002C04DBE006C00E86407548066001
:1003200007B0F0BD70490A8A01210A3881400A40AD
:10033000C80701D0002038E0880701D5012034E04B
:10034000480701D5022030E0080701D503202CE042
:10035000C80601D5042028E0880601D5052024E040
:10036000480601D5062020E0080601D507201CE03C
:10037000C80501D5082018E0880501D5092014E03A
:10038000480501D50A2010E0080501D50B200CE036
:10039000C80401D50C2008E0880401D50D2004E034
:1003A000480401D50E2000E00F20C240D0B27047B3
:1003B00070B501240A3884400D46A0B200F07EF8E2
:1003C00085404948018AA1430D43058270BD70B53F
:1003D000012421460A3881400D4688B200F06EF8AB
:1003E00084404148C189A9430C43C48170BD024681
:1003F0000A3A042A04D8404A80008018803881656F
:10040000704710B504460A3804280AD82046FFF77A
:10041000DEFF3949A00040188038806D002801D0E7
:10042000804710BD002CFCDBE106C90E012088408E
:100430003249086010BD0A20E3E70B20E1E70C20F9
:10044000DFE70D20DDE70E20DBE710B55B062C4C67
:100450005B0E6380D301002806D001280AD0022851
:100460000ED0032812D018E0072916D8012A14D874
:10047000491C10E0052910D8012A0ED809310AE0DC
:1004800009290AD8012A08D80F3104E0072904D81D
:10049000012A02D819310B4300E00023238010BD4C
:1004A000174900200880704740061549400E4880D3
:1004B0007047134840884006400E704700280BD014
:1004C000411E4840C003010C002002E04908401CC6
:1004D00080B20029FAD170471020704700300050D8
:1004E0000705090701090F190014005000E400E096
:1004F00000ED00E000E100E03886FC0780E200E06B
:10050000400000508307FF22DB0E9A408907090E46
:100510009940002808DB8308F9489B001B181868DD
:1005200090430843186070470007000F083883089D
:10053000F4489B001B18D86990430843D861704762
:10054000F14930B4884201D0012100E00021EF4A96
:100550004901891808E0838ADB07DB0F12D0038882
:10056000541C8D68CC81AB54CA898B899A42F2D3D2
:1005700082885208520082808A69002A02D0C88983
:1005800030BC104730BC7047F8B5DF4DDF4E044635
:1005900020890007000F062826D009DC012840D05A
:1005A00002281DD00428F3D12046FFF7C9FFEFE74A
:1005B000072828D00C28EBD1AC4201D0012000E064
:1005C0000020400187192046FFF7BAFFA18849089B
:1005D0004900A180B9690029DAD0F8898847D7E7AE
:1005E000204600F0DDF9D3E72046AC4201D00121DE
:1005F00000E00021490189190A69002AC8D0818ACE
:100600009E2319400BE02046AC4201D0012100E0BE
:100610000021490189190A69002AB9D001219047AE
:10062000B6E7F8BDB848AFE7B948ADE7EFF31081DA
:10063000012282F31088B44B052212079842908859
:1006400001D1802300E0402318439080002903D08B
:10065000012080F3108870470020FAE701228821EA
:100660000A52EFF3108182F31088A74B052212077C
:100670009842908801D1802300E0402398439080E5
:10068000002903D0012080F3108870470020FAE78A
:1006900010B502464032938FDB07DB0FFBD1838915
:1006A0008022934313438381CCB2C0231C520B049A
:1006B0001B0E03800902090E81808189914381818B
:1006C00010BD914A904201D0012000E000208F4AE5
:1006D00040018018416170478B4A904201D001204F
:1006E00000E00020894A4001801881617047864AF5
:1006F000904201D0012000E00020844A400180188F
:100700000161704770B504467F480D46844201D0B0
:10071000012000E000207D49400146182046FFF7F7
:1007200085FF7C20005B28680102090A2046FFF74C
:10073000AFFFE978C8068A06800FD20FC00092008A
:1007400049071043490F0843A081E878C1092046B2
:1007500080300183E978CA0918D04906CA0F218A76
:1007600020239943520111432182E9784906CA0F97
:10077000218A0223994352001143218229790907D2
:10078000890F818329798907890F0184287A307735
:10079000E8683061286970616869B061287900078C
:1007A000800F707770BD828A5209D207D20FFAD0BB
:1007B0000180704730B513460C46054606E02178A7
:1007C0002846641CFFF7EFFF5B1E9BB2002BF6D19F
:1007D00030BD70B54C4D0446A84201D0012000E068
:1007E00000204A4E400186190020F080B280002B84
:1007F00006D0012B07D13160AC4205D1022004E0C4
:100800002046FFF7D7FF70BD032000F0BBF8A0889B
:10081000022188430843A080A088802188430843A0
:10082000A080317FAC4201D1022000E00320FFF71D
:1008300069FEAC4201D1022000E0032000F099F8EB
:1008400070BD818A8909C907C90FFAD07047818AAA
:10085000C907C90FFBD00088C0B2704710B50B465E
:10086000044606E02046FFF7F2FF521E187092B2CF
:100870005B1C002AF6D110BD70B5234D0446A8427A
:1008800001D0012000E00020204E40018619002008
:10089000B281F081B160002B05D0012B06D1AC42B2
:1008A00005D1022004E02046FFF7D8FF70BD0320E9
:1008B00000F068F8A188012081430143A180A0884D
:1008C000042188430843A080317FAC4201D102203B
:1008D00000E00320FFF716FEAC4201D1022000E049
:1008E000032000F046F870BD028A20218A430A43A3
:1008F0000282018A02229143114301827047000063
:1009000000E400E000ED00E0001000504C86FC0721
:100910000011005008B501E0491E17D3828A9209E0
:10092000D207D20FF8D0828A5209D207D20FF3D061
:10093000028A20218A4300210282028A02239A43EA
:1009400002826A461180FF225F3205E0002008BD66
:100950006B461988491C1980694609889142F7D36A
:10096000818AC907C90F02D0FFF7BEFFEEE7012059
:1009700008BD0028C2DBC106C90E012088402149FC
:100980000860BBE70028B9DBC106C90E012088401A
:100990001C4980310860BFF34F8FBFF36F8FADE705
:1009A000194930B4884201D0012100E00021174AE2
:1009B000490189180EE003891B069B0F032B1BD0EE
:1009C000838A9B06DB0F002B1BD0531C0C68CB804B
:1009D000A25C0280CA888B889A42ECD38288022368
:1009E0009A438280828880239A4382804A69002ABF
:1009F00007D0888830BC10477C231B5A9B07DB0F2D
:100A0000E1E7BFE500E100E0001000504C86FC0784
:100A100070B50D46061E00DA704200240A2100F06F
:100A200009FF30312955641C0028F7DC002E02DA5A
:100A30002D202855641C002028552C4605462046AC
:100A400000F00CFF401E05E0615D225C6255215400
:100A5000401E6D1C8542F7DB70BD38B50C4605465F
:100A60000909684601700A2901D2302000E03720C8
:100A70004118684601700023012269462846FFF7A5
:100A8000A8FE2107090F684601700A2901D230200B
:100A900000E03720401869460870002301222846EC
:100AA000FFF797FE38BD70B505460C46084600F0C6
:100AB000D5FE82B2002321462846FFF78AFE70BD8C
:100AC00070B50C460546090AFFF7C7FFE1B2284694
:100AD000FFF7C3FF70BD70B50C460546090EFFF762
:100AE000BCFF2002010E2846FFF7B7FF2004010ECD
:100AF0002846FFF7B2FFE1B22846FFF7AEFF70BD10
:100B000038B50A460446FF2907DC69461046FFF758
:100B10007FFF69462046FFF7C6FF38BD18B5F84984
:100B200000220A6005200007448A40231C434482B7
:100B3000448A9C4344824A61F24B8B6201231B042A
:100B4000CB62048880231C4304800092521C0092D4
:100B5000642AFBDB0A68D208D2000A600188994344
:100B6000018018BDE84A81005258E5498A62CA6A84
:100B70007F231B049A43E44B1B1F185C00040243B1
:100B8000CA627047DE49CA6A920A92020243CA6286
:100B9000704730B5DA49FF230868DB04C008C0009D
:100BA00008600868FF220132104308600868C00826
:100BB000C000401C086000209E2402E0401C082861
:100BC00005D28500651BAD005D59ED07F6D10B68B8
:100BD000DB08DB000B600B6893430B6030BDF7B59F
:100BE00094460026FFF7D5FF0546082824D2C44CBA
:100BF0002068FF270137384320604E20401B002328
:100C00006246019900F01AF800280BD000980023E2
:100C100041004F20401B1A46491C00F00FF80028E5
:100C200000D001262068B8432060002E04D0206840
:100C300001214902084320603046FEBDFFB581B066
:100C40000546AF4C02981F46012620620398606259
:100C50002068C008C000801C2060F003284360604A
:100C6000A068C007FCD0032200209203294611434C
:100C700004E06160401CA268D207FCD0A268520761
:100C8000920F02D00A2802D0F3E70A281FD1284683
:100C9000039A029900F041F90646B74317D020683D
:100CA000C008C00020602068C00510D42846039A00
:100CB0000299FFF794FF002809D02068C008C000FF
:100CC00020602068C008C000401C20600126206809
:100CD000C008C0002060304605B0F0BD8849002043
:100CE000086070478649002802D0FF20023000E0EB
:100CF000012008607047FEB5074601201E4602909D
:100D0000002B05D000250C46012A03D0700817E0FF
:100D10000120FEBDFF20E100C0040A180898FFF77B
:100D2000E1FF1168764A0020106020460125641C0E
:100D30003A68089BFFF782FF0028EAD0701E40083F
:100D40000190002000900EE0A800C1194A683958AF
:100D50002046089BFFF772FF0028DAD00098641C39
:100D6000401CAD1C009001998842EDD3B54212D2CF
:100D7000FF20E100C0040A180898FFF7B3FF60499C
:100D8000526800200860A80039582046089BFFF7E9
:100D900055FF0028BDD00298FEBD70B5584C049D8B
:100DA000E0604800012A09D00021084320615B1E51
:100DB0006361002D04D0FF20153002E00121F4E72B
:100DC0001420206000F0A4F8A068800701D500205E
:100DD00070BD012070BD70B5494C049DE0604800B5
:100DE000012A09D00021084320615B1E6361002DA8
:100DF00004D0FF20143002E00121F4E7132020602A
:100E000000F086F870BD70B54900049D012A00D03D
:100E100000223B4C11432161591E6161002D02D01B
:100E2000FF21053103E02168C908C900091D2160BF
:100E3000002108E0A2681205120F082AFAD08A00E1
:100E40008258A261491C9942F4D300F061F8A0686D
:100E5000800701D5002070BD012070BDF8B5284C79
:100E6000069FA5682E068025002E02DAA6682E436E
:100E7000A6604900012A00D0002211432161591EB9
:100E80006161002F02D0FF21043100E003212160C5
:100E9000002107E0A2681205120FFBD0A2698E00A4
:100EA0008251491C9942F5D300F032F8A06800063F
:100EB00004D5A0682843A0600020F8BD0120F8BD3B
:100EC000C01C80080E49401E48611048016910226C
:100ED0001143016170470D4801691022914301617E
:100EE000704710B5052000F050F810BD10B5062071
:100EF00000F04BF810BD10B5072000F046F810BD0B
:100F00000000F407204F101AB418FC07020000502C
:100F1000264881684906FCD57047F0B5234B1C680C
:100F2000FF25C000ED0445191868C008C00018600E
:100F3000BFF35F8F1868402630431860BFF35F8FA0
:100F40001868C008C000401C186098680606802019
:100F5000002E02DA9E6806439E602E686D681F6848
:100F6000FF08FF001F60BFF35F8F1C609C682406B2
:100F700003D599680143996005E0AA4203D1B142C3
:100F800001D10120F0BD0020F0BD08490A68D20857
:100F9000D20002430A608868C006FCD588688006D3
:100FA00001D5012070470020704700000000F407C1
:100FB0002049086070471F480068002800D000479B
:100FC00070471D4A13695B085B00136153691B0E70
:100FD0001B06401E034353619069000E000690619A
:100FE00010690223984349000843106110690421E5
:100FF00088431061106901210843106170470E4851
:101000008169090E09068161016949084900016188
:10101000704700B50021FFF7D4FF07480169C903F5
:10102000FCD5FFF7ECFF00BD034880690002000A11
:10103000704700008C86FC0700E000E010B5FB4A1A
:1010400013885B085B00138013884024A34313803C
:1010500013880824A343C000034313801089800A27
:1010600080020843108110BD30B5F04B1C8801256B
:10107000640864002C431C801C884025AC432C432E
:101080001C80012900D101201C882025AC4340018F
:1010900004431C8018881024A043090108431880C9
:1010A0009888800A80021043988030BD30B5EFF3F5
:1010B0001081012282F3108805231B079A882024BF
:1010C000A24322439A80002900D0012181F3108895
:1010D000D64C6034A18949084900A181A189C9077A
:1010E000C90FFBD1D149002220310A82CF4A03889F
:1010F00093824388138383889383C3880B801388E8
:101100000625AB43457A6D002B4313808A8B530928
:10111000827B5B01521E13438B830A8B5309C27B74
:101120005B01521E13430B83817A012917D08189F9
:10113000C07AFFF783FFA189012081430143A18188
:10114000A089C007C00FFBD0B94801688022090AF6
:10115000090211430160B7491020086030BD82893F
:10116000C17A007AFFF780FFE5E7B04860308189F7
:101170004908490081818189C907C90FFBD105212F
:10118000090788882022904388807047F0B59E46E2
:10119000A64B0025A54C844680332846A34F6034D7
:1011A0000FE0258AAD07ED0FFBD065462D5C3D8233
:1011B000401C1D8880B2002D03D09C494031898A93
:1011C0000FE00E46491E89B2002EEAD17146C907CA
:1011D00007D0218A4907C90FFBD0218A8906C90F88
:1011E000FBD1002A00D01580F0BDF0B50027844661
:1011F000FF2638463B4601368C4C22E05B1C9BB2F6
:10120000268201E0894D60358B4209D22F8ABF07C3
:10121000FF0FF3D104E0278A65462F54401C80B2AB
:10122000884205D2814F60373F8BBF06BF0EF2D197
:101230007E4D80352F88002F03D07C494031898A2C
:1012400001E08842DED3002A00D01780F0BD7A4A40
:10125000D062764820300182704710B500210846E0
:10126000FFF7F5FF042000F09AF910BD70B50546B0
:10127000FFF7F3FF704B002018609C68002C03D030
:10128000D9882A46D868A04770BD10B56A49420679
:1012900006D50020FFF7EAFF64484030808A10BD81
:1012A000664C800511D5C8888988884201D1012003
:1012B00000E00020FFF7DAFF208810BD0B68185C03
:1012C0001082C888401CC88000E0584AC8888B88B3
:1012D000984203D2238A9B07DB0FEFD18A8880B222
:1012E0009042EAD1087CC00706D050492031088AD4
:1012F00010229043088210BD0120FFF7B7FF10BDF8
:1013000070B44D4C039E20600D46A5800020E08007
:1013100008344CC4494850212038808AF00703D053
:10132000464800882521090170BC45488FE770B503
:101330000546FFF792FF404B002058611C6A002CC5
:1013400003D0598B2A46586AA04770BD70B53A49F8
:1013500043061431354A3948002B0ADA0020FFF7DA
:10136000E6FF36482038808A70BD5B1C0B811482F2
:1013700001E0FF2401340B898D88AB420AD2058A33
:10138000AD07ED0FF1D105E0138A0D682B55CB8821
:101390005B1CCB80CC888B889C4203D2038B9B0642
:1013A0009B0EF1D18888A2B28242DDD10120FFF7E5
:1013B000BEFF70BD70B4204C039E60610D46258356
:1013C00000206083A08320344CC41C485421203862
:1013D000808A70BC1B483AE730B502460020174CA3
:1013E000124D07E0238B9B069B0E03D02B8A1354D0
:1013F000401C80B28842F5D330BDF0B500240F4FB9
:1014000084462046094E20370C4B1DE01C8AA40759
:10141000E40FFBD06446245C401C80B234823C88DC
:10142000002C11D005492039898A1AE00013005098
:1014300004E400E000E100E00480FC0760130050D9
:101440008B12FC074D13FC070D46491E89B2002D77
:10145000DCD1198A4907C90FFBD0198A4906C90F7F
:10146000FBD1002A00D01480F0BD70B50646504C68
:101470008007504D002805DA0020FFF758FF4D483F
:10148000203800894B4A603A288B8006800E0AD0AB
:10149000E088A188884206D2118A23681954E0881E
:1014A000401CE080F0E7E088A188884201D0B005C8
:1014B00003D50120FFF73BFF288870BD30B43C4CBA
:1014C0003D4D143C606121830020608363622946A6
:1014D000226230BC3948BAE6F8B5354C0546143CB2
:1014E000374E400603D50020FFF7C0FEB08AA8079C
:1014F00003D50020FFF7BAFE30892E4FA8050AD584
:10150000E088A188884201D1012000E00020FFF797
:10151000ADFE3888F8BD28060AD5E088A188884243
:1015200001D1012000E00020FFF7A0FE308BF8BDC4
:10153000A806FCD5E088A18888420BD2398A8907A1
:10154000C90F07D0411C2268E1801D49105C403959
:10155000088202E00020FFF789FE308AF8BD30B42F
:10156000154D134CE035143C2060A1800020E08034
:101570001348E360A260808A294630BC114866E6C1
:101580000F4810B52038808909491439C96A0029E3
:1015900001D0884710BD042000F001F810BD0028DC
:1015A00005DBC106C90E0120884007490860704765
:1015B0001880FC0760130050060200006B14FC0743
:1015C00040130050D914FC0780E200E008B51E4D1E
:1015D00000241BA128460094FFF765FA1BA12846AA
:1015E000FFF761FA1EA12846FFF75DFA17A128460A
:1015F000FFF759FA204F1F4E7D000098401C0090C5
:10160000B04207D100210120FEF7CDFD1BA10E48FD
:10161000FFF749FA0098B84207D100210120FEF7F0
:10162000B8FD1AA10848FFF73EFA0098A842E4D195
:101630000094E2E700F08FF800F030F8FFF7C6FF03
:101640000A0D0A0D00000000001100502A2A2A2A63
:101650002A2A2A2A2A2A2A2A2A2A2A0A0D000000A5
:101660002A20424C494E4B592044454D4F202A0ACE
:101670000D00000010270000801A06000A0D202A25
:101680004C4544204F4E2A20000000000A0D202A1D
:101690004C4544204F46462A20000000F8B505245A
:1016A0002407208A022188432082A08A0007FCD5D3
:1016B00010484188FF220132114341800E490F48F2
:1016C000FFF720F800250326042336023246194688
:1016D00028460095FEF771FD002332461946012089
:1016E0000095FEF76AFD608A2021884308436082E6
:1016F000F8BD000020000050C418FC070011005085
:10170000704708B53B4908803B494A8801231A4382
:101710004A80002200920099491C00911429FADBAA
:10172000052109074B899B089B005B1C4B814B895A
:101730005B06FCD54880192080010092521C009263
:101740008242FBDB48898008800048814889000686
:10175000FCD508BD704738B5284908200880FEF739
:10176000FFFC254820304088FFF7F4FF2248603016
:101770004188C908C90041801F4C618989050AD583
:101780004188C2130905090D8918418041887822D2
:101790009143403141806088400840006080184893
:1017A0000021016005252D076B8A402213436B82BF
:1017B0006B8A93436B824161124A82620122120456
:1017C000C262288880221043288000910098401C23
:1017D00000906428FADB0020FFF784FAFFF79EF9F7
:1017E000FFF75CFFA220E8826088E0218843A030F8
:1017F000608038BD9086FC07200000500033005008
:101800000000F407204F101A30B50B4601460020A7
:101810002022012409E00D46D5409D4205D31D46F6
:101820009540491B2546954040191546521E002DEE
:10183000F1DC30BD70B500242546002801DA012412
:101840004042002901DA01254942FFF7DDFFAC42A1
:1018500000D04042002C00D0494270BD421C0178AB
:10186000401C0029FBD1801A70470000064C01255E
:10187000064E05E0E36807CC2B430C3C9847103438
:10188000B442F7D3FEF710FCDC18FC07FC18FC0789
:1018900002E008C8121F08C1002AFAD17047704739
:1018A000002001E001C1121F002AFBD17047000097
:1018B00000000001040942000813840010270809F1
:1018C000204F101A0B0800830000000002000000E7
:1018D000000000000000000000000000FC18FC07F1
:1018E0000080FC07040000009018FC070019FC07AA
:1018F0000480FC0790060000A018FC070024F400F8
:0400000507FC00A153
:00000001FF
